:020000022000DC
:106000000000012079630200616302006363020003
:10601000656302006763020069630200000000001C
:106020000000000000000000000000006B630200A0
:106030006D630200000000006F63020071630200E4
:10604000A5830200736302000986020073630200E5
:106050007363020073630200898402002D860200CC
:1060600073630200736302007363020073630200D0
:1060700073630200736302007363020073630200C0
:106080007363020001650200736302007363020020
:106090009D650200736302007DCA02007363020003
:1060A0007363020073630200736302007363020090
:1060B0007363020073630200000000000000000030
:1060C0007363020073630200736302007363020070
:1060D000258C02007363020073630200000000005D
:1060E00000000000000000000000000000000000B0
:1060F00000000000000000000000000000000000A0
:10610000000000000000000000000000000000008F
:10611000000000000000000000000000000000007F
:10612000000000000000000000000000000000006F
:10613000000000000000000000000000000000005F
:10614000000000000000000000000000000000004F
:10615000000000000000000000000000000000003F
:10616000000000000000000000000000000000002F
:10617000000000000000000000000000000000001F
:10618000000000000000000000000000000000000F
:1061900000000000000000000000000000000000FF
:1061A00000000000000000000000000000000000EF
:1061B00000000000000000000000000000000000DF
:1061C00000000000000000000000000000000000CF
:1061D00000000000000000000000000000000000BF
:1061E00000000000000000000000000000000000AF
:1061F000000000000000000000000000000000009F
:10620000364937480A1A02D0072291438D4635494C
:1062100035480A1A06D00722914381F309880222E1
:1062200082F3148831483249324A00F045F8324846
:106230003249334A00F040F832483349334A00F0DB
:106240003BF833483349344A00F036F83348344990
:10625000344A00F031F834483449354A00F02CF81B
:1062600034483549354A00F027F835483549002289
:1062700000F02DF834483549002200F028F8344861
:106280003449091A082903DB002202600430016046
:10629000314A90471F482049884205D0026804309F
:1062A00003B4904703BCF7E700208646EC46002085
:1062B00000212A4A9047FEE7884207D0521A05D0AB
:1062C000037801300B700131013AF9D170478842EF
:1062D00002D002700130FAE7704700000000012090
:1062E00000C000200000012000000120E8E60200BC
:1062F000742200208E220020D8630200D86302009E
:1063000028E40200E8E60200742200207422002043
:10631000BCE40200BCE40200BCE40200BCE40200F5
:10632000BCE40200BCE40200BCE40200BCE40200E5
:10633000E8E6020004E702009022002090220020FC
:1063400090220020B42F0020B42F0020B82F00206E
:10635000B82F0020B86F0020A16302000391020053
:10636000FEE7FEE7FEE7FEE7FEE7FEE7FEE7FEE705
:10637000FEE7FEE7704700BF1048804710484FF027
:106380000701884385460F4880470F48016841F45C
:1063900070010160BFF34F8FBFF36F8FFFF730BF06
:1063A0000A480B490B4A884207D0521A05D0037895
:1063B00001300B700131013AF9D170477563020069
:1063C000000001200D7F020088ED00E0A8E402003B
:0863D00060220020742200206D
:1063D80000487047AC2F00201FB50021039001AA88
:1063E80044F20100CDE9011100F004F805B05DF8B0
:1063F80004FB000072B6094B1B68DB0700D500BE22
:10640800BFF34F8F0649074BCA6802F4E062134393
:10641800CB60BFF34F8F00BFFDE700BFF0ED00E09A
:1064280000ED00E00400FA05094A53789178013339
:10643800DBB2994208BF0023117899421FBF03704D
:106448005078182303FB002014BF04300020704745
:106458009022002073B5054602A8002400F8014DDB
:106468000E4600F083FA0DF10600FFF7DDFF90B14C
:1064780006700A4B9DF8062045605A709DF8070083
:1064880000F098FA24B9064B4FF48012C3F80021A3
:10649800204602B070BD0424F0E700BF902200201F
:1064A80000E100E0024B4FF43C6043F00103184761
:1064B800C0E4020038B50C4B0C4C4FF40032C3F862
:1064C800802001254FF48033C4F84833C4F80833DA
:1064D8006560FFF7E7FF064BA56000241C60FFF727
:1064E800E1FF044B1C7038BD00E100E000100140E2
:1064F800AC2300209D230020F8B51F4B1F491B68C3
:106508000025C1F84051C1F84451C1F84851C1F8BB
:106518004C51C1F80051C1F804514BB3D1F80445AE
:1065280017490968641A24F07F442F461A68A24262
:1065380009D8A41A15441A7CDE691AB11F74D3E964
:1065480005209047AEB90F4B0F4A197813788B4244
:1065580005D10133DBB2022B08BF00231370127878
:106568000A4B43F822500A4B4FF48012C3F800211B
:10657800F8BD3346DAE700BFB02300200010014021
:10658800AC230020A8230020A9230020A02300205A
:1065980000E100E02DE9F74F9E4A9F4913780978FA
:1065A8009E4D99423CD00133DBB2022B08BF002339
:1065B80013709B4912789B4B0F6853F822003B18C5
:1065C80023F07F4300220B602B681646144694463E
:1065D80013B942B12B6006E0196881420ED902B1A5
:1065E8002B60091A19604FF001082B68DFF83CA2EC
:1065F80000930027BEB9DFF83CB260E0401A0C44B3
:10660800D968C3F800C0D3F81CE031B13A1922F0B8
:106618007F42C3E90121DE611E4601227346D7E7A6
:106628000026B046E1E73446F6697D4A6368126899
:10663800DFF804C2A068991A21F07F41614500F291
:10664800A58001442160012222742A680023C4E93C
:106658000133E361002A40F0A2802C60CAE75A1C8B
:106668009BF80210D2B291428BF8002004BF00229E
:106678008BF80020182202FB03B32A6819799C685A
:10668800022974D003297ED0012918D1217CB1B9FF
:10669800DA6862601A69A2605A699B69A361624BF1
:1066A800E2601B78002BC0D06160BEE79C4200F01E
:1066B80093809946DB69002BF8D1002323749BF85B
:1066C80000309BF801209A42C9D12B682FB9009A53
:1066D800934202D1B8F1000F43D0002B79D0D3F800
:1066E80000A0524D4E4BD5F804751C68DFF84C815C
:1066F8003E1B98F8003026F07F4603369BB94FF4CE
:106708008033C5F84433C5F80433494B4FF400329D
:106718004FF00109C3F880211A60C5F80090FFF70F
:10672800C1FE88F80090B2452CBF5444A41924F047
:106738007F44C5F84045D5F80435DB1B23F07F437B
:10674800E41B033324F07F44A3420AD9D5F8043567
:10675800C5F84035FFF7A6FE354B4FF40032C3F8B5
:106768000021314B00221A7003B0BDE8F08F1346A8
:106778009146A0E71174D2690123002AFAD1002BAF
:106788009DD02A609BE700231946F6E7D31A23F029
:106798007F43834234BFC31A0023236053E7216831
:1067A8001368994213D8591A1160E26155E7091A1A
:1067B800D8691A4638B1034618688842F7D3401A90
:1067C8001860184613462160E061DC6112E7134641
:1067D800F2E7FFF76FFEC4E74C450DD1D3692B6094
:1067E80053B90F4801920121CAF8081003600E4BF3
:1067F8001970FFF757FE019AE1692368C9F81C1060
:1068080011B1086803440B602B689A4218BF01272E
:1068180053E700BFA8230020A9230020B0230020AD
:10682800AC230020A02300209C230020001001405E
:1068380000E100E090220020FEFF7F009D23002061
:1068480008B5FFF737FE104B00200B2218809A700E
:106858000E4B18600E4B18700E4B18700E4B4FF401
:106868008012C021C3F8802183F814131A6002F142
:106878008042A2F56F22C2F8080583F81113074B6E
:10688800D2F804251A6008BD90220020B023002009
:10689800A8230020A923002000E100E0AC23002069
:1068A800074B9B784BB132B128B10368187C20B9EB
:1068B80059745A617047072070470820704700BF15
:1068C800902200202DE9F7431D4FBB7805460E4660
:1068D80090469BB390B304292ED9436973B3437C84
:1068E80002A80024012B00F8014D0CBF8946A146DF
:1068F80000F03CF80DF10600FFF796FDD0B101233A
:106908000370104B4560D3F80435C0E90498C0E91A
:1069180002369DF806307B709DF8070000F04AF8B3
:1069280024B9094B4FF48012C3F80021204603B064
:10693800BDE8F0830424EFE70724F7E70824F5E728
:10694800902200200010014000E100E0064A927801
:106958003AB130B1426922B1002202740221FFF734
:1069680079BD0820704700BF9022002070B5EFF372
:10697800108672B60C4A946801239CB993600B4B3D
:106988000B4DD3F8801029401160C3F88050D3F81C
:10699800841051604FF0FF32C3F88420047006B9A8
:1069A80062B670BD0370FAE7B423002000E100E08E
:1069B800FC06FFBD084B9A6810B55AB150B9EFF301
:1069C800108172B6054A1C6814605C68546098604F
:1069D80001B962B610BD00BFB423002000E100E099
:1069E80070B5064E0546002456F824300BB12846EB
:1069F80098470134042CF7D170BD00BFCC23002088
:106A0800033080B240F2FD33984230B51FD8124BA4
:106A18001A783AB91C895D892C440444A4B2B4F5A7
:106A2800806F0AD31A7DA2B99A8BDC8B2244024468
:106A380092B2B2F5806F0CD201220A801446142259
:106A480002FB04335A8910445881002030BD0920C4
:106A5800FCE70720FAE700BF002400200B4A0C4B94
:106A68005188142000FB0131CB6833B904204968F0
:106A780010700122074801F006B805230649137073
:106A880002238B80012200230968F3E7E423002016
:106A98000024002060220020C824002007B500231D
:106AA80005490093054A09680548082300F0BDFF19
:106AB80003B05DF804FB00BFC8240020D4E4020042
:106AC8006022002007B50023009301460823034AEB
:106AD800034800F0AAFF03B05DF804FBCCE4020011
:106AE8006022002013B500230C46009301460423BE
:106AF800074A084800F099FF38B9074B142202FBEF
:106B080004340123237402B010BD0E20FBE700BF3C
:106B1800C8E40200602200200024002037B50A489B
:106B28000A4B42689C88196853880325033305700B
:106B38009BB2002000909B0001EB8401044800F008
:106B480074FF03B030BD00BFE4230020C824002038
:106B58006022002010B50146044800F042FE1C22C5
:106B68000446002106F051FB204610BDB424002045
:106B78004388033300EB8303994209D382884FF695
:106B8800FF739A4206D00088B0FA80F04009704737
:106B980002207047012070472DE9F8430223DFF8EF
:106BA80060800B800D46174600F5805600F10804FA
:106BB8004FF00109B4420FD2236801330CD031469B
:106BC8002046FFF7D5FF48B10FB187F8009002289B
:106BD8000BD14FF480632B80BDE8F883A368D8F805
:106BE8000020934201D9C8F800302B88628803330B
:106BF80013442B806388033304EB8304DAE700BF74
:106C0800F8230020144A142303FB002070B50B68F6
:106C180044680D4604F580569BB15C88033403EB49
:106C28008404B4420BD22368013308D0314620468D
:106C3800FFF79EFF012809D005D30228F1D10020D3
:106C480003E00834EDE72C60012070BD638803334E
:106C580004EB8304E5E700BF00240020436873B514
:106C680005460C466BB3254AD1688B4229D3126975
:106C7800934226D813F0030223D1214900890989B8
:106C880088421ED12868996888421AD11D494868E7
:106C9800834203D900F5805083420ED38A69934218
:106CA8000DD902F58052934209D201232380002096
:106CB800B0FA80F0400902B070BD1346F6E70A202A
:106CC800F6E7002323801E462388012B01D90020E4
:106CD800F1E7019601A92088FFF794FF18B92388E6
:106CE80001332380F0E7019B2A6899689142F1D12A
:106CF8006B60034B1B892B81DDE700BF60220020FE
:106D0800E4230020002400202DE9F8431C461E4BF4
:106D18001B7806460F461546002B30D0002A30D087
:106D28007CB3DFF86C804FF01409A388012B01D9DC
:106D38000A201AE009FB03F318F80330BBB1A38853
:106D48000133A380F1E723681EB199883288914204
:106D58000DD11FB119883A88914208D19A68C5E9BE
:106D680000230A4B1B892B810020BDE8F8832146AC
:106D7800A088FFF747FF0028E5D12060DFE7022061
:106D8800F3E70520F1E700BFDC230020E42300201F
:106D98000024002008B5074B191D5888FFF732FF5B
:106DA80018B1BDE80840FFF7B9BEBDE80840FFF7D5
:106DB80055BE00BFE42300202DE9F04FA04FDFF8B7
:106DC800A49289B00646B8463B6823B949469D480F
:106DD80000F041FD3860D8F8005029784B1E052B8B
:106DE80000F21281DFE813F0060076007600060153
:106DF80006015D0126B1944B00225A60012424E06B
:106E08002B79032B1DD8DFE803F01502424D8F497B
:106E18000B78022B084631D00B7D022B4FF0010373
:106E28002ED114225343C2180020C8545068FFF7CB
:106E380049FE03E001232B71FFF730FE002800F024
:106E4800D380814B00225A600E241422002103A80B
:106E580006F0DBF941F61D539C4208BF0024D8F820
:106E6800003004941A78023A042A00F2D381DFE849
:106E780012F0B401C001E301EB01F2010023D0E7F5
:106E8800714A13700023536041F61D54DDE77049C1
:106E98007048002302222B718A800122096800F0C1
:106EA800F2FDCBE76A4C00262E712068674DFFF78C
:106EB80009FE694BD4F800C05A8814235343EA18D2
:106EC800EE5451682160A188C2F804C011810222E1
:106ED800A280B3E7B5F814A0AA7DDFF870B1AEB10F
:106EE800022AEB8806D9142101FB0AB1DA1C0889A9
:106EF80002440A81142202FB0ABAC3F57F43BAF896
:106F08000A20FD331344AAF80A3077E7142303FB59
:106F18000AB318895C6804EB8004062A05D8DFE800
:106F280002F0264C34421C5866000F24AA7DEB88D8
:106F3800022A06D9142101FB0AB1DA1C0889024485
:106F48000A81142202FB0ABAC3F57F43BAF80A2061
:106F5800FD331344AAF80A3077E740484049002334
:106F68004360AB690360FFF779FE00285AD002231B
:106F7800AB75002300930423EA182146354800F036
:106F880054FD002830D00E24D0E72B69002B0CBF0D
:106F980001230323AB750023009305F10C0204239E
:106FA80004F10801EAE70123AB750022EB8800929F
:106FB8009B002A6904F10C01E0E7032914BF0623AA
:106FC8000523AB7500230093042305F10802E1189B
:106FD800D4E70623AB75224B1988204B5868FFF776
:106FE80081FD04460028A1D109B0BDE8F08F41F623
:106FF8001D549BE7002E7FF401AF2B79012B33D072
:1070080004D3022B3FF440AF0F241EE702232B7159
:107018000DF10A01EB68039303A8CDE90466FFF7B5
:107028001DFE08B90A2410E70498BDF80A108388E1
:10703800EB8003882B81FFF755FD044627E000BF4E
:10704800FC230020B4240020DC230020002400209E
:10705800C824002060220020E4230020C023002050
:10706800D4240020F4230020DFF808A203AA534602
:107078003146A81DFFF748FE044660B9BAF8041067
:107088000498FFF72FFD04460A2C3FF4FDAE002CB0
:107098007FF4DBAEA8E708223146504606F0B5F883
:1070A800F2E7002E7FF4AAAE6D4B1A7BB2B11E73C5
:1070B8001A78013A062AA7D801A151F822F000BF90
:1070C8006F71020095710200B3710200B97102007C
:1070D80011700200BF710200D57102001A78072AE8
:1070E800E6D801A151F822F011710200B97002002E
:1070F800B9700200377102004B7102006B71020017
:107108006B710200337102001A89564901321A81E3
:1071180000225A801A730A78B2FA82F252099A72D5
:107128000A7DB2FA82F25209DA72012207E04E4968
:1071380058688A884088033202448A8002221A707A
:10714800B6E7484C5A884849142505FB02420868A6
:10715800546850608888108102228A800C60062258
:10716800EDE70722EBE79A7A32B9DA7A8AB9002290
:107178001A705A805A6087E63A4900229A72CA6899
:10718800002AF2D1097C0029EFD05A80FFF702FECD
:1071980053E70022DA72334A116A0029E7D192F8DC
:1071A8002420002AE3D00122EFE7FFF7B7FC44E7E9
:1071B800FFF754FC41E706221A702A4A5B8814211B
:1071C80001FB03235868FFF77DFC36E707221A7096
:1071D80000225A60FFF762FC2FE701228DF80C208D
:1071E8001A89ADF818209A88DB68ADF81A2005933B
:1071F80010E002228DF80C201A89ADF818209A8820
:10720800ADF81A20DA689B7D05929A1F53425341C4
:107218008DF81C3003A8FFF7E3FB00264946134806
:10722800C8F8006000F042FB0121114800F0E6FBBD
:1072380000287FF4C9ADD7E603228DF80C20DA8840
:10724800ADF818201A89CFE70422DB888DF80C20C6
:10725800ADF81830DEE705238DF80C30DAE700BF0B
:10726800E423002000240020C8240020B4240020A7
:10727800C4240020D82400204068FFF79DBD0000EA
:1072880008B50121044800F0A3FB18B9BDE808407F
:10729800FFF792BD08BD00BFC42400202DE9F341CB
:1072A8009846354B1B7806460D46002B5BD00029C7
:1072B8005BD009884FF6FF73994258D06B88002B32
:1072C80055D06B689B0754D14AB92F890DF102013B
:1072D8003846FFF795FB30B102B0BDE8F08113885E
:1072E8005788ADF8023001A8FFF734FC044658B9B6
:1072F800BDF80230214A142101FB032358890338C1
:10730800C01B58810820E7E700238375BDF80230C9
:1073180083826B68036180F800800121184800F0BF
:1073280062FB2B882381B8F1030F6B88A38004BF0D
:107338000423A3754FF0000508BF3368E06008BF59
:10734800A361E780658101A90E4800F074FA36B19F
:10735800E36833600C4B75601B89B5723381FFF7A6
:107368008FFF0020B8E70220B6E70520B4E7042025
:10737800B2E70320B0E700BFDC2300200024002090
:10738800F8230020B4240020E423002008B5084B8B
:107398001A68042A09D01968064A42F8210001210E
:1073A800184600F020FB002008BD0C20FCE700BFB9
:1073B800D0240020CC2300202DE9F04F89B01422DE
:1073C800002103A805F021FF7B4A137803F0FF0191
:1073D800009190463BB103A8FFF702FB0026304618
:1073E80009B0BDE8F08F101D00F013FB054600281A
:1073F800F4D14FF010234FF080525B691169526944
:10740800DFF8DCA1581C08BF02FB01F3CAF81030F2
:107418000022A3F540536949CAF80C30504600F0E1
:10742800FBFA06460028DAD11C238C2264496548F9
:1074380000F0A2F93746B3464FF003093446CDF8B9
:1074480004A0019BD9680BEB010002465BF8011010
:10745800002835D05C4B994232D141685B4B994248
:1074680015D0013399422BD1009BDFF86CA1002B7A
:1074780059D100225649CAF80000FFF78DFBBAF827
:107488000420022A14BF0822042217433AE0514973
:107498004FF0140C0CFB04FC01EB0C024FF0000E37
:1074A80001F80CE050600CF110020CF1080C0A44D1
:1074B8006144FFF771FB47F002070134A4B221E0F1
:1074C80000F5805C1168013167D104329445F9D127
:1074D800414A116829B90221012310609180009363
:1074E8000EE0142262433B4B4FF0020E991803F84A
:1074F80002E03A4A486054800134A1F808E0A4B296
:1075080047F001070BF5805BBBF5405F99D1B9F1F6
:10751800010F88BF3D46EDB2022D02D0062D12D0D4
:10752800DDB90B265BE72B4B1422624399184FF009
:10753800020C03F802C00134DAF800204A60A1F80E
:1075480008C0A4B295E7012388F8003003A80023F7
:10755800C8F80430FFF744FA41E702A8FFF7FAFA3F
:10756800C8B10123013D03700A2D09D8DFE805F0F1
:1075780006080608070807080F110F000023037103
:1075880002A9104800F057F9FFF77AFE27E703230E
:10759800F5E70223F3E7082621E70E4914226243A0
:1075A80001EB020C09F1FF39CCF8040003201FFAA3
:1075B80089F9885481E700BFDC230020E8E4020051
:1075C80028240020B4240020DEC0ADDEFE011EF118
:1075D800CC24002000240020C8240020E42300201C
:1075E8006022002073B50D460446C8B1C1B10DF143
:1075F8000601FFF733FBA8B10B4BBDF80600666820
:10760800142202FB003001210C3000F0ECF9636811
:107618002E600C336B600123A372002002B070BD92
:107628000520FBE70A20F9E70024002013B50446EB
:10763800A8B10DF10601FFF711FB90B10B4ABDF897
:107648000630142101FB0323DA6862B1A27A52B131
:10765800DA680020013ADA60A07202B010BD052095
:10766800FBE70A20F9E70620F7E700BF002400201F
:1076780002230022FFF712BE18B103230022FFF7EE
:107688000DBE052070470000104B1B7813B504464B
:10769800ABB14FF6FF73984213D001A8FFF75AFA1F
:1076A80088B10523037001230371C48001A9084828
:1076B80000F0C1F8FFF7E4FD002002B010BD022081
:1076C800FBE70420F9E70820F7E700BFDC230020E8
:1076D800B42400200E4B1B7807B5A3B101A8FFF70F
:1076E80039FA90B10623037001A90A4800F0A3F8FB
:1076F800094B1A780AB101221A73FFF7C1FD00205D
:1077080003B05DF804FB0220FAE70820F8E700BFA1
:10771800DC230020B4240020E423002007B5ADF8C2
:10772800060002A820F8041D01460DF10600FFF727
:10773800EBFA03B05DF804FB13B502AC134624F86A
:10774800020D0A4600202146FFF7DEFA02B010BDFE
:1077580013B502AC134624F8020D0A462046002150
:10776800FFF7D2FA02B010BD20B119B103680B605F
:10777800002070470520704710B561B1B2FBF3F4E3
:1077880003FB1424A4B244B9C0E9001484608281C4
:10779800C381204610BD0E20FCE70920FAE782B01D
:1077A80050E8022FC188B2EB324F4FF0000317BFE9
:1077B80092B241EA014142EA014104E04268B2EB77
:1077C800324F08BF012340E80212002AE8D18DF8A1
:1077D80007309DF80730002B0CBF1120002002B0A5
:1077E800704737B550E8013F9DB2C4892544848964
:1077F800A54228BF2D1B0489A54202BFBFF32F8FC6
:10780800002207E0C5EA030540E80154002CE9D14D
:107818004FF001028DF803200193019B9DF803208E
:107828000B6002F0FF0322B10B880068184403B014
:1078380030BD1846FBE70A884B889A4209D150E8C0
:10784800012FC2EA024240E80123002BF7D10120B0
:1078580070470020704737B550E8023F1FFAA3F57C
:10786800C488A54202BFBFF32F8F00220DE0C48950
:1078780025448489A54228BF2D1BC3EA054540E855
:107888000254002CE8D14FF001028DF80320019337
:10789800019B9DF803200B6002F0FF0322B14B8887
:1078A8000068184403B030BD1846FBE70A884B88C7
:1078B8009A4209D150E8022FC2EA224240E8022344
:1078C800002BF7D1012070470020704701F01F02FC
:1078D8004B090121914000EB830000F063B84B098C
:1078E80010B501F01F040121A14000EB830000F056
:1078F8004EF8E04000F0010010BD01F01F03012226
:107908009A404B0900EB8300D14300F056B84B096D
:1079180001F01F0150F82300C84000F00100704733
:107928002DE9F0474E1E760980460F4601360025A0
:1079380058F8254008EB850AE44394FAA4F4B4FA0D
:1079480084F44FEA4519202C06D10135AE42EFD810
:107958003C462046BDE8F0874C44A742F5D921466D
:107968004046FFF7BCFF0028F3D0DAF80040E443B4
:1079780094FAA4F4B4FA84F4E5E750E8002F0B462F
:1079880040E8003C9CF0000FF7D11046704750E8E3
:10799800002F42EA010340E8003C9CF0000FF6D1BA
:1079A8001046704750E8003F43EA010240E8002CC7
:1079B8009CF0000FF6D11046704750E8003F03EAEC
:1079C800010240E8002C9CF0000FF6D110467047E9
:1079D80050E8002F02EB010340E8003C9CF0000F48
:1079E800F6D11046704750E8003F03EB010240E82B
:1079F800002C9CF0000FF6D11046704750E8003F6D
:107A0800A3EB010240E8002C9CF0000FF6D11046D1
:107A180070470121FFF7BBBF0B4620B11BB10360C4
:107A280011461B6818470E2070472DE9F04108B32E
:107A380002B3D0F800E0BEF1000F1ED0FBB14768DA
:107A4800D7F80480B3FBF8F708FB1737BFB942EA49
:107A5800010C1CF0030F14D1C768B94211D34C1E96
:107A680005691C44AC420CD8DEF80C40A446BDE8BD
:107A7800F04160470E20BDE8F0810820FBE70920AF
:107A8800F9E71020F7E7F0B5D8B1D0F800C0BCF19D
:107A9800000F18D0CAB14768D7F800E00EF1FF37D9
:107AA8000F4214D1C768B94211D34C1E05690EFBA9
:107AB8000244AC420BD8DCF81040A446BDE8F040C4
:107AC80060470E20F0BD0820FCE70920FAE71020E7
:107AD800F8E729DF704728DF704770B503689D68AD
:107AE80086B004460E466DB114220021684605F0A2
:107AF8008CFBA3680593237901962BB1012B0DD03C
:107B08006846A84706B070BD01238DF80030236988
:107B18000293E368039363690493F1E702238DF802
:107B28000030E3681B030293F5E70846704700201E
:107B380070470000024B187A003018BF01207047C8
:107B48007C250020034B187A0122B0FA80F05A7481
:107B5800400970477C25002008B510461A4605F0F4
:107B68002BFB002008BD000008B5142200210448A2
:107B780005F04BFB0348FFF712FE002008BD00BFCD
:107B88007C2500206C25002010B5094C094B43606A
:107B98002046FFF73EFF40B904F052FF1C23207433
:107BA8008C2205490548FFF7E7FD002010BD00BFFE
:107BB8007C250020DCE40200E02400206C25002065
:107BC80070B5244D244E2B7A2C463BB923492448C2
:107BD800FFF741FE306008B9686070BD0223237268
:107BE80033681A7972B1012A24D018460321FFF7A5
:107BF80074FF00232372636018491948BDE8704078
:107C0800FFF754BED3E90520121AB2F5805F28BFEA
:107C18004FF48052D3E903159208012A014438BF72
:107C280001222844FFF755FF50B11128DDD1012367
:107C38002372D2E7D3E903021044FFF74CFFF3E7BE
:107C4800237C002BC9D10146BDE87040022000F01A
:107C580009B800BF7C25002094250020902500202D
:107C68006C25002038B5831E012B45D8234C237A78
:107C7800002B41D0022B09D1032830D0204B1B68A0
:107C88000022E2601A793AB1012A22D0637C7BBBD8
:107C9800BDE83840FFF794BFD3E905128D1AB5F552
:107CA800805F94BF521902F580529A619142EDD1DA
:107CB80002284FF0000308BF19462372104B18BF63
:107CC8000D211868FFF709FF0E490F48FFF7EEFD71
:107CD800DCE71A6901321A615B699A42E7E7E368EF
:107CE8000133082B01D8E360D0E70023E360DFE726
:107CF800BDE8384004F094BE38BD00BF7C250020A4
:107D080094250020902500206C25002000F0FD031C
:107D1800012B08D1044B00225A74421E5042504194
:107D28001874FFF74DBF70477C25002010B5064C2E
:107D3800201DFFF76EFE28B9637C1BB9BDE8104013
:107D4800FFF73EBF10BD00BF7C2500202DE9F341A1
:107D580080460D460F4801A916461F46FFF741FD0C
:107D68000446A8B11C22002105F04FFA2D0B01236F
:107D7800237101A9C4F80080A760E5606661054821
:107D8800FFF759FDFFF7D2FF002002B0BDE8F081F0
:107D98000420FAE76C2500202DE9F7438146884640
:107DA800104801A917461E46FFF71BFD0446B0B14F
:107DB8001C22002105F029FA00250A9BA36001A9CD
:107DC8002571C4F80090C4E9037866610548FFF797
:107DD80032FDFFF7ABFF284603B0BDE8F08304206F
:107DE800FAE700BF6C25002041DF7047064B10B54D
:107DF80000241C70054B1C60BFF35F8F04490548C5
:107E080000F030F8204610BDA0250020A425002051
:107E180008E502009825002007B502A8002300F80D
:107E2800013DFEF7A3FDF1EE103A23F09F03E1EECA
:107E3800103ABFF35F8F0A4B4022C3F884219DF8A4
:107E48000700FEF7B7FD04F0FBFD20B1FFF7CCFFFC
:107E580003B05DF804FB20BF40BF20BFF8E700BFB8
:107E680000E100E00B684A684360934208BF0023C2
:107E7800016008BF43607047436843B10268916876
:107E880052680B449342436004BF00234360704729
:107E98000C4B1B78062B10D10B4B1B681A070CD107
:107EA8000A4B186800F0F003302B08D000F0E0000F
:107EB800A0F1400358425841704700207047012004
:107EC800704700BFE00F00F0E40F00F0E80F00F08B
:107ED800094B1B78062B0CD1084B1B681A0708D1D5
:107EE800074B186800F0F000A0F1300358425841E1
:107EF80070470020704700BFE00F00F0E40F00F06B
:107F0800E80F00F008B5FFF7C3FF28B17D4B7E4AA4
:107F18001B68C3F304231360FFF7DAFF10B17B4B30
:107F28007B4A1A60FFF7B4FF28B17A4B7A4A1B687C
:107F3800C3F342331360FFF7CBFF20B1774AD3680E
:107F480023F08073D360FFF7A3FF40B14FF0804365
:107F58000022C3F80C21C3F81021C3F83825FFF715
:107F6800B7FF10B16E4B03221A60FFF7B1FF40B1A3
:107F78006C4B05221A6001229A6700229A603F2200
:107F88005A60694B1B78062B50D1684B1B68190740
:107F98004CD1674B1B6803F0F003502B46D14FF0D0
:107FA8008052644BD2F80414C3F82015D2F8081490
:107FB800C3F82415D2F80C14C3F82815D2F81014F5
:107FC800C3F82C15D2F81414C3F83015D2F81814C5
:107FD800C3F83415D2F81C14C3F84015D2F820148D
:107FE800C3F84415D2F82414C3F84815D2F8281455
:107FF800C3F84C15D2F82C14C3F85015D2F8301425
:10800800C3F85415D2F83414C3F86015D2F83814EC
:10801800C3F86415D2F83C14C3F86815D2F84014B4
:10802800C3F86C15D2F84424C3F87025FFF730FF65
:1080380028B1414B414A1B6803F04F031360FFF717
:1080480027FF48B14FF08043D3F80024D20744BF3C
:108058006FF00102C3F80024394B1B68062B08D1C6
:10806800384B1B68062B01BF374A136843F48063FB
:108078001360364AD2F8883043F47003C2F8883067
:10808800BFF34F8FBFF36F8F4FF01023D3F8002249
:10809800002A03DBD3F80432002B2FDA2C4B012201
:1080A800C3F80425D3F80024002AFBD04FF010228F
:1080B8001521C2F80012D3F80024002AFBD04FF093
:1080C80010231522C3F80422214B1A46D3F80014B2
:1080D8000029FBD00021C3F80415D2F80034002B86
:1080E800FBD0BFF34F8F19491A4BCA6802F4E062FC
:1080F8001343CB60BFF34F8F00BFFDE7164B174A02
:108108001A6008BD240300104035014074C00740C0
:108118000DF0ADBA440200103C050040F0ED00E05F
:10812800A005004010560040E00F00F0E40F00F0FA
:10813800E80F00F000C0004058020010E40E0040B4
:1081480030010010340100103C17004000ED00E041
:1081580000E001400400FA05742200200090D003DA
:1081680038B5084C04F108030546002818BF1C461A
:1081780023682BB11A6822605B6828469847F7E79E
:1081880038BD00BFB025002020B9054B01225A7028
:10819800FFF7E6BF012802D1014A9070F8E770475F
:1081A800A825002020B9034B01225A70FFF7D8BF39
:1081B800704700BFA825002038B50B4C237883B939
:1081C8000A486360A3602361E36000F093F8054602
:1081D80004F036FC08B900F09BF801232370284608
:1081E80038BD8525FBE700BFA82500209181020046
:1081F80037B5184CA378054603F0FF029BB110B1C0
:1082080043680120984700230DF107008DF80730D7
:10821800FEF7ACFBE3689DF807000133E360FEF767
:10822800C9FB03B030BD0DF107008DF80720FEF73C
:108238009DFB25B1226913463BB92A602561E36895
:10824800002BE7D100F078F8E4E79D42F7D01B68EF
:10825800F2E700BFA825002037B502A80023094C83
:1082680000F8013DFEF782FBE368013BE360E56847
:1082780015B900F087F8A5709DF80700FEF79AFB7E
:1082880003B030BDA8250020012813B509D003D3B9
:1082980003281BD002B010BD0F4B0122C3F8802069
:1082A800F8E702A800230D4C00F8013DFEF75EFB3D
:1082B80023780BB9FFF780FFE3689DF807000133C7
:1082C800E3600123A370FEF775FBE3E700F020F8F5
:1082D800FFF7C2FFDEE700BF00E100E0A8250020AD
:1082E80000F18040002382B0036003680193019B82
:1082F80002B07047054A137933B9012110609371B0
:10830800117153711846704785207047BC250020AD
:10831800084B1A68D20706D4C02283F8002301222A
:10832800C3F880211A604FF080430022C3F8182553
:10833800704700BF00E100E038B54FF48270FFF7E6
:10834800CFFF4FF080430222C3F804230A4AD068C3
:1083580040F08073D360094B1C6844F00101196038
:108368005D685968491BB1F50A5FFAD31C60044B74
:10837800D06001221A6038BDF0ED00E0001000E086
:1083880008000040044B01221A604FF08042D2F8E6
:108398001834DB03FBD470470C000040244B1B68E7
:1083A80010B573B14FF48070FFF79AFF4FF0804318
:1083B8000122C3F808231F4B587910B95A711B685A
:1083C80098471D4B1B6863B14FF48270FFF788FF15
:1083D8004FF080430222C3F80823164B01201B6884
:1083E8009847164B1B6863B14FF48870FFF778FF06
:1083F8004FF080431022C3F808230E4B02201B685D
:1084080098470F4B1B6893B10E4B00221A604FF42C
:108418008670FFF765FF4FF080430821C3F8081303
:10842800044B03209A71BDE810401B68184710BD23
:1084380000010040BC25002004010040100100405C
:108448000C010040340C004000F1804000F5C040B1
:10845800002382B0036003680193019B02B0704758
:10846800800000F1A040D0F8003723F44033C0F872
:108478000037D0F8003743EA0141C0F800177047C9
:108488002DE9FF470024594A594E5A4D01940121BC
:108498001368A2F5C040012B80B206D1D6F8043388
:1084A8000B4202D0FFF7D0FF0C430432AA424FEA36
:1084B8004101EDD1504B1B68012B0AD14FF4BE701E
:1084C800FFF7C2FF4FF0A04344F00044D3F8103543
:1084D800019314F0FF0F1AD0484F012600253442AB
:1084E80010D0AB0003F1804303F5C043D3F8100567
:1084F800D3F8101557F82530C0F30420C1F3014113
:1085080003B198470135082D4FEA4606E7D1002CFC
:1085180068DA00224FF0FF33CDE90223DFF8DC9060
:1085280001260024A0464FF0A04709EB080393F961
:108538005020531C45D0D2B222F0C005E90804A847
:10854800084402F0070310F804CC06FA03F31CEA07
:10855800030F36D009EB050C92099CF930C059F885
:108568002CA0BAF1000F0AD1032A2AD10DF1080E66
:108578001EF801C04CEA030C0EF801C001E0032A02
:10858800F4D005F5E07110F80C0C57F821101842DA
:10859800C1F3014105D0022913D1032A0BD1114699
:1085A80004E003290DD1032A05D102212846FFF74B
:1085B80057FF0134E4B2BAF1000F02D01146284641
:1085C800D04708F10108B8F1040FAED154B14FF00B
:1085D800A043019AD3F81035934203D00193029B2C
:1085E80003939EE704B0BDE8F08700BF0061004038
:1085F80000600040206100407C610040C4250020EC
:10860800014B1B68184700BF2026002000F180405E
:1086180000F5E040002382B0036003680193019BEA
:1086280002B07047F0B5514B514C1B6885B0DBB1B7
:108638004FF4827094F82E20FFF7E8FF12B194F8F7
:108648002F30A3B1636802932389ADF80C30E36837
:1086580000218DF80410002B44D12374236801A84D
:108668009847002384F82F3094F82E3003B3414BF9
:108678001B68EBB14FF48070FFF7C8FF94F82D200A
:10868800638B91B28B4238D95B1A21899BB2638381
:10869800CB1A616801EB4301374BC3F82C16C3F8BA
:1086A80030264FF48270FFF7B1FF344B01221A6075
:1086B800334B1B685BB14FF48870FFF7A7FF0023AB
:1086C80004A82374022300F80C3D236898472D4B17
:1086D8001B6813B34FF48A70FFF798FF00232374C5
:1086E80005B0F0BD208B608363602081E160002AC3
:1086F800B4D1214B01221A60B0E7D2D1E36801213D
:1087080084F82F103BB1002161831B49C1F82C3636
:10871800C1F83026C5E76383C3E766694FF00047B1
:108728000125002EDCD0B6FA86F227FA02F346328B
:10873800920026EA030602F1804303F5E0431B6832
:10874800002BEED01046FFF761FFA2F58C72D3081C
:1087580082F00402C2F380028DF808308DF80450CC
:108768008DF80920236801A89847DAE704710040CA
:10877800282600200071004000700040047000406E
:10878800107100401471004038B51D4B044693F831
:108798002C0098BB1B4A19602178C2F8F015617843
:1087A800C2F8F415E5781874012183F82C1083F8C1
:1087B8002D00586183F82F0083F82E506FF0004386
:1087C800C2F808334FF48270FFF720FF4FF480702F
:1087D800FFF71CFFA3780C485B01DBB280F8073376
:1087E8008023C0F8803103600223C2F804330DB13E
:1087F800C2F80413C2F80015002038BD0820FCE7B1
:10880800282600200070004000E100E02A4B1A7C76
:1088180070B502F0FF05002A4BD10A79012A9CBFE6
:10882800264CC4F8005500F10C0503EB45042479E7
:1088380024B993F82D40013483F82D4003EB450308
:10884800CC790D7A8E781C715D714B7836021B01DC
:1088580006F4E06603F0300333430E7806F00306AF
:108868003343CE78360306F480563343160406F4B1
:10887800E02633434E798979360506F480160906D1
:10888800334301F080710B430C4901EB00160001E2
:1088980000F1804000F5E040012AC6F81835C0F81C
:1088A8001455C0F8104502D80123C1F8003500203E
:1088B80000E0112070BD00BF282600200070004095
:1088C800264A274B70B505461220C2F808031C7CBF
:1088D800022C03D1C2F80403112070BD187C0128B2
:1088E8001DD1D86818B10223C2F80433F4E7DD605B
:1088F800198393F82E3063B91A4A1368002BFCD0F9
:108908004FF48070FFF782FE144BC3F82C56C3F85F
:108918003016124B0222C3F804230020DDE70220A0
:1089280093F82E40C2F80403012600201E745D60EF
:108938001981D8603CB1598393F82D30C2F82C5670
:10894800C2F83036C9E7C2F82C564FF48070C2F826
:108958003016FFF75BFE20461660BEE70070004049
:108968002826002000710040084A137CDBB2012B46
:1089780009D192F82E0018B1054A002013607047FB
:10898800044A136070470820704700BF282600205B
:108998000070004004700040F0B51B4F8BB207EB2D
:1089A800001443EA0243C4F81C35184B40005C69C4
:1089B80000F1010C4FF0004611F5006F26FA0CF695
:1089C8004FF0800505FA00F50BBFB44334435C61F2
:1089D8005C610CBFC7F80853C7F8045340244FF034
:1089E80000455969844025FA00F040F2FF75AA4213
:1089F800054A0BBF81430143596159610CBFC2F855
:108A08000843C2F80443F0BD007000402826002047
:108A1800124B1A7C10B5FAB900F10C0103EB4102B4
:108A2800127922B193F82D20013A83F82D2003EB17
:108A3800410300241C715C71030103F1804303F5B9
:108A4800E04340F2FF72C3F814450549C3F81045E6
:108A5800FFF7A2FF204610BD1120FCE728260020C2
:108A680000F8FFFF38B5134B6FF00042C3F8082336
:108A7800114A8021C2F88010104A01211160104962
:108A880042F21072086808B9013AFBD10D4D002472
:108A9800C3F800452C7405EB44031B7F13B1E0B207
:108AA800FFF7B6FF0134082CF5D1002385F82C30E8
:108AB80038BD00BF0070004000E100E008700040D1
:108AC80014710040282600200023435082B04358E8
:108AD8000193019B02B07047F0B546791F4B204FB8
:108AE80043F826207500AB19FB5CA3BB90F9043052
:108AF8008C78002BDAB2A8BF03F1604C4FEA53130D
:108B0800B8BF02F00F0E4FEA4414B4BFDFF854C0E8
:108B18000CF5614C4FEA8303E4B203F16043B4BF40
:108B28000CF80E408CF8004303F56143012402F071
:108B38001F0204FA02F2C3F880211A6003680A8847
:108B4800C3F8082535447B190A795A707C55CA78C8
:108B58009A700020F0BD0820FCE700BF5C260020CA
:108B68005826002014ED00E0036801221A604379BA
:108B7800024A03EB43030221D154704758260020D0
:108B88000368044901225A60437903EB4303CA543A
:108B9800704700BF582600202DE9F04106464FF4E3
:108BA800803400681C4D8C40C0F84843C0F8084326
:108BB80096F805E04FEA4E0C0CEB0E072F4422F016
:108BC8007F4297F8018001F5A87740F82720B8F18F
:108BD800000F11D0D0F80485F4446544A8EB0207CF
:108BE800424588BF07F1FF17AA7888BF07F57F4776
:108BF800974201DA0D200CE03BB15031890089B26F
:108C0800FFF762FF3368C3F8044333680020C3F8F2
:108C18004443BDE8F08100BF582600202DE9F0410B
:108C2800234EDFF89480234F00254FF48034D6F884
:108C3800043305F150018900234289B20ED005EBB7
:108C480008039B001B684BB1C6F848433046C6F87A
:108C58000843FFF739FF3B68E8B298470135042D10
:108C68004FEA4404E3D1124CD4F80433DA070BD5A5
:108C7800D4F8003143B120464FF48071FFF724FF48
:108C88000C4B28461B689847D4F804339B070DD52E
:108C9800D4F8043153B106484FF48271FFF714FF3A
:108CA800044B05201B68BDE8F0411847BDE8F0817A
:108CB800004002405C26002050900010032812D883
:108CC800012A0BD1012908D100F10E02D2B200EB22
:108CD80040000C4B1A540020704700220129F6D09E
:108CE80009D3022901D007207047064B00EB40004A
:108CF80018444270EFE7034B00EB400018448270C1
:108D0800E9E700BF6026002008B501220221002003
:108D1800FFF7D4FF08B1072810D10722022101204C
:108D2800FFF7CCFF08B1072808D100210A2208461E
:108D3800FFF7C4FF10B1072808BF002008BD0000D6
:108D48000388102B10B502D0112B1ED010BD1A4C61
:108D58002168B1B901220846FFF7B0FF08B107281A
:108D680024D1072202210120FFF7A8FF08B1072814
:108D78001CD1042202210020FFF7A0FF08B1072818
:108D880014D1236801332360E0E70B4A1368013BE1
:108D98001360002BDAD1FFF7B7FF0028D6D0074BB6
:108DA8001B68002BD2D0BDE810401847034B1B6846
:108DB800002BE6D09847E4E7702600206C260020B8
:108DC80008B5FFF7F9F90020FFF712FA1A4A00234D
:108DD80004210220137053709370D3701171537172
:108DE800D0711372154A137053709370D370537106
:108DF80013724FF0A043117140F203300321D17177
:108E0800C3F86407D3F80425D14301F0007102F0D8
:108E18000072C3F80815C3F80C25C3F86807D3F81F
:108E28000425D14301F0806102F08062C3F808157F
:108E3800C3F80C2508BD00BF872600209026002017
:108E480013B50E4B0E4C18689B880090ADF8043093
:108E5800694640F688030B4AADF800302046FFF714
:108E68003BFE094A0123128802212046FFF794FE9F
:108E78002046FFF779FE02B010BD00BF14E50200DE
:108E880078220020799002008022002008B5094944
:108E98000948FFF779FC09490120FFF7B7FC0849A1
:108EA8000220FFF7B3FC02210648BDE80840FFF79F
:108EB80007BD00BFC39002001AE502008726002004
:108EC800902600207426002000B507EE900A2DEDAC
:108ED800028BF8EE677A83B0CDE9000117EE900AAD
:108EE80003F07CFE25A3D3E9002303F081FF25A32B
:108EF800D3E9002303F0C6FE03F08CFEDDED017A12
:108F0800F8EE677A08EE900A17EE900A03F066FE0C
:108F18001AA3D3E9002303F06BFF1AA3D3E90023B4
:108F280003F0B0FE03F076FE08EE100ADDE9001249
:108F38000F4800F0E3FBF4EEC88ADFED0E7A0E4B23
:108F4800F1EE10FACCBFF4EEE78AB4EEE78AF1EE60
:108F580010FACCBF0122002232B101221A8003B0DC
:108F6800BDEC028B5DF804FB0322F7E7AFF300804A
:108F78001EE50200666626408022002000000000F0
:108F880000E06F40CDCCCCCCCCCC0C402DE9F341EB
:108F9800234B244C1F88DFF894E02378DFF8908077
:108FA80000254FF00F0CAF422ADC3B44DBB20E2BFE
:108FB800237031D91C4D1D4AA8686B6800900F2199
:108FC800284600F087FA2869EB68194A00900F21B3
:108FD800284600F07FFA237814480F25B3FBF5F2F2
:108FE800C2EB02129B1A00212A46237004F00DF9E5
:108FF8000F482A46002102B0BDE8F04104F005B947
:10900800EA1892FBFCF6C6EB0616921B01350EF821
:10901800020008F80210C6E702B0BDE8F08100BF00
:1090280080220020A8260020AA26002099260020B9
:109038007826002008B5FFF7C3FEBDE80840FFF713
:10904800FFBE000008B50348FFF79AFDBDE80840D9
:10905800FFF708BD782200204FF0A0434FF00072C0
:10906800C3F808254FF08062C3F808257047000050
:10907800022838B5054610D1FFF7EEFF074CFFF779
:1090880005FFFFF771FC064A01231288294620468E
:10909800FFF782FD236801229A6038BD78220020FC
:1090A800802200204FF0A0434FF00072C3F80C2537
:1090B8004FF08062C3F80C25704738B50378044632
:1090C800D3B9FFF7EFFF02214068FFF7F9FBFFF77D
:1090D800C9FC63681C789D78FB2C28BF0024FB2DF5
:1090E80028BF002529462046FFF7EEFE29462046E0
:1090F800BDE83840FFF74ABF38BD08B5FEF776FE31
:1091080000F011FAFEF788FEFCE776DF70477ADF99
:1091180070477CDF70478FDF7047A8DF7047AADF92
:109128007047AEDF704762DF70477047704703785B
:1091380023B93B214FF6FF70FFF7E7BF70470000E8
:109148000388212B37B504460D461CD005D8102BB3
:109158000CD0112B0FD003B030BD3B2B01D0562BB8
:10916800F9D11321A088FFF7D0FFF4E7FFF762FFDA
:10917800A3882B80EFE7FFF765FF074800F0BEFAEA
:109188004FF6FF73F5E702A9002321F8043D808814
:10919800FFF7C1FFDFE700BF3BE5020070470000B3
:1091A8000021014801F0C3BE18290020032101480D
:1091B80000F0C6BDC02600200378062B07B50DD0E9
:1091C8000C2B0ED0042B06D102A9002301F8043D74
:1091D800408802F0D5FC03B05DF804FBFEF77AFA8C
:1091E800F9E70020FFF7E2FFF5E7000030B50F4D83
:1091F80085B004AC1123284604F80C3D04F05AF855
:10920800294682B22046FFF784FF082200210DEB91
:10921800020003F0FAFF064A4FF0C87302A8CDE92E
:109228000223FFF774FF05B030BD00BF48E5020018
:109238009001200300B589B000211C2201A803F089
:10924800E4FF002340F26662CDE90132ADF8123046
:109258008DF8143040F6CD42064B03920693322225
:10926800054B8DF8102001A8079300F0AFFF09B057
:109278005DF804FB37910200A591020013B502AC1A
:1092880003F062FB002344F8043D0120214603F06B
:1092980021FC204603F078FC02B010BD30B5ADB01B
:1092A800AC22002101A803F0B0FF02238DF804309E
:1092B80006238DF807300D4D0D4B15934FF41662AC
:1092C80000230124CDE9232301A90A4B2A93284628
:1092D8008DF80640ADF850408DF8804000F0B1FCA4
:1092E8002146284600F0AAFC2DB030BDC02600203B
:1092F800822200203591020007B502F0F1FB00211F
:109308000522684603F081FF9DF8003043F0010311
:10931800032203F0F10362F306136FF3C7138DF80A
:10932800003007238DF8013010238DF802309DF8A6
:10933800033013438DF803309DF804306846134317
:109348008DF8043002F012FC024802F0F7FB03B07B
:109358005DF804FBC19102002DE9F047164694B070
:109368002F4A04AC984607468C4602F1100E234655
:1093780010685168254603C5083272452C46F7D156
:1093880014AC0DF10E01184624F844CDFFF7CBFEBE
:109398001C2200210DA803F038FF9DF8343001ADE0
:1093A80043F00A030322002128468DF8343003F0E5
:1093B8002CFF9DF834209DF8063012954FF0010AD5
:1093C80002AD42F010026AF3420341F211198DF81E
:1093D80034200021032228468DF80630ADF8049089
:1093E80003F013FF9DF80A30ADF808906AF34203C2
:1093F8001422002108A88DF80A3003F006FF1C9BF0
:109408007888ADF82C6008AA0DA9CDE90845ADF813
:109418002860CDF83080FFF782FE14B0BDE8F087F1
:109428002BE50200F0B5204B91B00CAA044603F1DD
:109438001007164618685968154603C50833BB4215
:109448002A46F7D110AB00250DF10E01304623F85E
:10945800345DFFF768FE22464FF6FF7122F8021BC3
:1094680001201946FFF759FE29460F2204A803F0E8
:10947800CCFE231D0093204604AB0F2241F21111AC
:10948800FFF76AFF29460F2208A803F0BEFE04F181
:109498000C0300930F2208AB42F222212046FFF76B
:1094A8005BFF11B0F0BD00BF2BE5020007B502A9B4
:1094B800054B41F8043D054801F000FE0448FFF75C
:1094C800B1FF03B05DF804FB339102002C290020A2
:1094D800AA26002082B030B587B0154602880B93C3
:1094E8004FF6FF739A420446ADF8061016D00021D5
:1094F800102202A803F089FEBDF82C30ADF8083020
:1095080001238DF80A300023ADF80C3002A90DF1C3
:1095180006032088CDE90435FFF703FE07B0BDE850
:10952800304002B0704708B5FDF78AF9FFF7A6FE8C
:10953800FFF75CFEFFF734FEFFF7B8FFFFF7AEFE5C
:10954800FFF778FEFFF7D8FEBDE80840FFF72EBE0C
:109558000369C1688B429DBF8268D21802F1FF324D
:1095680003F1FF3394BF501A581A70472DE9F041A0
:10957800D0E902670446F61B4068964288461546BD
:10958800384405D903F018FE3D44E560BDE8F08194
:109598003246AD1B03F010FE2A4608EB0601606850
:1095A80003F00AFEF1E72DE9F843C5680646894647
:1095B80017464FF000083469B3687068A54228BFA1
:1095C800E418013C621B5C1BBC4228BF3C46944229
:1095D80028BF144649462844224603F0EDFDB368E7
:1095E8002544AB4208BF00253F1BA044A144F560B9
:1095F800E1D14046BDE8F88310B5114C1149A1618D
:109608000223C4E90433A1640F4B1049E361E16408
:109618004FF40073102101222362216500230C49B5
:10962800A362E01D6362A3656365E262E26503F01D
:109638001FFE0849204603F01BFE2023A37110BD1E
:10964800382900205AE50200C0290020B02900204E
:1096580063E5020067E50200F8B5184C182300FB23
:10966800033503FB00402544C46A012C0F46164607
:1096780011D003D3022C1BD000240AE02846FFF7A0
:1096880067FF864205D8324639462846FFF76EFFFF
:1096980034462046F8BD2846FFF75AFF864234462E
:1096A80028BF0446224639462846FFF75FFFF0E701
:1096B8002846BDE8F840FFF776BF00BF38290020EC
:1096C80073B50D4B1B7804460D4616460BB9FFF7CC
:1096D80093FF02A8002300F8013DFDF747F9324641
:1096E80029462046FFF7B8FF04469DF80700FDF716
:1096F80061F9204602B070BD382900200FB410B5BA
:10970800A2B024AB802153F8042B019302A803F0E4
:1097180045FD802804460ADD802202A90020FFF7C3
:10972800CFFF204622B0BDE8104004B070470028A3
:10973800F7DD0246F1E76DDF704779DF70477DDFBF
:10974800704764DF70472DE9F74F0C9CBDF834B0C3
:109758002788002580468A4691462E46B8F800207C
:10976800B2420BDC35B12288013AD21B92B2FF2AF1
:1097780039D8DA55002003B0BDE8F08FD8F80420B6
:1097880052F82600019000220DF1030101A8FFF70D
:10979800D8FF0028EFD19DF803204A4521D122881F
:1097A800002D14BF0020022002EB09010144594595
:1097B80019DC3DB9013292B2228003F802A0228856
:1097C8000132228022880DF103011A4401A8FFF713
:1097D800B8FF0028CFD121889DF803200A442280B1
:1097E80001250136BAE70C20C5E72DE9F341089CAD
:1097F800BDF824501746CDE9004502220646FFF77A
:10980800A2FF48B9102239463046CDE9084502B0D2
:10981800BDE8F041FFF797BF02B0BDE8F0812DE940
:10982800F04F00231688138090F82D3085B0074636
:109838000D46144653B3082E01D80C2026E102A881
:10984800FFF779FF002840F0218113880822CA54C5
:10985800238801339BB21B222380CA5420880130FD
:1098680080B2208006220DF10901284403F0A4FCEF
:1098780023889DF8082006339BB212F0FE0218BF19
:1098880001222380EA54238801332380BB78FBB16B
:1098980023880433B342D0D802A8FFF74EFF00282C
:1098A80040F0F48023880322EA54238801339BB2D2
:1098B80019222380EA542388BDF8082001339BB27B
:1098C800E9182380EA54120A4A7023880233238055
:1098D800FA789AB12388D91CB142AED80221E9544A
:1098E800238801339BB201212380E95423880B4448
:1098F8009BB22380EA5423880B4423807A68AAB158
:109908002388D91CB14298D8022192F90020E95441
:10991800238801339BB20A212380E9542388013329
:109928009BB22380EA542388013323803B89002B90
:1099380040F0A0803B8A5BB1CDE900462B46072268
:10994800032107F11000FFF750FF002840F09E8028
:109958003B8B5BB1CDE900462B461522142107F15C
:109968001800FFF742FF002840F090803A6A002A6A
:1099780040F08F80D7F82480B8F1000F30D0B8F8C5
:1099880004302188981C8A1C0244B2423FF655AF25
:10999800FE283FF652AF03336B54238801339BB242
:1099A800FF222380EA54238801339BB22380B8F82E
:1099B8000020EA54E918120A4A702088023080B25E
:1099C8002080B8F804205AB1D8F8081000296AD0C5
:1099D800284403F0F1FB2388B8F8042013442380BB
:1099E80097F82C30002B40F09980387800284DD01B
:1099F8003B88012B57D021888A1CB2423FF61DAF05
:109A0800012805D17B7802330B449E42FFF415AF41
:109A1800023E761A04A9B6B221F8086DA818FFF715
:109A28008EFE98BB3978BDF80820022900F0BB806B
:109A38007B78934202D3B24240F2B380012940F0CE
:109A4800B4809BB29E42C0F0B080ADF808300821C7
:109A5800BDF80830FE2B3FF6F0AE22880133AB5438
:109A68002288013292B22280A9542288134423808A
:109A780000200BE0CDE900462B460622022107F123
:109A88000800FFF7B2FE00283FF454AF05B0BDE868
:109A9800F08FB4F800C00CF10603B3423FF6CDAE28
:109AA8001188052901D80720F0E76FF4486E01EB0B
:109AB8000E039BB24FF27D3E7345F4D95388052BB4
:109AC800F1D96FF44860181880B27045EBD94FF699
:109AD800FF70814203D0834201D09942E3D8052325
:109AE80005F80C30238801339BB212212380E954F6
:109AF800238801339BB223801188E954E818090AA6
:109B08004170238802339BB223805288EA54E918B3
:109B1800120A4A702388023323802BE7BB6A002B82
:109B2800C1D04FF000094FF00C0A4FF0160B97F810
:109B38002C305FFA89F293427FF657AFB96A0AFB75
:109B480002F201EB0208B8F80430981CFE283FF630
:109B580074AE208803332B54238801339BB22380AF
:109B680005F803B0238801339BB223808A5AEA544C
:109B7800E918120A4A702088023080B22080B8F8AA
:109B880004205AB1D8F8081000298CD0284403F0D2
:109B980013FB2388B8F804201344238009F1010932
:109BA800C5E7092154E7B242FBD9ADF808604EE792
:109BB80070B5C0B14AB116880024B44203D3051960
:109BC8006D789D4208D0A14201D800200BE0055DC8
:109BD80001352C44A4B2F0E7A142F6D9A31C1380A6
:109BE800005D013880B270BD37B502AC002324F89F
:109BF800023D134622460546FFF7DAFF10B1BDF8CD
:109C08000600284403B030BD72DF704773DF704729
:109C180038B5012204460D46B0F83812D0F834029F
:109C2800FFF7E2FF00B1057004F13C0204F50D7185
:109C380004F15400BDE83840FFF7E6BF80F8301063
:109C48007047F8B504460F46002975D0002873D030
:109C580091F87A301BB191F89830002B6ED1D7F873
:109C6800A030042B6AD0D7F89C30042B66D007F1BB
:109C780078060FCE4FF0000C251D84F802C00FC5E2
:109C88000FCE0FC596E8070085E8070084F830C0B6
:109C9800D7F8A4306363D7F8A830A3634FF6FF75ED
:109CA80004F50D73C4F84432A4F8485207226146FB
:109CB80004F24A2003F0A9FA23780BB984F8545027
:109CC80094F8243004F15501C4F8341283B3EE2318
:109CD800A4F8383204F50E723846FFF7A0FD30BB01
:109CE80094F8243004F2431107F13C00C4F83C1204
:109CF80003B3EE23A4F8403204F51072FFF78FFD8A
:109D0800A8B9A269A4F8482001236269206484F8EC
:109D180050006264014684F8513084F83C3004F104
:109D28003C0204F15400FFF76FFF00B92370F8BD3F
:109D38001F23CDE71F23DDE70E20F8E70720F6E70E
:109D4800F8B5077804460D46002F00F0058100F2AB
:109D58004A26A17007220021304603F056FAE3880C
:109D680013B1A378012B04D0E3794BB1A378022B6C
:109D780006D1636BA3B1012284F8512208209847C9
:109D8800334604F5147113F8012F12B99942FAD128
:109D980017466B1E032B53D8DFE803F0050B0F1291
:109DA80084F85132ECE7A3791BB194F8243003B955
:109DB8005FB9E3790BB1002F44D1237A002B43D14B
:109DC800637A002B0CBF00250425636BA570002B5C
:109DD8003CD0033D012D39D86279002A36D094F859
:109DE8005222002A32D184F85422012284F85322C4
:109DF8000720984704F13C0518220021284603F063
:109E080004FAE36A94F824200121581E884288BF86
:109E18000B4684F83C1084F8513032B1884296BF22
:109E2800A36A84F8521084F85230A178002384F889
:109E3800503004291BD8DFE801F0770D223559008E
:109E48000025C2E70225C0E70325BEE7002384F802
:109E58005332CFE7C4F84432C4E910630223012225
:109E680084F83C30802384F83120A4F84830A37863
:109E7800002B5CD1636B002B6AD1002067E00223C2
:109E880084F8313062B1072384F83C302369A4F8A0
:109E980048300023C4F84432E36826646364E6E784
:109EA8000323F1E763696364A369A4F8483012B136
:109EB800062384F83C306379B3B194F852329BB9E5
:109EC80094F8543283B1022384F850300421204698
:109ED800FFF79EFE0028CAD1052384F8313004F527
:109EE8000D73C4F84432C2E70323F6E7E3696364F9
:109EF800236AA4F8483012B1062384F83C30637909
:109F080083B194F852326BB994F8543253B10223A6
:109F180084F8503004212046FFF77AFE0028A6D1A5
:109F28000623DAE70423D8E784F831309FE72A4686
:109F3800D4F8441204F15400FFF766FE38B994F8D7
:109F4800301094F85400FFF761FE002892D0F8BD55
:109F580094F83100984790E70820F8E70388112B18
:109F680010B50C460AD0262B1FD0102B05D1C37B69
:109F7800012B02D18388A1F8483210BD00228388C2
:109F880081F85222B1F848229A42F6D10B79002B77
:109F9800F3D101212046FFF7D3FE0028EDD0A36BB3
:109FA800002BEAD0BDE810401847037A013B012B8B
:109FB800E3D889780523013191FBF3F303EB83039D
:109FC800C91AC9B2E6E7704775DF704776DF704790
:109FD8007ADF70477BDF7047034B1A8882420CBFD9
:109FE80018460020704700BFDC2B0020024B9B69FD
:109FF80003B11847704700BFC02B002037B585B2A2
:10A008002846FFF7E9FF034670B1164C017A227B18
:10A0180091420BD200F10A012846FFF7D5FFE8B1BB
:10A02800112801D0FFF7E2FF03B030BD237C0022E6
:10A03800027243B13B212846FFF7C8FF30F00803FE
:10A0480001D0FFF7D3FF6369002BEDD000228DF814
:10A058000420ADF8065001A89847E5E71A7A0132BE
:10A068001A72E1E7C02B002013B50B46497A0F4C52
:10A07800024669B9D4E901101C7A002C18BF0146C0
:10A088005868FCF71FFC08B1FFF7B0FF02B010BD1D
:10A09800002119726369002BF8D00121ADF8060080
:10A0A8008DF8041001A89847F0E700BFC02B0020E6
:10A0B8008388B3F5FA7F28BF6FF4F97230B528BFEB
:10A0C8009C1805884A8838BF002495420CD84088D7
:10A0D800904209D38A88A24206D303F2F310904231
:10A0E80034BF0020012030BD0020FCE70388112B7D
:10A0F80070B5014648D002D8102B1ED070BD122B67
:10A1080052D0502BFAD12F4BC288DB899A42F5D115
:10A11800038A022BF2D186883046FFF75DFF054699
:10A128000028EBD001F1120000F0A8F930BB6868F4
:10A13800FCF70CFC0028E1D009E0C37B012BDDD142
:10A148004FF6FF70FFF748FF054620B90420BDE829
:10A158007040FFF74BBF1C4A8E88068000230372AD
:10A168001368C5F80A300A30536843601031FFF7A6
:10A178009FFF144B6872DB89002BBFD129463046FC
:10A18800BDE87040FFF770BF8088FFF725FF0446E1
:10A198000028B3D04068FCF7D9FB08B1FFF726FFC9
:10A1A8004FF6FF732380A9E786883046FFF714FF30
:10A1B80005460028A2D008310A30FFF779FF6872F7
:10A1C800DCE700BFC02B0020F02B0020F8B50646C6
:10A1D80050B305460FCD154F3C460FC495E8070010
:10A1E80084E807003068124B3B60B8B1FFF7F0FE17
:10A1F800C8B931680A681A604A685A600D480E4A38
:10A208004FF6FF7303800D4B40F8043F0021FCF725
:10A2180047FB002814BF0320002004E01846FFF77E
:10A22800D9FE0028EAD0F8BD0E20FCE7C02B00209C
:10A23800F02B0020DC2B002005A00200F82B0020CA
:10A24800F7B5174601900E4691B1019C6CB10025F7
:10A258002C46294601A8FDF75AFB18B13946A8B281
:10A26800B04701340135142DF3D1204603B0F0BDB9
:10A278000C46FAE773B50191019C06466CB10025BE
:10A288002C46294601A8FDF742FB18B106EB44030A
:10A2980001349D800135142DF3D13046346002B06D
:10A2A80070BD00002DE9F04303888488112B8DB020
:10A2B800064640D01A2B43D0102B16D1294DAB6837
:10A2C8000CA8DB4340F8303D55F8041FFDF775FB3B
:10A2D800009901A8FFF7CEFF0027019B9F4207D3F3
:10A2E800132C18D90420FCF777F80DB0BDE8F083DB
:10A2F80001AB03EB47034FF00008B3F8049005EBFC
:10A308000800494608F10408FDF7F7FAB8F1740F98
:10A31800F5D10137E1E721461348FDF7D7FA214681
:10A328001248FDF7D3FAF37B012BDED01048214603
:10A33800FDF7CCFAD9E70C482146FDF7DEFAD4E759
:10A34800057A0C482D09012D214606D9FDF7BEFADC
:10A35800022D21460848F0D0EAE7FDF7CEFA21465B
:10A368000548EAE7182C0020202C00201C2C00208F
:10A37800242C0020282C00202C2C002013280146F7
:10A3880002D80248FDF7C3BA002070471C2C0020F1
:10A3980010B50446FFF7F2FF38B121460348FDF730
:10A3A800B6FA002814BF0220012010BD242C00207A
:10A3B80010B50446FFF7E2FF28B121460248BDE880
:10A3C8001040FDF7A4BA10BD282C002008B51821AC
:10A3D8000248FDF7A5FAC0B208BD00BF182C00203E
:10A3E80070B50A4D064628460C46FDF790FA58B156
:10A3F8003046FFF7C3FF38B1A01D314605EB80009A
:10A40800BDE87040FDF783BA002070BD182C00200D
:10A41800F8B50D4C054620460E461746FDF777FA67
:10A4280080B12846FFF7AAFF60B1B01D04EB800099
:10A4380029461FB1BDE8F840FDF748BABDE8F84025
:10A44800FDF75BBAF8BD00BF182C0020F8B50A4C20
:10A4580005460E46014620461746FDF758FA48B10C
:10A46800043504EB85043A46A0683146BDE8F84057
:10A47800FFF7E6BEF8BD00BF182C0020007800F0FA
:10A4880001007047A0DF704710B50446408800F00F
:10A49800D1FBA0802046BDE8104001F01DBB30B5BF
:10A4A80087B005460C4618220021684602F0ADFE2A
:10A4B800072368468DF80030ADF802500294FFF784
:10A4C800E3FF07B030BD000030B587B0054618225D
:10A4D8000021684602F099FE4FF6FF739D42ADF8E1
:10A4E80002501AD0284600F0BAFA0B2804461DD0AC
:10A4F80005D8A0B121462846FFF7D1FF05E011286D
:10A5080005D043F202039842F4D1002200E0012270
:10A51800074B28461978FFF77BFF07B030BD0E239D
:10A5280068468DF80030FFF7AFFFEEE70F23F7E737
:10A53800952C0020FFF7C8BF024B0349187800226A
:10A54800FFF784BF972C002089A5020013B50422C9
:10A5580004460021684602F058FE42F6A623ADF8EC
:10A56800003001238DF80230044B1868019001AACD
:10A5780069462046FFF786FF02B010BD6EE502006F
:10A5880070B5234E86B031780446FFF729FF05469B
:10A59800C0BB204600F0B2FA0828014622D006D8EF
:10A5A80088B106281ED02046FFF779FF09E043F25C
:10A5B8000203984205D043F20143984224D011285F
:10A5C800F1D1012214E029461822684602F01DFE46
:10A5D800102368468DF80030ADF802400125FFF7DA
:10A5E80053FFEEE7204600F025FB00F0A1FA002219
:10A5F800084B20461978FFF70BFF2A46317820468A
:10A60800FFF706FF06B070BD2046FFF75DFFD8E7ED
:10A61800982C0020972C002013B5044600F00AFB64
:10A6280000236A46092100F0BDFE052805D1044B28
:10A63800012219782046FFF7EBFE02B010BD00BFDB
:10A64800942C002008B5084B084918780022FFF719
:10A65800FDFE024630B9064B06491878BDE80840A9
:10A66800FFF7F4BE08BD00BF962C002081A60200AB
:10A67800942C002055A5020030B5012187B005466D
:10A688001C48FDF77AF90446BFF35F8F00BB2846E4
:10A6980000F0A0F9112801461CD005D860B1284661
:10A6A800FFF7FDFE002405E0862815D043F20203DB
:10A6B8009842F4D1224601E0012402460E4B284676
:10A6C8001978FFF7A5FE1CB9BFF35F8F094B1C6013
:10A6D80007B030BD0122F1E718222146684602F092
:10A6E80094FD062368468DF80030ADF80250FFF758
:10A6F800CBFEDFE7902C0020962C002038B503789D
:10A708000446A3B94088FFF7DFFE6588284600F0B5
:10A71800E3F928B1064B012219782846FFF778FE9D
:10A728006088FFF779FFBDE83840FFF78BBF38BD79
:10A73800972C00200378082B37B5044630D1427A8D
:10A7480072BB057A072D1BD0082D2DD0012D27D1DE
:10A758006A462946808801F04DF808BB019B1B78A2
:10A76800F3B1A08800F094FA4FF6FF73984217D01F
:10A77800114B2A461978FFF74BFEFFF7DDFE0FE075
:10A78800808800F085FA4FF6FF739842044607D098
:10A798000A4B01221978FFF73BFE2046FFF73CFFE2
:10A7A800FFF750FF03B030BD054B19680129F7D1F9
:10A7B800BFF35F8F1A60F3E7972C0020962C0020D8
:10A7C800902C0020F8B5FFF701FE144F144E387096
:10A7D800FFF7FCFD3070FFF7F9FD124D124C2870A1
:10A7E800FFF7F4FD2070FFF7F1FD104B18703B7870
:10A7F800182B10D03378182B0DD02B78182B0AD0A3
:10A808002378182B07D0182805D0094B002018608A
:10A81800BFF35F8FF8BD0320FCE700BF962C002034
:10A82800952C0020972C0020982C0020942C002098
:10A83800902C002013B501230024ADF80030092323
:10A84800ADF80240084A8DF80230084BA14214BF07
:10A8580019461146019100F0EDF92246694600F0CB
:10A868000DFE02B010BD00BF74E5020078E50200DD
:10A8780030B503888488502B87B0054635D00BD86F
:10A88800352B45D02D4B2E4918780022FFF7DEFDD9
:10A89800FFF752FE07B030BD522B22D0542BF1D116
:10A8A80018220021684602F0B0FC112320468DF8DA
:10A8B8000030ADF8024000F0BDF9ADF8040000F03A
:10A8C80037F9204B204619780022FFF7A1FD1E4BCF
:10A8D800204600221978FFF79BFD6846FFF7D4FD54
:10A8E800D0E72046FFF7F0FDCCE7037B012BC9D169
:10A8F800827A012AC6D1018942F602139942C1D14E
:10A90800124B20461978FFF783FDFFF79BFEB9E746
:10A918000F4B002219782046FFF77AFDE98851B9D4
:10A92800AB89012B03D1A97B003118BF0121204637
:10A93800FFF780FFA6E70021F9E700BF952C00206C
:10A948003DA50200982C0020972C0020962C002072
:10A95800942C0020AFDF7047B1DF7047B2DF70473B
:10A96800B3DF704773B50F4B0F4C93E803006D4688
:10A9780085E8030000222946208800F07FFD4FF675
:10A98800FF762388B34201D0112801D102B070BDEF
:10A99800184600F0C3FD00222946208000F06EFD15
:10A9A800EFE700BF7CE502009A2C0020044B1A88D0
:10A9B8004FF6FF739A4201D0FFF7D4BF704700BF2C
:10A9C8009A2C0020024B4FF6FF721A800020704725
:10A9D8009A2C00202DE9F743804600F02BF94FF61A
:10A9E800FF739842064637D001224FF003096B46A1
:10A9F80008213046571C00F001FFBFB2054630BBA6
:10AA080001990A46032342F8049B06314046FFF7A2
:10AA1800A5FF044648B932460821304600F079FFC0
:10AA28000446204603B0BDE8F0830C280DD0052865
:10AA380000D12C460821304600F040FF002818BFFE
:10AA480003243A46002DD2D1EBE70125F2E7072887
:10AA580014BF04460C24E4E743F20204E1E72DE9BD
:10AA6800F341804600F0E6F84FF6FF73984217D19D
:10AA780000240325264601272B4622463146404618
:10AA8800FFF76AFF042820D0082823D00B281DD1FF
:10AA980015F002030FD18EB9A4B902B0BDE8F08158
:10AAA8006A46082100F0A6FE0028E1D1019B9E1D00
:10AAB8009C881D68DFE701250027DDE703251C4684
:10AAC8001E46F9E703253446F6E71120002F08BF94
:10AAD8000B20E2E70020F9E71FB50DF10703039308
:10AAE80000F0A8F802AA012100F084FE20B9039B17
:10AAF800187805B05DF804FB0020FAE738B504467D
:10AB08000A48FFF72DFF70B9084B43F203054FF6CB
:10AB1800FF7219882046FFF71DFFA84204D11A8842
:10AB280001321A80F3E7032038BD00BF9C2C0020B7
:10AB380013B5074A044692E803006B4683E803000E
:10AB480000221946204600F099FC02B010BD00BF53
:10AB580084E5020046DF7047421E00F10F0312F839
:10AB6800010F10B99A42FAD170470120704708B511
:10AB780070B171B103780A78534013F0FE0F08D111
:10AB880006220131013002F0C3FAB0FA80F0400920
:10AB980008BD0020FCE72DE9F04700F101084F1C33
:10ABA80006460D4600F1110901F1110A1022394635
:10ABB800404602F0ADFA0446E0B94046FFF7CCFF44
:10ABC80018B13846FFF7C8FF044651464846FFF714
:10ABD800CEFF737C03F0FC03042B04D06B7C03F0E2
:10ABE800FC03042B02D1201C18BF012000F0010037
:10ABF800BDE8F0870024E8E730B585B004460D4687
:10AC080000F006FC02AA0DF10601072000F008FC7E
:10AC180010B94FF6FF700BE0BDF80630AB42F1D02B
:10AC280003992046FFF7B7FF0028EBD0BDF80600D0
:10AC380005B030BD132810B5044602D94FF6FF7091
:10AC480010BDFFF79BFB0028F8D00A206043014B9A
:10AC5800185AF5E79E2C0020132838B504460D46EF
:10AC680002D943F2020038BDFFF788FB0028F8D06C
:10AC780006480A2303FB040050F8023F2B60838830
:10AC8800AB808379AB710020EDE700BF9E2C0020DC
:10AC98004FF6FF7398422DE9F04106460CD00C4F51
:10ACA80000244FF00A0808FB04F3A5B2DB5BB342AB
:10ACB80005D00134142CF6D14FF6FF7504E0284670
:10ACC800FFF75CFB0028F4D02846BDE8F08100BF00
:10ACD8009E2C0020038843B9821C00F10A0312F855
:10ACE800010B10B99A42FAD170470120704710B58C
:10ACF8000446FFF7EFFF58B122880B889A4208D123
:10AD080008220231A01C02F003FAB0FA80F04009D0
:10AD180010BD0020FCE71FB5044600F079FB02AA2D
:10AD28000DF10601072000F07BFB10B94FF6FF700C
:10AD380007E0039920464631FFF7D9FF18B1BDF85F
:10AD4800060004B010BD039920462A31FFF7CFFF53
:10AD58000028E4D0F3E7000013289FBF0A235843D4
:10AD6800014B1952704700BF9E2C002038B505468C
:10AD7800FFF78EFF0446284600F0AAFD38B9132CC9
:10AD880005D80A236343024A4FF6FF71D15238BDF2
:10AD98009E2C002030B58DB014460D4600F11003EE
:10ADA8000DF1FF3213F8011D02F8011F9842F9D185
:10ADB8000D22002104A802F028FA2B788DF81F3004
:10ADC8006B788DF81E306846AB788DF81D30FFF72C
:10ADD800C1FE9DF82F3023709DF82E3063709DF8CA
:10ADE8002D30A3700DB030BD30B5037803F0FE03ED
:10ADF800042B85B004460D4618D1411C032201A836
:10AE080002F0DAF90322211D03A802F0D5F902AAFB
:10AE180003A92846FFF7BEFF032202A901A802F0F2
:10AE280077F9B0FA80F0400905B030BD0020FBE7A3
:10AE380030B50388102B93B052D1041D0FCC07AD49
:10AE48000FC50FCC0FC594E8070012AC85E80700C2
:10AE580014F8283D03F0FE03062B4BD000F0D8FA77
:10AE68009DF820305B08012B3CD9022B42D101AA66
:10AE78000DF10201072000F0D3FA00283AD0029918
:10AE880020460131FFF7B0FF0028F0D005E0029915
:10AE980020461131FFF76BFE20B3BDF80230BDF834
:10AEA8001C1016480A224A4385188352AA1C08987F
:10AEB800C5F80200A588A079958090714FF6FF72B9
:10AEC80093420DD012ACADF80830002304F8443D8D
:10AED8002046ADF8061000F001FE2046FFF70EFCF4
:10AEE80013B030BD01AA0DF10201072000F098FA55
:10AEF8000028CCD14FF6FF73D1E700BF9E2C00206D
:10AF080090DF7047A5DF7047B5DF70471FB5002396
:10AF1800ADF80810ADF80A106A4602A90393009329
:10AF2800ADF80430FFF7ECFF05B05DF804FB80B125
:10AF38004FF0171303601B2303711723C38003818A
:10AF480041F61B32002301618372C3728281184665
:10AF580070470E20704713B5034680880C4690B999
:10AF68001A88232A00F08E800FD8102A23D0112A9D
:10AF780044D0A37A3BB1E1880020FFF7C3FF10B9A2
:10AF88000123A072E37202B010BD3A2A3FD0552ABD
:10AF980059D0242AEDD11A7A0B694A73002BE8D0CC
:10AFA8004DF67A21ADF80400ADF80010ADF80200B6
:10AFB8008DF8042062E0DB7B0A790A73012B13D039
:10AFC800022B14D0E18823898B4205D20020FFF799
:10AFD80099FF70B90123E372217B637B8B42C8D24E
:10AFE8000020FFF793FFC4E70B88E380EAE74B886C
:10AFF800FBE7112804BF0123A372EDE71723CB80D9
:10B008000B8141F61B338872C8728B81B1E75B896B
:10B01800CA88934228BF1346172B0A6938BF1723DB
:10B028000B8162B1C97A51B140F67721ADF80010B1
:10B03800ADF80200ADF80430694620469047002379
:10B04800E372A37295E7DB88C988A072172B38BF13
:10B0580017238B4228BF0B462381FFF755FFE27A5F
:10B06800002A86D12369002B83D040F67721ADF8DA
:10B0780002202289ADF80010ADF804206946204668
:10B08800984776E7197A237B994228BF1946A8E79B
:10B09800B0DF704766DF7047034610B5002140886F
:10B0A800FFF7F8FF024608B91A7210BD112801D13E
:10B0B8000122F9E75B68BDE81040184760B159B153
:10B0C8000378DE2B0AD00B684360DE2303704FF64B
:10B0D800FF734380002070470E2070470820704798
:10B0E800F0B5054685B00C46F1B1E8B10B78DE2B1A
:10B0F8001AD182884B889A4204D10B7A13B1084638
:10B10800FFF7CAFF2B88112B32D0512B0ED0012B01
:10B118000AD12B7A012B07D1A9886288914203D1E1
:10B1280023722046FFF7B8FF05B0F0BDAE886388EC
:10B13800B342F9D1AF79022FF6D1AD7B2B1F022B89
:10B14800F2D800211022684602F05FF8052D14BFDE
:10B158004FF4C0730023694630468DF80070ADF88F
:10B168000430FFF795FF0028DED063689847DBE7D7
:10B178006388AA889A4204BF4FF6FF736380D3E7B7
:10B18800012804D0043805288CBF0020012070470E
:10B198004FF6FF73438000F07FBA73B504460D463F
:10B1A800164600210822684602F02FF8A5F58041CE
:10B1B800A4F580406B46324689B280B2FCF7AEFAFD
:10B1C800002814BF0520002002B070BDF0B5214D45
:10B1D8008DB00021082201A8297002F016F84FF658
:10B1E800FF7000F049FC4FF6FF770446BC4211D0CF
:10B1F800A4F58046B6B201AA03A93046FCF7A8FA1E
:10B208000A2809D03046FCF73FFA082806460BD131
:10B2180001232B700DB0F0BD204600F0D1FB204675
:10B2280000F02AFC0446E1E7002EF3D018220021A2
:10B238000DEB020001F0E9FF07238DF8183006A88E
:10B248000123ADF81C4008968DF82430FFF7A0FFC5
:10B25800E0E700BF702D002070B5044686B01822C4
:10B268000021684601F0D1FFA0892378334D00F50D
:10B27800804080B25A1EADF80400042A25D8DFE8C1
:10B2880002F0030303324B0043F6FE76B042E18935
:10B2980004D901F5804292B2B24216D8DA1E53425E
:10B2A80053418DF80930A368039363688DF808103B
:10B2B8008BB908238DF800309DF8103043F0010356
:10B2C8008DF810306846FFF763FF2B780BB1FFF756
:10B2D8007DFF06B070BD0922049301238DF800207C
:10B2E8008DF81430EEE743F6FE739842EDD8E38903
:10B2F800002BEAD163683BB90A238DF8003000F0CF
:10B308005FFB01232B70DDE70B22029301238DF8ED
:10B3180000208DF80C30F4E763683BB913238DF8EF
:10B3280000304FF6FF73ADF80430CBE714220293D8
:10B3380001238DF800208DF80C30F2E7702D0020E5
:10B3480030B5174889B0FCF721F820BBFCF734F872
:10B35800044610BB00F014FB0822214603A801F0A4
:10B3680054FF03AA05A94CF20700FCF7E5F910B150
:10B37800204609B030BD01A905A8FCF733F9019BA7
:10B388009D8805F58045ADB205A8FCF74FF928461C
:10B3980000F0FEFAE5E70324EAE78624E8E700BFC1
:10B3A80061B20200F0B5FF2887B004460D46174683
:10B3B8001E462BD80846FFF7E3FE38B303AA2046FB
:10B3C800FFF7EBFE18B10524204607B0F0BD01A930
:10B3D80003A8FCF707F904460028F4D1019BBD70C7
:10B3E8005D883D80029926B9796003A8FCF71EF9AB
:10B3F800EAE736887868AD00AE4228BF2E46324666
:10B4080001F0DAFEB542F0D90C24DDE70724DBE7CA
:10B4180008220021014801F0F8BE00BF682D002075
:10B42800F0B587B007460E461546FFF7A9FE044655
:10B43800F8B1A7F58040104A03A980B2FCF77CF95F
:10B4480018B10024204607B0F0BD01A903A8FCF7F5
:10B45800C9F80028F5D1019BAF705A889B882A80CB
:10B4680003F58043029A6A6003A83380FCF7DEF88C
:10B47800E8E70124E6E700BF682D002030B5FF2883
:10B4880087B003460C46154635D889780846FFF735
:10B4980077FE80B3A3F58042ADF80020A1F5804285
:10B4A800ADF802206268019222880292184603AA27
:10B4B800FFF773FE0528694603A808D1FCF7D8F8FA
:10B4C800072804460CD005D870B1032409E0FCF71E
:10B4D800D3F8F5E7082801D00E28F6D1112400E0AA
:10B4E8008624204607B030BD002DFAD0294603A88F
:10B4F800FCF73AF9F5E70724F3E74FF6FF7000F099
:10B5080047BAFF2808B505D800F048FAFFF75EFEED
:10B51800002008BD0720FCE700F066BA00F092BAE8
:10B5280000F0AABA0A68084B70B50C25032A01D99D
:10B53800002006E005FB02F4E65A864202D10A60C2
:10B54800181970BD0132F1E7C82E002073B502AC9E
:10B55800002344F8043D0E4605462146FFF7E2FF66
:10B5680038B18378B34206D1837A9B0703D1436805
:10B578000BB902B070BD019B0133019321462846E7
:10B58800ECE710B5044600F07BFB204601F004F917
:10B598002046FFF70BFA2046BDE81040FFF7CAB86F
:10B5A80070B50F4E04460025237AAB420FD84FF6EC
:10B5B800FF732380A370FF236372A37A03F0FD0354
:10B5C8006FF30003A37200232372636070BD617A76
:10B5D8002944C9B2304600F01CFC0135E4E700BF3D
:10B5E800B82E002013B50023CDE900330446837834
:10B5F800417A27488DF8023000F0F2FBF0B1237A47
:10B60800A2788DF8022003EB83039B00ADF800308D
:10B61800531E0190072B08D8DFE803F0120707072D
:10B62800071204141423ADF80030221D694620883F
:10B63800FFF724FF07281DD008D8A8B1032019E078
:10B648000123F0E7838809339B08ECE7112813D01E
:10B658008628F3D1A37A03F0FD0343F00103A37214
:10B668000C4B01221A7005E0A37A60F3410360F3E2
:10B678000003A37202B010BDA37A43F002036FF374
:10B688000003A372034B01221A700020F2E700BFE7
:10B69800B82E0020B42E00202DE9F047374AC168A3
:10B6A80086B0054600230C24174604FB0320466891
:10B6B800B14203D00133042BF7D100202B78304E50
:10B6C800092B10D0132B50D0082B01D0002406E0F2
:10B6D8006C7A002CFAD10028F8D0FFF761FF2846D1
:10B6E800FFF74FFF0BE06C7A002CEFD100283ED01B
:10B6F800837A446043F00203837201233370337802
:10B7080083B3002535704FF00C084FF0010A08FB91
:10B7180005739A7AC2F340030BB9D20729D586F884
:10B7280000A003B92CB308FB05794846FFF75AFF78
:10B73800F8B14FF6FF738628ADF80230B9F800303B
:10B74800ADF8043017BF072306238DF800300290A8
:10B7580018BF002368460CBF8DF800308DF80C30F8
:10B76800FFF70FFF06B0BDE8F0870124B7E70446EE
:10B77800B5E70135042DCAD1F4E700BFC82E002073
:10B78800B42E0020174BF7B500221E464FF6FF7562
:10B798004FF0FF0C0C27144607FB02611D809D70BB
:10B7A80083F809C0887A013200F0FD006FF30000C9
:10B7B800042A887203F10C0303F8044C43F8084C7C
:10B7C800EAD15023CDE900230749084B08484FF434
:10B7D800A07200F0F1FA002814BF0320002003B083
:10B7E800F0BD00BFC82E0020742D0020F82E0020C8
:10B7F800B82E00200023FFF7D5BD00002DE9F04149
:10B8080080460E4614461F46002B4ED0CB1F012BF8
:10B818004ED8531E032B4BD8FFF798FE054610BB96
:10B82800FF214FF6FF70FFF791FE0546C8B1A0F85B
:10B83800008086706B7AFF2B1AD121461E4800F0D3
:10B8480000FBFF2868722DD14FF6FF732B80AB7A6F
:10B85800A87003F0FD036FF30003AB7200232B7293
:10B868006B60112022E0037AA342E3D00F201DE091
:10B878004FF000082C72697A0F4800F0B1FAC8B18D
:10B8880004EB84042401A4B2A408BE7078603C8050
:10B89800B8F1000F04D0082E02D1A400063C848021
:10B8A800002003E04FF00108E4E70E20BDE8F08136
:10B8B8000720FBE70320F9E7B82E002008B5FFF7BB
:10B8C80045FE18B1FFF76CFE002008BD0520FCE717
:10B8D80037B502AC002344F8043D05462146FFF77E
:10B8E80021FE30B92846FFF70CFE50B1072808D0D2
:10B8F80006E081782846FFF7E1FF20B1052802D04D
:10B90800032003B030BD019B013301932146284633
:10B91800E5E7CB1F012B70B506460C46154601D945
:10B92800072070BD1046FFF7F7FD0028F8D0214624
:10B938003046FFF70BFE28B105808470BDE87040E3
:10B94800FFF750BE0520ECE710B54FF6FF7304462D
:10B958009C4208460AD14FF48071FBF7E1FF84B29C
:10B96800B4F5807F09D14FF6FF7406E0FF2CFAD8B2
:10B978002146FBF7B4FF0028F5D1204610BD000092
:10B9880040220021014801F040BC00BFFC2E0020ED
:10B998000149FFF7D9BF00BFFC2E00204FF6FF7307
:10B9A800984210B5044606D00449FFF7CDFF231A84
:10B9B8005842584110BD0020FCE700BF1C2F002052
:10B9C800FF2810B5044609D801460548FBF795FF3E
:10B9D80021460448BDE81040FBF78FBF10BD00BFEB
:10B9E800FC2E00201C2F0020FF28014602D8024808
:10B9F800FBF78DBF00207047FC2E0020FF28014672
:10BA080002D80248FBF783BF002070471C2F002094
:10BA18004FF6FF73984270B518BF441C0E4614BF0A
:10BA2800A4B20024A5B2FF2D02D94FF6FF7506E097
:10BA380021463046FBF76BFF01340028F2D0284638
:10BA480070BD000070B50B490A4EFFF7E1FF4FF6D5
:10BA5800FF750446AC4201D1204670BD2046FFF771
:10BA6800CDFF0028F8D020463146FFF7D1FF044625
:10BA7800F0E700BFFC2E00200149FFF7C9BF00BF57
:10BA88001C2F0020F8B5074D074F064600242B78D9
:10BA9800A34200DCF8BD57F82430304698470134FB
:10BAA800F5E700BF532F0020442F0020074B1B78D9
:10BAB80010B504464BB1FFF7BBF9204600F0ACFEC9
:10BAC8002046BDE81040FEF7D3BE10BD522F00201F
