:020000022000DC
:106000000000012079630200616302006363020003
:10601000656302006763020069630200000000001C
:106020000000000000000000000000006B630200A0
:106030006D630200000000006F63020071630200E4
:106040006D9402007363020079960200736302008C
:106050007363020073630200FD9402009D960200C8
:1060600073630200736302007363020073630200D0
:1060700073630200736302007363020073630200C0
:1060800073630200756E02007363020073630200A3
:10609000116F02007363020011E5020073630200D6
:1060A0007363020073630200736302007363020090
:1060B0007363020073630200000000000000000030
:1060C0007363020073630200736302007363020070
:1060D0003D9F020073630200736302000000000032
:1060E00000000000000000000000000000000000B0
:1060F00000000000000000000000000000000000A0
:10610000000000000000000000000000000000008F
:10611000000000000000000000000000000000007F
:10612000000000000000000000000000000000006F
:10613000000000000000000000000000000000005F
:10614000000000000000000000000000000000004F
:10615000000000000000000000000000000000003F
:10616000000000000000000000000000000000002F
:10617000000000000000000000000000000000001F
:10618000000000000000000000000000000000000F
:1061900000000000000000000000000000000000FF
:1061A00000000000000000000000000000000000EF
:1061B00000000000000000000000000000000000DF
:1061C00000000000000000000000000000000000CF
:1061D00000000000000000000000000000000000BF
:1061E00000000000000000000000000000000000AF
:1061F000000000000000000000000000000000009F
:10620000364937480A1A02D0072291438D4635494C
:1062100035480A1A06D00722914381F309880222E1
:1062200082F3148831483249324A00F045F8324846
:106230003249334A00F040F832483349334A00F0DB
:106240003BF833483349344A00F036F83348344990
:10625000344A00F031F834483449354A00F02CF81B
:1062600034483549354A00F027F835483549002289
:1062700000F02DF834483549002200F028F8344861
:106280003449091A082903DB002202600430016046
:10629000314A90471F482049884205D0026804309F
:1062A00003B4904703BCF7E700208646EC46002085
:1062B00000212A4A9047FEE7884207D0521A05D0AB
:1062C000037801300B700131013AF9D170478842EF
:1062D00002D002700130FAE7704700000000012090
:1062E00000C000200000012000000120E80B030096
:1062F00074220020A4220020D8630200D863020088
:106300002AEA0200E80B0300742200207422002015
:10631000A4EB0200A4EB0200A4EB0200A4EB020039
:10632000A4EB0200A4EB0200A4EB0200A4EB020029
:10633000E80B0300180C0300A4220020A422002074
:10634000A422002070350020703500207035002018
:106350007035002070750020A16302001FA10200AB
:10636000FEE7FEE7FEE7FEE7FEE7FEE7FEE7FEE705
:10637000FEE7FEE7704700BF1048804710484FF027
:106380000701884385460F4880470F48016841F45C
:1063900070010160BFF34F8FBFF36F8FFFF730BF06
:1063A0000A480B490B4A884207D0521A05D0037895
:1063B00001300B700131013AF9D170477563020069
:1063C000000001208990020088ED00E090EB0200BF
:0863D00060220020742200206D
:1063D8007047000007B5044B0093044A402300F0BF
:1063E80032F803B05DF804FBF9630200A52200202F
:1063F8002DE9F84389461446B2B10F4B0F4E0325D9
:10640800002743F00108224609EB0701002004F0A9
:10641800E1FA0744241A48B933782BB14FF47A408B
:10642800C047013D02D13570BDE8F88301233370C0
:10643800002CE8D1F8E700BFB0EB0200A42200204E
:10644800704704F0FBBAF0B595B01C4616460846EE
:106458000D4602F00BFD1A9B0D93CDE9086400244C
:106468002346082205A928460A948DF82C400C9446
:1064780002F01AFD079B0293BDF81830ADF80C30F6
:10648800BDF81A30ADF80E309DF814308DF8114073
:1064980003F00302012A1DD1BDF81440059EC3F381
:1064A800C203C4F383148DF81030A20008230EA988
:1064B800284602F0F9FCC6F3952608AB009322465D
:1064C80002AB0EA9304600F069FB284602F0D2FC68
:1064D80015B0F0BD022AF8D1BDF81640C3F3C203C7
:1064E800A4098DF810300827082C264628BF08264E
:1064F8003B4632460EA9284602F0D6FCA41B08AB40
:1065080002AA31460EA8374400F0ACFB002CEBD1B0
:10651800DBE7000008B5FFF794FF0421034800F00B
:10652800ABFA034B01225A7108BD00BF80EB020091
:1065380074220020037813F0040216D003F003033A
:10654800012B03D0022B09D0012070470A6800886C
:106558000232C0F3831002440A60F5E70B684288F0
:10656800023303EB92130B60EEE71046704700000E
:106578002DE9F04F89B00546861C08A8484C0192C1
:1065880000230F4600F8113D00F0AAFE23683B6087
:10659800D4E901231344226801339B1A04F21C47EF
:1065A80004F5836A04F21448B3421AD3019A00230B
:1065B800002A6DD0012262F3010343F0040365F35E
:1065C80089132168A2689DF80F000A4003320E441F
:1065D80044F82230266000F0A7FE012009B0BDE88B
:1065E800F08F0121384601F0C3FE504601F0D9FE74
:1065F800404601F0D6FE0DF120096068D4F808B0D5
:1066080049F8100D00EA0B00033004EB80004946FE
:10661800FFF790FF049BB0B90BEA030204EB820278
:10662800D16805919A1C013303EA0B0B04EB8B0C20
:1066380001F00303012B0492DCF80CB020D0022BEC
:1066480004D083460BE00BEA0300DDE7BDF8163003
:106658009B0903334FEA1B4B02EB93030493404619
:1066680001F0A2FE08B1049B63605946384601F068
:106678007FFED4E901231344226801339B1A93E770
:10668800BDF81430C3F383134FEA1B4B1344E5E7FB
:10669800022262F3010343F0040365F39F5390E77A
:1066A800B82300200B4B0C48FF2210B59A6000223B
:1066B800C3F81824C3E90022C3F81424012283F87C
:1066C800202402F08CFB044610B9044802F056FC62
:1066D800204610BDB8230020B4EA0200D4EB020023
:1066E80030B50A4C71B10A4A0A49121BD208002374
:1066F8009A4201D1002030BD31F82350854202D0A2
:106708000133F5E7034654F83300F4E7C8EA02001A
:1067180080EB020074220020094B013903EBC00012
:10672800032909D8DFE801F00A02040604207047AB
:106738000079704740797047002070470220704701
:10674800C8EA0200034BD3E90030C31A5842584143
:10675800704700BFB82300202DE9F04387B0FFF74A
:10676800F1FF0646002840F0FC807F4DC5F818046C
:10677800BFF34F8F6868AC6806AF47F8100D20402C
:10678800033005EB80003946FFF7D4FE029B18B1B1
:10679800D5F81824002A5FD004EA0302991C0133B3
:1067A80005EB8202234005EB8303D268DB68049380
:1067B80002F00303022B0392029162D1BDF80E305E
:1067C8006A484FEA9318B8F1500FC14628BF4FF0F6
:1067D800500969F38F1309F10801ADF80E3002F082
:1067E80016FB0746002800F0A78002F03FFB03A92C
:1067F80000230822384602F04CFB029924EA0106DD
:106808000136B600B14535D95FFA89F97EB3F6B2DB
:10681800A9EB0609214003315FFA89F4B146544EC9
:1068280005EB810108234A46384602F032FB36B1AF
:1068380009F1080322463146384602F02AFB029B3A
:1068480008F1030803EB98030293D5F81834002BDA
:106858004BD1D5F810445BE02A689A4204D86A60A4
:10686800304607B0BDE8F08304EA030088E74049F2
:106878003446D7E72140033108234A4605EB810116
:10688800DAE7012B58D1BDF80C303848C3F383112F
:10689800062928BF062161F3891302318900ADF862
:1068A8000C3002F0B4FA0746002845D002F0DEFAB0
:1068B8000023082203A9384602F0EBFA0026BDF8A7
:1068C8000C20C2F38312B31C96424FEA8303BCD256
:1068D80002994A1C21400331029205EB81010422EE
:1068E800384602F0D6FA0136E9E7384602F0C2FA2D
:1068F800FFF728FF80F00100C6B2B1E7E3685B79D3
:1069080023B1236839461B6820469847E3681C680A
:10691800002CF3D1384602F0ADFA06A800F8114D64
:1069280000F0DEFCD5F818340BB9029B6B609DF8BB
:10693800070000F0F9FCDBE7D5F8104454B90D4B1B
:106948000D480E49C01AC008000440F0020000F0CB
:106958006FF8CDE7236820469B689847E3681C6872
:10696800ECE700267CE700BFB8230020B4EA020069
:10697800C4230020C8EA0200F8EA0200E0EB0200A3
:106988002DE9F74F284C80460F46924601A901226F
:1069980018469B46D4F80890FFF7EAFD88B3019D96
:1069A8000026A91C5E4506EB010234D100211F48D0
:1069B80001F09DFC80F310006A1C02EA090204EB56
:1069C8008202000405EA0903033340EA1840D06054
:1069D80014F8232068F3C50204F8232034F8232090
:1069E80066F3891224F8232054F82320012167F341
:1069F8009F2244F8232061F301026FF3820204F816
:106A0800232094F820341BB1FFF7A6FE0028FBD101
:106A180003B0BDE8F08F09EA020204EB82025AF8DB
:106A28002630D3600136BDE7B8230020D4270020E4
:106A380000231A46FFF7A4BF13B502AC012344F89C
:106A4800042D2246FFF79CFF02B010BD07B5CDE923
:106A5800002302236A46FFF793FF03B05DF804FBA7
:106A68001FB5CDE90123069B039301AA0323FFF772
:106A780087FF05B05DF804FB30B50F49D1F8102445
:106A8800002314463CB9C468237152B9C1F81004F4
:106A98002260184630BDE46825799D4206D02468F6
:106AA800F0E7D268116821601060F2E701330A2B21
:106AB800E7D14FF0FF33ECE7B8230020094A38B597
:106AC8000123D2F8104482F820341D4604B938BD99
:106AD800E3685D71236820465B689847E3681C6833
:106AE800F4E700BFB8230020037A052B10B50C4645
:106AF8000FD0437A23B1084A0849204601F0B5FC73
:106B08000749204601F0B1FC2046BDE8104001F0DD
:106B1800A1BC002AF8D0F3E72BEC020030EC02000D
:106B280050EC0200C38873B504460D4633B1144ACD
:106B380000921449144A284601F097FC217A052945
:106B48001CD0637A4BB1A088FFF7E6FD0F4B1049C4
:106B580053F82020284601F088FC227A0D4BA088A3
:106B680053F822600021FFF7BBFD0B49034632466C
:106B7800284602B0BDE8704001F077BC02B070BD95
:106B88002BEC02003BEC020033EC0200F8EB0200B5
:106B980030EC020060EC020053EC02002DE9F043F7
:106BA80085B01F460C9D002306460C46904695F876
:106BB8000C902B7329463846FFF7B4FFB8F1060F3F
:106BC80009D8DFE808F00412181F283340003146BE
:106BD800284601F04AFC002229463846FFF784FF80
:106BE80085F80C9005B0BDE8F08322683146284648
:106BF80001F03BFCEFE7D4E900233146284601F0D9
:106C080034FCE8E7A36800933146D4E9002328461A
:106C180001F02BFCDFE7E3680193A368009331469A
:106C2800D4E90023284601F020FCD4E72369029325
:106C3800E3680193A36800933146D4E9002328460A
:106C480001F013FCC7E76369039323690293E368C0
:106C58000193A36800933146D4E90023284601F044
:106C680004FCB8E708292DE9F84F80460E46174678
:106C78001C4636D8002593F80C901D73194610460B
:106C8800FFF750FFDFF87CA0DFF87CB0AE422AD9CE
:106C980018F805205946204601F0E7FB0135082D74
:106CA800F4D11649DFF864B0204601F0DEFB002578
:106CB800AE421DD918F805A0504607F0C9FD0028B6
:106CC80014BF52462E225946204601F0CEFB01350C
:106CD800082DEDD1012221463846FFF705FF84F83B
:106CE8000C90BDE8F88F5146204601F0BEFBD5E771
:106CF8000349204601F0B9FBE9E700BF26EC020092
:106D080024EC020022EC02001CEC020028EC020039
:106D18001FB50021039001AA44F20100CDE9011139
:106D280000F004F805B05DF804FB000010B572B679
:106D3800FFF7C4FEFFF710FD0028FBD1104B114CE4
:106D48001149E41AE408240444F00100FFF770FE36
:106D58000E4B1B68DB0700D500BE0D4944F002004E
:106D6800FFF766FEBFF34F8F0A490B4BCA6802F460
:106D7800E0621343CB60BFF34F8F00BFFDE700BF56
:106D8800C8EA0200F8EA0200BFEC0200F0ED00E0F9
:106D9800CBEC020000ED00E00400FA05094A537844
:106DA80091780133DBB2994208BF002311789942E8
:106DB8001FBF03705078182303FB002014BF043052
:106DC800002070477428002073B5054602A80024E7
:106DD80000F8014D0E4600F083FA0DF10600FFF7AA
:106DE800DDFF90B106700A4B9DF8062045605A7089
:106DF8009DF8070000F098FA24B9064B4FF480126A
:106E0800C3F80021204602B070BD0424F0E700BF9B
:106E18007428002000E100E0024B4FF43C6043F08E
:106E280001031847E0EC020038B50C4B0C4C4FF44A
:106E38000032C3F8802001254FF48033C4F848336A
:106E4800C4F808336560FFF7E7FF064BA560002428
:106E58001C60FFF7E1FF044B1C7038BD00E100E047
:106E6800001001409029002081290020F8B51F4B0F
:106E78001F491B680025C1F84051C1F84451C1F8A9
:106E88004851C1F84C51C1F80051C1F804514BB3F5
:106E9800D1F8044517490968641A24F07F442F463D
:106EA8001A68A24209D8A41A15441A7CDE691AB1D4
:106EB8001F74D3E905209047AEB90F4B0F4A1978D4
:106EC80013788B4205D10133DBB2022B08BF0023B4
:106ED800137012780A4B43F822500A4B4FF4801271
:106EE800C3F80021F8BD3346DAE700BF9429002033
:106EF80000100140902900208C2900208D290020B5
:106F08008429002000E100E02DE9F74F9E4A9F49BF
:106F1800137809789E4D99423CD00133DBB2022B9D
:106F280008BF002313709B4912789B4B0F6853F8D6
:106F380022003B1823F07F4300220B602B68164683
:106F48001446944613B942B12B6006E01968814291
:106F58000ED902B12B60091A19604FF001082B688D
:106F6800DFF83CA200930027BEB9DFF83CB260E02E
:106F7800401A0C44D968C3F800C0D3F81CE031B1FA
:106F88003A1922F07F42C3E90121DE611E4601223F
:106F98007346D7E70026B046E1E73446F6697D4AEE
:106FA80063681268DFF804C2A068991A21F07F416B
:106FB800614500F2A58001442160012222742A68FB
:106FC8000023C4E90133E361002A40F0A2802C6069
:106FD800CAE75A1C9BF80210D2B291428BF80020E3
:106FE80004BF00228BF80020182202FB03B32A6892
:106FF80019799C68022974D003297ED0012918D1F7
:10700800217CB1B9DA6862601A69A2605A699B6921
:10701800A361624BE2601B78002BC0D06160BEE7C1
:107028009C4200F093809946DB69002BF8D100233D
:1070380023749BF800309BF801209A42C9D12B6831
:107048002FB9009A934202D1B8F1000F43D0002B18
:1070580079D0D3F800A0524D4E4BD5F804751C6872
:10706800DFF84C813E1B98F8003026F07F46033647
:107078009BB94FF48033C5F84433C5F80433494B02
:107088004FF400324FF00109C3F880211A60C5F8A7
:107098000090FFF7C1FE88F80090B2452CBF544419
:1070A800A41924F07F44C5F84045D5F80435DB1B06
:1070B80023F07F43E41B033324F07F44A3420AD91F
:1070C800D5F80435C5F84035FFF7A6FE354B4FF423
:1070D8000032C3F80021314B00221A7003B0BDE81A
:1070E800F08F13469146A0E71174D2690123002A54
:1070F800FAD1002B9DD02A609BE700231946F6E7BA
:10710800D31A23F07F43834234BFC31A002323607A
:1071180053E721681368994213D8591A1160E2613C
:1071280055E7091AD8691A4638B1034618688842DB
:10713800F7D3401A1860184613462160E061DC61F5
:1071480012E71346F2E7FFF76FFEC4E74C450DD18F
:10715800D3692B6053B90F4801920121CAF808106E
:1071680003600E4B1970FFF757FE019AE169236817
:10717800C9F81C1011B1086803440B602B689A42C7
:1071880018BF012753E700BF8C2900208D29002054
:10719800942900209029002084290020802900209B
:1071A8000010014000E100E074280020FEFF7F008D
:1071B8008129002008B5FFF737FE104B00200B226D
:1071C80018809A700E4B18600E4B18700E4B187082
:1071D8000E4B4FF48012C021C3F8802183F814139A
:1071E8001A6002F18042A2F56F22C2F8080583F8FE
:1071F8001113074BD2F804251A6008BD7428002023
:10720800942900208C2900208D29002000E100E02D
:1072180090290020074B9B784BB132B128B1036805
:10722800187C20B959745A617047072070470820A4
:10723800704700BF742800202DE9F7431D4FBB7825
:1072480005460E4690469BB390B304292ED9436950
:1072580073B3437C02A80024012B00F8014D0CBF36
:107268008946A14600F03CF80DF10600FFF796FDAF
:10727800D0B101230370104B4560D3F80435C0E941
:107288000498C0E902369DF806307B709DF8070027
:1072980000F04AF824B9094B4FF48012C3F80021D2
:1072A800204603B0BDE8F0830424EFE70724F7E79E
:1072B8000824F5E7742800200010014000E100E0F0
:1072C800064A92783AB130B1426922B1002202747A
:1072D8000221FFF779BD0820704700BF74280020FD
:1072E80070B5EFF3108672B60C4A946801239CB906
:1072F80093600B4B0B4DD3F8801029401160C3F8F5
:107308008050D3F8841051604FF0FF32C3F88420C6
:10731800047006B962B670BD0370FAE798290020B8
:1073280000E100E0FC06FFBD084B9A6810B55AB1B1
:1073380050B9EFF3108172B6054A1C6814605C6896
:107348005460986001B962B610BD00BF982900204A
:1073580000E100E070B5064E0546002456F82430DA
:107368000BB1284698470134042CF7D170BD00BFF3
:10737800B0290020033080B240F2FD33984230B586
:107388001FD8124B1A783AB91C895D892C440444D9
:10739800A4B2B4F5806F0AD31A7DA2B99A8BDC8B9C
:1073A8002244024492B2B2F5806F0CD201220A80C4
:1073B8001446142202FB04335A89104458810020D1
:1073C80030BD0920FCE70720FAE700BFE4290020C8
:1073D8000B4A0C4B5188142000FB0131CB6833B9A0
:1073E8000420496810700122074801F0C3BA052338
:1073F8000649137002238B80012200230968F3E7F2
:10740800C8290020E429002060220020AC2A00209E
:1074180007B5002305490093054A0968054808236C
:1074280001F012FA03B05DF804FB00BFAC2A00209B
:10743800F4EC02006022002007B500230093014607
:107448000823034A034801F0FFF903B05DF804FB81
:10745800ECEC02006022002013B500230C460093D8
:1074680001460423074A084801F0EEF938B9074BEA
:10747800142202FB04340123237402B010BD0E2031
:10748800FBE700BFE8EC020060220020E4290020AE
:1074980037B50A480A4B42689C88196853880325FF
:1074A800033305709BB2002000909B0001EB840120
:1074B800044801F0C9F903B030BD00BFC829002055
:1074C800AC2A00206022002010B50146044800F0D4
:1074D80042FE1C220446002107F01EFA204610BD79
:1074E800982A00204388033300EB8303994209D389
:1074F80082884FF6FF739A4206D00088B0FA80F06F
:107508004009704702207047012070472DE9F84371
:107518000223DFF860800B800D46174600F5805681
:1075280000F108044FF00109B4420FD22368013377
:107538000CD031462046FFF7D5FF48B10FB187F888
:10754800009002280BD14FF480632B80BDE8F883AC
:10755800A368D8F80020934201D9C8F800302B88D6
:107568006288033313442B806388033304EB83045A
:10757800DAE700BFDC290020144A142303FB0020AB
:1075880070B50B6844680D4604F580569BB15C885D
:10759800033403EB8404B4420BD22368013308D0CC
:1075A80031462046FFF79EFF012809D005D302285F
:1075B800F1D1002003E00834EDE72C60012070BD14
:1075C8006388033304EB8304E5E700BFE429002064
:1075D800436873B505460C466BB3254AD1688B42A0
:1075E80029D31269934226D813F0030223D12149E3
:1075F8000089098988421ED12868996888421AD169
:107608001D494868834203D900F5805083420ED350
:107618008A6993420DD902F58052934209D2012317
:1076280023800020B0FA80F0400902B070BD1346F4
:10763800F6E70A20F6E7002323801E462388012B5D
:1076480001D90020F1E7019601A92088FFF794FFEE
:1076580018B9238801332380F0E7019B2A689968C9
:107668009142F1D16B60034B1B892B81DDE700BF91
:1076780060220020C8290020E42900202DE9F843D1
:107688001C461E4B1B7806460F461546002B30D06D
:10769800002A30D07CB3DFF86C804FF01409A3883F
:1076A800012B01D90A201AE009FB03F318F803306B
:1076B800BBB1A3880133A380F1E723681EB1998881
:1076C800328891420DD11FB119883A88914208D168
:1076D8009A68C5E900230A4B1B892B810020BDE865
:1076E800F8832146A088FFF747FF0028E5D12060EE
:1076F800DFE70220F3E70520F1E700BFC0290020FB
:10770800C8290020E429002008B5074B191D58880E
:10771800FFF732FF18B1BDE80840FFF7B9BEBDE872
:107728000840FFF755BE00BFC82900202DE9F04FDB
:10773800A04FDFF8A49289B00646B8463B6823B943
:1077480049469D4800F041FD3860D8F80050297836
:107758004B1E052B00F21281DFE813F006007600BD
:107768007600060106015D0126B1944B00225A609D
:10777800012424E02B79032B1DD8DFE803F0150240
:10778800424D8F490B78022B084631D00B7D022BD6
:107798004FF001032ED114225343C2180020C854BD
:1077A8005068FFF749FE03E001232B71FFF730FE15
:1077B800002800F0D380814B00225A600E24142246
:1077C800002103A807F0A8F841F61D539C4208BF02
:1077D8000024D8F8003004941A78023A042A00F2F7
:1077E800D381DFE812F0B401C001E301EB01F2013B
:1077F8000023D0E7714A13700023536041F61D54EB
:10780800DDE770497048002302222B718A8001222B
:10781800096801F0AFF8CBE76A4C00262E712068A2
:10782800674DFFF709FE694BD4F800C05A88142346
:107838005343EA18EE5451682160A188C2F804C085
:1078480011810222A280B3E7B5F814A0AA7DDFF85F
:1078580070B1AEB1022AEB8806D9142101FB0AB136
:10786800DA1C088902440A81142202FB0ABAC3F509
:107878007F43BAF80A20FD331344AAF80A3077E7A1
:10788800142303FB0AB318895C6804EB8004062AF6
:1078980005D8DFE802F0264C34421C5866000F2455
:1078A800AA7DEB88022A06D9142101FB0AB1DA1C49
:1078B800088902440A81142202FB0ABAC3F57F43ED
:1078C800BAF80A20FD331344AAF80A3077E740488B
:1078D800404900234360AB690360FFF779FE002845
:1078E8005AD00223AB75002300930423EA182146DB
:1078F800354800F0A9FF002830D00E24D0E72B69C6
:10790800002B0CBF01230323AB750023009305F163
:107918000C02042304F10801EAE70123AB750022F5
:10792800EB8800929B002A6904F10C01E0E7032927
:1079380014BF06230523AB7500230093042305F128
:107948000802E118D4E70623AB75224B1988204BAF
:107958005868FFF781FD04460028A1D109B0BDE8A9
:10796800F08F41F61D549BE7002E7FF401AF2B7971
:10797800012B33D004D3022B3FF440AF0F241EE772
:1079880002232B710DF10A01EB68039303A8CDE9DB
:107998000466FFF71DFE08B90A2410E70498BDF82D
:1079A8000A108388EB8003882B81FFF755FD044676
:1079B80027E000BFE0290020982A0020C0290020E5
:1079C800E4290020AC2A002060220020C8290020D9
:1079D800A4290020B82A0020D8290020DFF808A20E
:1079E80003AA53463146A81DFFF748FE044660B96E
:1079F800BAF804100498FFF72FFD04460A2C3FF448
:107A0800FDAE002C7FF4DBAEA8E7082231465046D5
:107A180006F082FFF2E7002E7FF4AAAE6D4B1A7BC8
:107A2800B2B11E731A78013A062AA7D801A151F8F3
:107A380022F000BFE37A0200097B0200277B0200E4
:107A48002D7B020085790200337B0200497B02000E
:107A58001A78072AE6D801A151F822F0857A02009F
:107A68002D7A02002D7A0200AB7A0200BF7A02005A
:107A7800DF7A0200DF7A0200A77A02001A895649E3
:107A880001321A8100225A801A730A78B2FA82F2F5
:107A980052099A720A7DB2FA82F25209DA72012206
:107AA80007E04E4958688A884088033202448A8031
:107AB80002221A70B6E7484C5A884849142505FB33
:107AC80002420868546850608888108102228A80BF
:107AD8000C600622EDE70722EBE79A7A32B9DA7AE8
:107AE8008AB900221A705A805A6087E63A490022F9
:107AF8009A72CA68002AF2D1097C0029EFD05A800C
:107B0800FFF702FE53E70022DA72334A116A0029AE
:107B1800E7D192F82420002AE3D00122EFE7FFF70B
:107B2800B7FC44E7FFF754FC41E706221A702A4ADB
:107B38005B88142101FB03235868FFF77DFC36E7B7
:107B480007221A7000225A60FFF762FC2FE7012211
:107B58008DF80C201A89ADF818209A88DB68ADF8E2
:107B68001A20059310E002228DF80C201A89ADF82E
:107B780018209A88ADF81A20DA689B7D05929A1F1A
:107B8800534253418DF81C3003A8FFF7E3FB00264E
:107B980049461348C8F8006000F042FB012111482B
:107BA80000F0F1FB00287FF4C9ADD7E603228DF879
:107BB8000C20DA88ADF818201A89CFE70422DB8870
:107BC8008DF80C20ADF81830DEE705238DF80C3061
:107BD800DAE700BFC8290020E4290020AC2A0020E9
:107BE800982A0020A82A0020BC2A00204068FFF715
:107BF8009DBD000008B50121044800F0AEFB18B98E
:107C0800BDE80840FFF792BD08BD00BFA82A0020C4
:107C18002DE9F3419846354B1B7806460D46002B57
:107C28005BD000295BD009884FF6FF73994258D082
:107C38006B88002B55D06B689B0754D14AB92F89A4
:107C48000DF102013846FFF795FB30B102B0BDE8EF
:107C5800F08113885788ADF8023001A8FFF734FC8B
:107C6800044658B9BDF80230214A142101FB032308
:107C780058890338C01B58810820E7E7002383751B
:107C8800BDF8023083826B68036180F800800121AF
:107C9800184800F06DFB2B882381B8F1030F6B881F
:107CA800A38004BF0423A3754FF0000508BF336801
:107CB800E06008BFA361E780658101A90E4800F074
:107CC80074FA36B1E36833600C4B75601B89B57282
:107CD8003381FFF78FFF0020B8E70220B6E70520C1
:107CE800B4E70420B2E70320B0E700BFC0290020B2
:107CF800E4290020DC290020982A0020C829002037
:107D080008B5084B1A68042A09D01968064A42F8C7
:107D180021000121184600F02BFB002008BD0C2093
:107D2800FCE700BFB42A0020B02900202DE9F04F5D
:107D380089B01422002103A806F0EEFD7B4A1378CF
:107D480003F0FF01009190463BB103A8FFF702FB47
:107D58000026304609B0BDE8F08F101D00F01EFB6C
:107D680005460028F4D14FF010234FF080525B698C
:107D780011695269DFF8DCA1581C08BF02FB01F346
:107D8800CAF810300022A3F540536949CAF80C30EC
:107D9800504600F025FD06460028DAD11C238C2227
:107DA8006449654800F0A2F93746B3464FF0030925
:107DB8003446CDF804A0019BD9680BEB01000246BC
:107DC8005BF80110002835D05C4B994232D14168EC
:107DD8005B4B994215D0013399422BD1009BDFF8B8
:107DE8006CA1002B59D100225649CAF80000FFF7B0
:107DF8008DFBBAF80420022A14BF08220422174374
:107E08003AE051494FF0140C0CFB04FC01EB0C0256
:107E18004FF0000E01F80CE050600CF110020CF16C
:107E2800080C0A446144FFF771FB47F0020701346C
:107E3800A4B221E000F5805C1168013167D10432F9
:107E48009445F9D1414A116829B9022101231060EA
:107E5800918000930EE0142262433B4B4FF0020ED8
:107E6800991803F802E03A4A486054800134A1F8AE
:107E780008E0A4B247F001070BF5805BBBF5405F53
:107E880099D1B9F1010F88BF3D46EDB2022D02D05C
:107E9800062D12D0DDB90B265BE72B4B142262436B
:107EA80099184FF0020C03F802C00134DAF80020E8
:107EB8004A60A1F808C0A4B295E7012388F8003009
:107EC80003A80023C8F80430FFF744FA41E702A8E2
:107ED800FFF7FAFAC8B10123013D03700A2D09D84A
:107EE800DFE805F006080608070807080F110F0065
:107EF8000023037102A9104800F057F9FFF77AFE32
:107F080027E70323F5E70223F3E7082621E70E49CD
:107F18001422624301EB020C09F1FF39CCF804008A
:107F280003201FFA89F9885481E700BFC02900207F
:107F3800E8EE02000C2A0020982A0020DEC0ADDE00
:107F4800FE011EF1B02A0020E4290020AC2A0020FE
:107F5800C82900206022002073B50D460446C8B128
:107F6800C1B10DF10601FFF733FBA8B10B4BBDF80A
:107F780006006668142202FB003001210C3000F074
:107F8800F7F963682E600C336B600123A37200203D
:107F980002B070BD0520FBE70A20F9E7E4290020BC
:107FA80013B50446A8B10DF10601FFF711FB90B116
:107FB8000B4ABDF80630142101FB0323DA6862B1CD
:107FC800A27A52B1DA680020013ADA60A07202B0EF
:107FD80010BD0520FBE70A20F9E70620F7E700BFF8
:107FE800E429002002230022FFF712BE18B1032360
:107FF8000022FFF70DBE052070470000104B1B78CC
:1080080013B50446ABB14FF6FF73984213D001A8DD
:10801800FFF75AFA88B10523037001230371C4805E
:1080280001A9084800F0C1F8FFF7E4FD002002B0FC
:1080380010BD0220FBE70420F9E70820F7E700BF9E
:10804800C0290020982A00200E4B1B7807B5A3B141
:1080580001A8FFF739FA90B10623037001A90A486D
:1080680000F0A3F8094B1A780AB101221A73FFF736
:10807800C1FD002003B05DF804FB0220FAE70820E8
:10808800F8E700BFC0290020982A0020C82900204E
:1080980007B5ADF8060002A820F8041D01460DF149
:1080A8000600FFF7EBFA03B05DF804FB13B502AC6A
:1080B800134624F8020D0A4600202146FFF7DEFA8F
:1080C80002B010BD13B502AC134624F8020D0A46DF
:1080D80020460021FFF7D2FA02B010BD20B119B135
:1080E80003680B60002070470520704710B561B128
:1080F800B2FBF3F403FB1424A4B244B9C0E900149E
:1081080084608281C381204610BD0E20FCE70920CF
:10811800FAE782B050E8022FC188B2EB324F4FF035
:10812800000317BF92B241EA014142EA014104E06B
:108138004268B2EB324F08BF012340E80212002A1E
:10814800E8D18DF807309DF80730002B0CBF1120BF
:10815800002002B0704737B550E8013F9DB2C4898E
:1081680025448489A54228BF2D1B0489A54202BF46
:10817800BFF32F8F002207E0C5EA030540E801544A
:10818800002CE9D14FF001028DF803200193019BE7
:108198009DF803200B6002F0FF0322B10B880068F2
:1081A800184403B030BD1846FBE70A884B889A424A
:1081B80009D150E8012FC2EA024240E80123002B0E
:1081C800F7D1012070470020704737B550E8023FCB
:1081D8001FFAA3F5C488A54202BFBFF32F8F002260
:1081E8000DE0C48925448489A54228BF2D1BC3EA14
:1081F800054540E80254002CE8D14FF001028DF803
:1082080003200193019B9DF803200B6002F0FF03FC
:1082180022B14B880068184403B030BD1846FBE70C
:108228000A884B889A4209D150E8022FC2EA2242B2
:1082380040E80223002BF7D1012070470020704747
:1082480001F01F024B090121914000EB830000F06F
:1082580063B84B0910B501F01F040121A14000EBE0
:10826800830000F04EF8E04000F0010010BD01F07E
:108278001F0301229A404B0900EB8300D14300F011
:1082880061B84B0901F01F0150F82300C84000F005
:10829800010070472DE9F0474E1E760980460F46CB
:1082A8000136002558F8254008EB850AE44394FA7E
:1082B800A4F4B4FA84F44FEA4519202C06D1013508
:1082C800AE42EFD83C462046BDE8F0874C44A74272
:1082D800F5D921464046FFF7BCFF0028F3D0DAF86D
:1082E8000040E44394FAA4F4B4FA84F4E5E750E8CF
:1082F800002F0B4640E8003C9CF0000FF7D11046D9
:10830800704750E8002F42EA010340E8003C9CF027
:10831800000FF6D11046704750E8003F43EA0102CB
:1083280040E8002C9CF0000FF6D11046704750E84A
:10833800002F02EA010340E8003C9CF0000FF6D150
:108348001046704750E8003F03EA010240E8002C5D
:108358009CF0000FF6D11046704750E8002F02EB52
:10836800010340E8003C9CF0000FF6D1104670472E
:1083780050E8003F03EB010240E8002C9CF0000F9E
:10838800F6D11046704750E8003FA3EB010240E8E1
:10839800002C9CF0000FF6D1104670470121FFF722
:1083A800B0BF0121FFF7B8BF0021FFF7C0BF10B56C
:1083B80090B1D0E9012301689B1ADBB20A60013B46
:1083C800DBB2FF2B026802D10020107110BD1168CA
:1083D8004C1C14600B70F2E70E20F7E737B5054622
:1083E80002A8002400F8014DFEF77AFF2A686B689E
:1083F800116899420ED9481E106011F8014CEB68BB
:10840800298A01FB0434AB6811791B1ADBB2994243
:1084180038BF13719DF80700FEF786FF204603B0AA
:1084280030BD37B5054602A8002300F8013D0C46CB
:10843800FEF756FF2A681368591C1160E968641A28
:10844800298AB4FBF1F41C709DF80700FEF76CFF55
:1084580003B030BD826810B504462AB1436901688B
:10846800006998470023A36010BD0EB403B50399B3
:1084780029B102AA04AB42F8043D00F06BF802B03F
:108488005DF804EB03B07047826830B40468551C8B
:108498008560A154D0E901329A4202D330BCFFF77B
:1084A800D9BF30BC704700002DE9F84F9946DDE987
:1084B8000A431746824688460A460126BA420FD220
:1084C8004E4538BF4E4613F0010B01D164B9002464
:1084D8000125B9F1010F1AD909F1FF397D43F8E7F0
:1084E800B2FBF7F20136E9E79B070ED5B9F1000FA9
:1084F8000CBF30252025A642EAD2013C2946504629
:10850800FFF7C2FF002CF6D1E1E72025F3E7B8FB1F
:10851800F5F39F42E2D9DFF83890B8FBF5F35046FF
:1085280019F8031005FB1388FFF7AEFFB5FBF7F545
:10853800002DF2D1BBF1000F02D00CB1A64201D33D
:10854800BDE8F88F20215046013CFFF79DFFF4E776
:10855800FCEC02002DE9F74F054690460E4600292F
:1085680000F03A8116F8011B002958D0252940F05F
:10857800D180002702E047F001071646324612F87C
:10858800013B2D2BF7D0302B04D02B2B05D147F0F6
:108598000407F2E747F00207EFE700242A2B06F169
:1085A80001021BD1D8F80030191D1B68C8F800104B
:1085B8001C44164633782E2B1CD101364FF0000A86
:1085C800314611F8012BA2F13000092814D80A23EA
:1085D80003FB0A23A3F1300A0E46F1E712F8013C27
:1085E800A3F130010929E5D80A2101FB0434303C04
:1085F8001646D3E74FF0000A324612F8011B01F085
:10860800FB0068281646F8D0692916D054D858298E
:1086180070D00ED825297DD03378002BA2D12B7BA2
:10862800002B00F0D980284603B0BDE8F04FFFF7D3
:1086380011BF632968D06429EED1D8F80020D2F898
:108648000090111D89EAE972C8F80010A2EBE972DE
:108658004FF0010B092A61DCD34538BFD3462CB152
:10866800B9F1000F01DB790700D5013CBA0702D543
:10867800BAF1000F04D0FB0702D4002C54D1002417
:10868800B9F1000F58DAC9F100092D212846FFF782
:10869800FBFE07F00302022A05D1BAF1000F02D14E
:1086A800002C4DD10024CDE9004753460A22494603
:1086B8002846FFF7F9FEAFE7732954D016D870297A
:1086C800AAD1D8F800301A1DC8F800203021284651
:1086D8001C68FFF7D9FE78212846FFF7D5FE00224F
:1086E8000823CDE9003221461022E1E775292FD071
:1086F800782991D1D8F800100A1DC8F80020CDE9D2
:108708000047534610222CE0D8F800301A1D19787B
:10871800C8F800202846FFF7B7FE7DE70A230BF1CB
:10872800010B92FBF3F295E7A345A9D22021284635
:10873800013CFFF7A9FEA0E77807AAD52B21A5E7FA
:10874800A345B0D230212846013CFFF79DFEA7E79C
:10875800D8F80010CDE900470A1DC8F80020534694
:108768000A220968A4E7D8F800301A1DC8F80020C2
:10877800F907D3F8009012D54F46A7EB090B17F865
:10878800011B41B9A345BFF447AF20212846013C4E
:10879800FFF77AFEF6E72846FFF776FEEDE7B9F130
:1087A800000F17D0484606F00CF90746BC4200D91E
:1087B80054B909F1FF3919F8011F00293FF42CAF0A
:1087C8002846FFF761FEF6E720212846013CFFF71F
:1087D8005BFEEBE74F46E9E703B0BDE8F08F00002A
:1087E80007B50B4688B9124B1248134AC01A0E2314
:1087F800C0080093114B0004114940F00100FEF736
:108808002FF90E2003B05DF804FB4BB9084B09485B
:108818000C4AC01AC0080E2300930004074BEBE76C
:1088280003601B68114603B05DF804EB184700BFEE
:10883800C8EA020010EB0200B9ED02000CED0200DC
:10884800BEED020035EE02002DE9F34188B93D4B3B
:108858003D483E4AC01AC0080E243D4B009400040F
:108868003C4940F00100FEF7FBF8204602B0BDE8A5
:10887800F0814AB9334B3448374AC01AC0080E242D
:1088880000040094324BEBE7D0F800C0BCF1000FB5
:1088980009D12C4B2C48314AC01AC00808240004BE
:1088A80000942B4BDCE74BB9264B27482C4AC01ABF
:1088B800C008092400040094254BD1E74768D7F87D
:1088C8000480B3FBF8F708FB17374FB11D4B1E4860
:1088D800244AC01AC0080924000400941C4BBFE7AE
:1088E8008F0709D0174B18481F4AC01AC008102410
:1088F80000040094164BB3E712F0030F09D0114B94
:1089080011481A4AC01AC008102400040094104BD9
:10891800A6E7C768B9420BD34C1E05691C44AC4294
:1089280006D8DCF80C40A44602B0BDE8F041604728
:10893800044B05480E4AC01AC008102400040094CD
:10894800034B8DE7C8EA020010EB0200B9ED020004
:108958001EED0200BEED02003BEE02002FEE02000B
:10896800EEED020041EE02006BEE020083EE020023
:10897800A6EE0200F7B580B92A4B2B482B4AC01A3D
:10898800C0080E242A4B009400042A4940F0010034
:10899800FEF766F8204603B0F0BDD0F800C0BCF181
:1089A800000F09D11F4B2048234AC01AC0080824C9
:1089B800000400941E4BE8E74AB91A4B1A481F4AAC
:1089C800C01AC008092400040094194BDDE7476861
:1089D800D7F800E00EF1FF370F4209D0114B1248CB
:1089E800174AC01AC008102400040094104BCCE7A2
:1089F800C768B9420CD34C1E05690EFB0244AC4251
:108A080006D8DCF81040A44603B0BDE8F040604743
:108A1800044B05480B4AC01AC008102400040094EF
:108A2800034BB2E7C8EA020010EB0200B9ED0200FE
:108A380031ED0200BEED02002FEE0200EEED020065
:108A480044ED02006AED020029DF704728DF704715
:108A580070B503689D6886B004460E466DB1142251
:108A68000021684605F058FFA3680593237901960D
:108A78002BB1012B0DD06846A84706B070BD012365
:108A88008DF8003023690293E368039363690493C4
:108A9800F1E702238DF80030E3681B030293F5E742
:108AA8000846704700207047024B187A003018BFFC
:108AB80001207047602B0020034B187A0122B0FA7E
:108AC80080F05A7440097047602B002008B51046A2
:108AD8001A4605F0F8FE002008BD000008B514226B
:108AE8000021044805F018FF0348FFF712FB002097
:108AF80008BD00BF602B0020502B002010B5094C8A
:108B0800094B43602046FFF749FC40B905F0E2FCF9
:108B18001C2320748C2205490548FFF7E7FA00203A
:108B280010BD00BF602B0020DCEE0200C42A00202C
:108B3800502B002070B5244D244E2B7A2C463BB97F
:108B480023492448FFF741FB306008B9686070BDCD
:108B58000223237233681A7972B1012A24D0184685
:108B68000321FFF775FF0023237263601849194832
:108B7800BDE87040FFF754BBD3E90520121AB2F5DF
:108B8800805F28BF4FF48052D3E903159208012A69
:108B9800014438BF01222844FFF756FF50B111287D
:108BA800DDD101232372D2E7D3E903021044FFF792
:108BB8004DFFF3E7237C002BC9D10146BDE8704087
:108BC800022000F009B800BF602B0020782B00209D
:108BD800742B0020502B002038B5831E012B45D85C
:108BE800234C237A002B41D0022B09D1032830D003
:108BF800204B1B680022E2601A793AB1012A22D080
:108C0800637C7BBBBDE83840FFF794BFD3E905120E
:108C18008D1AB5F5805F94BF521902F580529A619A
:108C28009142EDD102284FF0000308BF1946237284
:108C3800104B18BF0D211868FFF70AFF0E490F489F
:108C4800FFF7EEFADCE71A6901321A615B699A42AA
:108C5800E7E7E3680133082B01D8E360D0E7002396
:108C6800E360DFE7BDE8384005F024BC38BD00BF4D
:108C7800602B0020782B0020742B0020502B002024
:108C880000F0FD03012B08D1044B00225A74421E48
:108C9800504250411874FFF74DBF7047602B0020B9
:108CA80010B5064C201DFFF779FB28B9637C1BB96A
:108CB800BDE81040FFF73EBF10BD00BF602B00208D
:108CC8002DE9F34180460D460F4801A916461F4677
:108CD800FFF741FA0446A8B11C22002105F01CFE4A
:108CE8002D0B0123237101A9C4F80080A760E5605A
:108CF80066610548FFF759FAFFF7D2FF002002B076
:108D0800BDE8F0810420FAE7502B00202DE9F74355
:108D180081468846104801A917461E46FFF71BFAE8
:108D28000446B0B11C22002105F0F6FD00250A9B7F
:108D3800A36001A92571C4F80090C4E903786661AD
:108D48000548FFF732FAFFF7ABFF284603B0BDE846
:108D5800F0830420FAE700BF502B00202DE9F047EC
:108D6800B0F806904479D2F800A09DF8208009FB5D
:108D780004F4043C06460AEB0300A0420F4688BFF1
:108D8800A4EB030A191DC2F800A0B1FBF9F509FB11
:108D980015114DB9A9EB0104544528BF5446BAF141
:108DA800000F04D1BDE8F0873668013DF1E70431D2
:108DB8007B1970182246B8F1000F0ED001461846EC
:108DC800AAEB040A05F07FFDD145254436684C46D8
:108DD8004FF0000128BF5446E1E71946F0E7FFF7D6
:108DE800E6BAF8B546790146721E05460023934255
:108DF8002D6803D30024A64202D8F8BD0133F6E754
:108E08000F682846FFF70DFB01343946F3E72DE9D3
:108E1800F843068ACD1C0746FFF7E0FA043E3544BE
:108E28000446B5FBF6F5F0B14FF48073EDB28380DC
:108E3800C680013D076081464FF00008A84512D260
:108E48003846FFF7CBFA064648B1637901336371B8
:108E580008F10108C9F8000007608146EEE72046DE
:108E6800FFF7BFFF34462046BDE8F88301210430F0
:108E7800FFF77EBA10B5012104460430FFF783FAE4
:108E880010F0FF0F04D12046BDE81040FFF7A9BF3E
:108E980010BD1FB504AC44F8042D002200922246F0
:108EA800FFF75CFF04B010BD1FB504AC44F8042DF7
:108EB800012200922246FFF751FF04B010BD41DFA6
:108EC800704700000D4B10B500241C700C4B1C6043
:108ED800BFF35F8F0B490C4800F059F80B4A136930
:108EE80043F0100313614FF0A0438022C3F80C2510
:108EF8000322C3F81C27204610BD00BF842B002086
:108F0800882B002008EF02007C2B002000ED00E0F9
:108F180037B502AC002504F8015D2046FEF7E0F9FC
:108F2800F1EE103A23F09F03E1EE103ABFF35F8FA2
:108F3800114B4022C3F884219DF80700FEF7F4F98D
:108F480020464FF0A0448DF80750FEF7C9F980235A
:108F5800C4F8083505F0BEFA50B1FFF7B0FF80231A
:108F6800C4F80C359DF80700FEF7DEF903B030BDF4
:108F780020BF40BF20BFF2E700E100E08368002285
:108F88005A609A60C3E90422DA601A6070470B6875
:108F98004A684360934208BF0023016008BF4360EA
:108FA8007047436843B10268916852680B44934222
:108FB800436004BF00234360704700000D4930B58B
:108FC800A1F594720225914201D800200EE08B1A77
:108FD800DB1093FBF5F302EBC30452F83330834202
:108FE80005D802D204F10802EDE7606830BD2146D9
:108FF800E9E700BF58F0020008B5FFF7DFFF024BB2
:10900800002808BF184608BD1DEF02000C4B1B784E
:10901800062B10D10B4B1B681A070CD10A4B18688A
:1090280000F0F003302B08D000F0E000A0F140037E
:10903800584258417047002070470120704700BFD0
:10904800E00F00F0E40F00F0E80F00F0094B1B7888
:10905800062B0CD1084B1B681A0708D1074B186858
:1090680000F0F000A0F1300358425841704700204A
:10907800704700BFE00F00F0E40F00F0E80F00F0C9
:1090880008B5FFF7C3FF28B17D4B7E4A1B68C3F3C1
:1090980004231360FFF7DAFF10B17B4B7B4A1A6099
:1090A800FFF7B4FF28B17A4B7A4A1B68C3F34233FF
:1090B8001360FFF7CBFF20B1774AD36823F08073A2
:1090C800D360FFF7A3FF40B14FF080430022C3F8FD
:1090D8000C21C3F81021C3F83825FFF7B7FF10B1EA
:1090E8006E4B03221A60FFF7B1FF40B16C4B0522AB
:1090F8001A6001229A6700229A603F225A60694BDF
:109108001B78062B50D1684B1B6819074CD1674B4D
:109118001B6803F0F003502B46D14FF08052644B8C
:10912800D2F80414C3F82015D2F80814C3F824158B
:10913800D2F80C14C3F82815D2F81014C3F82C155B
:10914800D2F81414C3F83015D2F81814C3F834152B
:10915800D2F81C14C3F84015D2F82014C3F84415EB
:10916800D2F82414C3F84815D2F82814C3F84C15BB
:10917800D2F82C14C3F85015D2F83014C3F854158B
:10918800D2F83414C3F86015D2F83814C3F864154B
:10919800D2F83C14C3F86815D2F84014C3F86C151B
:1091A800D2F84424C3F87025FFF730FF28B1414BAB
:1091B800414A1B6803F04F031360FFF727FF48B1CC
:1091C8004FF08043D3F80024D20744BF6FF0010268
:1091D800C3F80024394B1B68062B08D1384B1B6891
:1091E800062B01BF374A136843F480631360364A7D
:1091F800D2F8883043F47003C2F88830BFF34F8F39
:10920800BFF36F8F4FF01023D3F80022002A03DB3F
:10921800D3F80432002B2FDA2C4B0122C3F8042593
:10922800D3F80024002AFBD04FF010221521C2F8F1
:109238000012D3F80024002AFBD04FF01023152287
:10924800C3F80422214B1A46D3F800140029FBD096
:109258000021C3F80415D2F80034002BFBD0BFF36B
:109268004F8F19491A4BCA6802F4E0621343CB6066
:10927800BFF34F8F00BFFDE7164B174A1A6008BDB2
:10928800240300104035014074C007400DF0ADBA0A
:10929800440200103C050040F0ED00E0A00500404D
:1092A80010560040E00F00F0E40F00F0E80F00F067
:1092B80000C0004058020010E40E004030010010C9
:1092C800340100103C17004000ED00E000E00140D0
:1092D8000400FA057C2200200090D00338B5084C21
:1092E80004F108030546002818BF1C4623682BB163
:1092F8001A6822605B6828469847F7E738BD00BFC0
:10930800942B002020B9054B01225A70FFF7E6BFC5
:10931800012802D1014A9070F8E770478C2B002091
:1093280020B9034B01225A70FFF7D8BF704700BF1E
:109338008C2B002038B50B4C237883B90A4863601E
:10934800A3602361E36000F05FF8054605F0C2F80A
:1093580008B900F067F801232370284638BD852531
:10936800FBE700BF8C2B00200D93020037B502A845
:109378000023094C00F8013DFDF7B2FFE368013B0B
:10938800E360E56815B900F061F8A5709DF807007D
:10939800FDF7CAFF03B030BD8C2B0020012813B5A0
:1093A80009D003D303281BD002B010BD0F4B0122F4
:1093B800C3F88020F8E702A800230D4C00F8013D0F
:1093C800FDF78EFF23780BB9FFF7B4FFE3689DF82C
:1093D80007000133E3600123A370FDF7A5FFE3E76E
:1093E80000F020F8FFF7C2FFDEE700BF00E100E071
:1093F8008C2B002000F18040002382B003600368BA
:109408000193019B02B07047054A13792BB90121DA
:10941800106011715371184670478520704700BF5E
:10942800A02B0020084B1A68D20706D4C02283F864
:1094380000230122C3F880211A604FF080430122E3
:10944800C3F81825704700BF00E100E0044B012273
:109458001A604FF08042D2F81834DB03FBD470470F
:109468000C000040124B1B6810B573B14FF48070AC
:10947800FFF7C0FF4FF080430122C3F808230D4BCC
:10948800587910B95A711B6898470B4B1B6873B110
:109498004FF48270FFF7AEFF4FF080430222C3F80B
:1094A8000823044B01201B68BDE81040184710BD75
:1094B80000010040A02B00200401004000F1804082
:1094C80000F5C040002382B0036003680193019B4C
:1094D80002B07047800000F1A040D0F8003723F4B4
:1094E8004033C0F80037D0F8003743EA0141C0F8EC
:1094F800001770472DE9FF470024584A584E594D28
:10950800019401211368A2F5C040012B80B206D155
:10951800D6F804330B4202D0FFF7D0FF0C430432D5
:10952800AA424FEA4101EDD14F4B1B68012B0AD1EA
:109538004FF4BE70FFF7C2FF4FF0A04344F0004461
:10954800D3F81035019314F0FF0F1AD0474F0025B8
:109558000126344210D0AB0003F1804303F5C04329
:10956800D3F81005D3F8101557F82530C0F30420A8
:10957800C1F3014103B198470135082D4FEA46066A
:10958800E7D1002C66DA00224FF0FF33CDE9022341
:10959800DFF8D8900127002634464FF0A04809EBA1
:1095A800060393F95020531C45D0D2B222F0C005CF
:1095B800E90804A8084402F0070310F804CC07FAE5
:1095C80003F31CEA030F36D009EB050C92099CF94A
:1095D80030C059F82CA0BAF1000F0AD1032A2AD1B9
:1095E8000DF1080E1EF801C04CEA030C0EF801C07C
:1095F80001E0032AF4D005F5E07110F80C0C58F8D6
:1096080021101842C1F3014105D0022913D1032AC0
:109618000BD1114604E003290DD1032A05D10221FB
:109628002846FFF757FF0134E4B2BAF1000F02D021
:1096380011462846D0470136042EB0D154B14FF018
:10964800A043019AD3F81035934203D00193029BAB
:109658000393A0E704B0BDE8F08700BF00610040B5
:1096680000600040206100407C610040A82B002081
:10967800014B1B68184700BF042C002000F18040F4
:1096880000F5E040002382B0036003680193019B6A
:1096980002B07047F0B5514B514C1B6885B0DBB137
:1096A8004FF4827094F82E20FFF7E8FF12B194F877
:1096B8002F30A3B1636802932389ADF80C30E368B7
:1096C80000218DF80410002B44D12374236801A8CD
:1096D8009847002384F82F3094F82E3003B3414B79
:1096E8001B68EBB14FF48070FFF7C8FF94F82D208A
:1096F800638B91B28B4238D95B1A21899BB2638301
:10970800CB1A616801EB4301374BC3F82C16C3F839
:1097180030264FF48270FFF7B1FF344B01221A60F4
:10972800334B1B685BB14FF48870FFF7A7FF00232A
:1097380004A82374022300F80C3D236898472D4B96
:109748001B6813B34FF48A70FFF798FF0023237444
:1097580005B0F0BD208B608363602081E160002A42
:10976800B4D1214B01221A60B0E7D2D1E3680121BC
:1097780084F82F103BB1002161831B49C1F82C36B6
:10978800C1F83026C5E76383C3E766694FF0004731
:109798000125002EDCD0B6FA86F227FA02F346320B
:1097A800920026EA030602F1804303F5E0431B68B2
:1097B800002BEED01046FFF761FFA2F58C72D3089C
:1097C80082F00402C2F380028DF808308DF804504C
:1097D8008DF80920236801A89847DAE7047100404A
:1097E8000C2C002000710040007000400470004004
:1097F800107100401471004070B52A4B2A4CE41ACD
:109808002A4B064693F82C00E408240458B1082093
:10981800FFF7F2FB264A2749034644F00200FDF70A
:1098280015F9082070BD244A19603178C2F8F0157E
:109838007178C2F8F415F5781874012183F82C10A2
:1098480083F82D00586183F82F0083F82E506FF0AD
:109858000043C2F808334FF48270FFF70FFF4FF44C
:109868008070FFF70BFFB37814485B01DBB280F818
:1098780007338023C0F8803103600223C2F8043321
:109888000DB1C2F80413C2F800150020FFF7B4FBAD
:10989800074A0849034644F00300FDF7D7F80020BB
:1098A800C0E700BFC8EA0200F0EA02000C2C002062
:1098B80029F40200BAF402000070004000E100E060
:1098C800F8B5394B394C3A4D0246641B187CE4080C
:1098D800240400F0FF0658B11120FFF78DFB354A2C
:1098E8003549034644F00200FDF7B0F81120F8BDF1
:1098F800087901289CBF314DC5F8006502F10C06B6
:1099080003EB46052D7925B993F82D50013583F8D9
:109918002D5003EB4603CD790E7A8F781D715E7159
:109928004B783F021B0107F4E06703F030033B4329
:109938000F7807F003073B43CF783F0307F48057BE
:109948003B43070407F4E0273B434F7989793F05F8
:1099580007F4801709063B4301F080710B43174950
:1099680001EB02170128C7F818354FEA021303F173
:10997800804303F5E04344F00304C3F81465C3F8D7
:1099880010559CBF0123C1F8003520460C49FDF74E
:1099980053F80020FFF730FB064A074903462046E4
:1099A800FDF754F80020A2E70C2C0020F0EA020092
:1099B800C8EA020039F40200BAF40200007000405C
:1099C800A1F40200054B93F82E30002B14BF0020A1
:1099D800042000F1804000F5E04070470C2C002086
:1099E8002DE9F7433F4E404D404C12230F46C6F831
:1099F80008333F492A7C641AE408022A80464FEA61
:109A080004440FD1C6F804331120FFF7F5FA394A98
:109A18003949034644F00200FDF718F8112003B055
:109A2800BDE8F0832B7C012B2FD1EB6844F00204B6
:109A380053B10223C6F804331120FFF7DDFA2D4A8B
:109A48002D4903462046E7E795F82E30E8602F8336
:109A580063B92A4A1368002BFCD04FF48070FFF7D3
:109A68000DFE204BC3F82C86C3F830761D4B02221E
:109A7800C3F804230020FFF7BFFA1E4A1E49034615
:109A88002046FCF7E3FF0020C9E70223C6F80433A9
:109A98000023EB6044F0030495F82D3068600093D0
:109AA8004FF001093B46134A154985F810902046A6
:109AB8002F81FCF7D5FF95F82E303BB195F82D3066
:109AC8006F83C6F82C86C6F83036D3E7C6F82C86DE
:109AD8004FF48070C6F83076FFF7D0FDC6F80090D6
:109AE800C8E700BF007000400C2C0020F0EA02001C
:109AF800C8EA020051F40200BAF402000071004002
:109B08006BF40200034B187810B901221A707047E1
:109B1800852070473C2C00202DE9F74F4FF0000BB3
:109B2800DFF8A0A0214F80460425D9465FFA8BF6BE
:109B380001240DF10700B4408DF80790FDF7D0FB24
:109B480014EA0A0F08D03B6814EA030201BF234352
:109B58003B6088F8006015469DF80700FDF7E4FBB8
:109B6800EDB91348134B1449C01AC0080004324613
:109B780040F00300FCF760FF2846FFF73DFA0C4C65
:109B88000C4B0E4A0E49E41AE4082404034644F038
:109B98000300FCF75BFF284603B0BDE8F08F3AEA04
:109BA800040A0BF1010BC1D1E6E700BF402C0020ED
:109BB800D8EA0200C8EA020042F50200DEF4020018
:109BC800BAF40200FFFF010037B50B4681B37AB340
:109BD8001849194C0125641A8540E4082404C5F382
:109BE800100144F00304F9B1144909680D421DD06D
:109BF800C50005F1804505F5F8351149C5F810355A
:109C0800C5F81425009202462046FCF729FF0025D6
:109C18002846FFF7F1F90B4A0B4903462046FCF7A3
:109C280015FF284603B030BD0725F1E70825EFE703
:109C38000E25F6E7C8EA0200D8EA0200402C002008
:109C480059F50200F5F40200BAF4020038B50B46E3
:109C5800144C15490125641A8540E4082404C5F309
:109C68001001024644F00304C1B1104909680D42CD
:109C780016D000F511700E4941F820300D492046E4
:109C8800FCF7E4FE00252846FFF7B6F90A4A0B4917
:109C980003462046FCF7DAFE284638BD0725F2E7DA
:109CA8000825F0E7D8EA0200C8EA0200402C0020A4
:109CB80000F0014098F502000DF50200BAF4020028
:109CC80038B5012303FA00F0430C5B04CBB918B193
:109CD8000E4B1B68184216D00D4B0025C3F804051F
:109CE8002846FFF789F90B4C0B4B0C4A0C49E41A30
:109CF800E4082404034644F00300FCF7A7FE2846C2
:109D080038BD0725ECE70825EAE700BF402C00200E
:109D180000F00140D8EA0200C8EA02002AF5020071
:109D2800BAF402000023435082B043580193019BC8
:109D380002B070472DE9F0412D4B47792D4C43F87F
:109D480027202D4B7E00E41AF2192C4B9A5CE4086C
:109D580024049C4662B10820FFF74EF9284A294995
:109D6800034644F00200FCF771FE0820BDE8F081CC
:109D780090F904308D78002BA8BF03F1604EDAB259
:109D88004FEA5313BABF02F00F08DFF87CE00EF574
:109D9800614E4FEA45154FEA8303EDB203F1604384
:109DA800B4BF0EF808508EF8005303F5614301253F
:109DB80002F01F0205FA02F2C3F880211A60036854
:109DC8000A88C3F808253E440CEB06030A795A7042
:109DD800CA789A700CF806500020FFF70DF9084A67
:109DE8000849034644F00300FCF730FE0020BDE7B5
:109DF800482C0020E8EA0200C8EA0200442C0020AF
:109E0800CBF50200BAF4020014ED00E00368012269
:109E18001A604379074A084803EB43030221D154E7
:109E2800064B0749C01AC008000440F00300FCF7BD
:109E3800FFBD00BF442C0020E8EA0200C8EA020087
:109E48001FF602002DE9F74F06464FF480380068E8
:109E5800324C334D08FA01F8C0F84883C0F808833B
:109E680096F805A04FEA4A090F4609EB0A01214472
:109E780022F07F4291F801B007F5A871A64640F894
:109E88002120284CBBF1000F22D0D0F804C5ACEB40
:109E98000201624509EB0A0CF44488BF01F1FF1185
:109EA8009CF802C088BF01F57F41614510DA0D209A
:109EB800FFF7A2F8641BE408240403461A4A1B4966
:109EC80044F00200FCF7C2FD0D2003B0BDE8F08F9E
:109ED80043B107F15001890089B2FFF723FF3368C6
:109EE800C3F804833368641BC3F84483E4087179B6
:109EF8000092240444F003040A463B460C492046D9
:109F0800FCF7AEFD0020FFF777F8074A074903463C
:109F18002046FCF79BFD0020D7E700BF442C00201B
:109F2800C8EA0200E8EA0200D9F50200BAF4020021
:109F3800E9F502002DE9F041234EDFF89480234F24
:109F480000254FF48034D6F8043305F15001890018
:109F5800234289B20ED005EB08039B001B684BB166
:109F6800C6F848433046C6F80843FFF7DBFE3B68AF
:109F7800E8B298470135042D4FEA4404E3D1124C66
:109F8800D4F80433DA070BD5D4F8003143B12046AE
:109F98004FF48071FFF7C6FE0C4B28461B689847A4
:109FA800D4F804339B070DD5D4F8043153B10648CF
:109FB8004FF48271FFF7B6FE044B05201B68BDE81D
:109FC800F0411847BDE8F08100400240482C0020CD
:109FD80050900010032812D8012A0BD1012908D16A
:109FE80000F10E02D2B200EB40000C4B1A540020D4
:109FF800704700220129F6D009D3022901D0072091
:10A008007047064B00EB400018444270EFE7034BE3
:10A0180000EB400018448270E9E700BF4C2C002098
:10A0280008B5012202210020FFF7D4FF08B1072854
:10A0380010D1072202210120FFF7CCFF08B1072821
:10A0480008D100210A220846FFF7C4FF10B10728EB
:10A0580008BF002008BD00000388102B10B502D0EF
:10A06800112B1ED010BD1A4C2168B1B90122084627
:10A07800FFF7B0FF08B1072824D1072202210120E9
:10A08800FFF7A8FF08B107281CD1042202210020ED
:10A09800FFF7A0FF08B1072814D123680133236014
:10A0A800E0E70B4A1368013B1360002BDAD1FFF796
:10A0B800B7FF0028D6D0074B1B68002BD2D0BDE8CD
:10A0C80010401847034B1B68002BE6D09847E4E77D
:10A0D8005C2C0020582C002008B5FDF76BF818B14F
:10A0E800BDE80840FCF714BE08BD08B54FF40041B0
:10A0F8000020FCF7D7FA08B1FCF70AFEBDE80840D3
:10A10800FCF708BA08B5FEF7DDFE18B1BDE808404F
:10A11800FCF7FEBD08BD08B5FFF7E7FFFFF7F2FF44
:10A12800FFF7DAFF00F03AFA00F0DAF900F000FA87
:10A1380000F08AFB00F0A6FA00F008FA00F048FAEE
:10A1480000F058F800F088F8002000F095FA00F0C8
:10A15800CFF84FF0A0430322C3F81C278022C3F88E
:10A168000C25FEF7D5FEFCE77047000030B51B4B09
:10A178001B4C1C49E41AE4082404054644F0030473
:10A1880085B02046FCF754FC2B7823BB0121686876
:10A19800FFF726FC08B1FCF7BBFD6B681249B3F961
:10A1A800002004AD2046114C25F8022DFCF744FC94
:10A1B800A068636800902A460221204600F05CFBF4
:10A1C8000B4A20691368013313600421E368009087
:10A1D800204600F051FB05B030BD00BFC8EA0200C0
:10A1E800F8EA020048F602001AFF0200602C00207C
:10A1F8007C2C00201FB5134A10685168127A01ABF5
:10A2080003C3114911481A70FFF7F6FA08B1FCF7B1
:10A218007FFD01A90020FFF753FB08B1FCF778FD8B
:10A2280001210B48FFF7DCFB08B1FCF771FD0121A8
:10A238000848FFF7D5FB08B1FCF76AFD05B05DF8E3
:10A2480004FB00BF2CF6020075A102003CF60200D8
:10A25800742C0020762C002037B5FFF753FC08B18A
:10A26800FCF756FD1C4B1D4A18689B880090ADF8FA
:10A278000430694640F6FF731948ADF80030FFF71F
:10A2880059FD08B1FCF744FD0023082202211448B7
:10A29800FFF7D8FD08B1FCF73BFD1148FFF7B6FD05
:10A2A800FFF790FB05460F48FFF736FC08B1FCF7AF
:10A2B8002FFD0C4C0C4920782A46FFF785FC08B185
:10A2C800FCF726FD09492078FFF7C0FC08B1FCF728
:10A2D8001FFD03B030BD00BF36F6020071A10200B9
:10A2E80040F60200782C0020484102400840024015
:10A2F80008B5054B1878FFF7E3FC18B1BDE808402E
:10A30800FCF706BD08BD00BF782C002076DF70473B
:10A318007ADF70477CDF70478FDF7047A8DF7047B0
:10A32800AADF7047AEDF704762DF70470388102BE3
:10A3380002D0112B03D0704783880B8070474FF6EB
:10A34800FF73FAE7FCF7E4BC0388212B13B5044636
:10A358002FD005D8102B17D0112B0AD002B010BD62
:10A368003B2B01D0562BF9D11321A088FFF7CEFF44
:10A378001AE0144B14481549C01AC008000440F0EC
:10A388000300FCF755FBE9E70E4B0F481049C01ACC
:10A39800C008000440F00300FCF74AFB0D4BA188FD
:10A3A8000D48198002F078F90028D7D0FCF7B0FCE6
:10A3B800D4E702A9002321F8043D8088FFF7ACFF09
:10A3C800F2E700BFC8EA0200F8EA020067F60200F6
:10A3D80075F6020084220020EC2E002008B50378D0
:10A3E8004BB9054B3B211888FFF790FF18B1BDE822
:10A3F8000840FCF78DBC08BD84220020032809D141
:10A408000548064B0649C01AC008000440F003007E
:10A41800FCF70EBB704700BFF8EA0200C8EA02006A
:10A428009FF6020008B50321044800F00EFE18B19B
:10A43800BDE80840FCF76CBC08BD00BF802C0020BC
:10A4480030B5037885B004460D2B12D8DFE803F049
:10A458000711131125112D3C1138113C353C1B48AF
:10A468001B4B1C49C01AC008000440F00300FCF74D
:10A47800DFFA05B030BD4088144D01F00FF9144AD9
:10A4880063881549AD1AED08227A00922D04024618
:10A4980045F00300FCF7E4FAEBE704A9002301F810
:10A4A800043D408802F06CFFE3E7FDF7CDFD30F096
:10A4B8000803DED0FCF72CFCDBE7FFF7B3FFD8E797
:10A4C80000690028D5D0F5E78068FAE7F8EA0200C5
:10A4D800C8EA0200B1F60200DAF60200FCF718BC7E
:10A4E8001FB504AC1123104804F80C3D04F069FAB8
:10A4F8000D4982B22046FFF70DFF08B1FCF708FCB2
:10A5080008220DEB0200002104F006FA074A4FF07A
:10A51800C87302A8CDE90223FFF7FAFE08B1FCF7D9
:10A52800F7FB04B010BD00BF8DF602005000A0007C
:10A5380008B50021044801F09DFF18B1BDE80840A6
:10A54800FCF7E6BB08BD00BFD82E002000B589B0D7
:10A558001C22002101A804F0DFF900234FF4203267
:10A56800CDE90132ADF812304FF470228DF8143075
:10A57800084B039206930322074B8DF8102001A87D
:10A58800079300F0A9FF08B1FCF7C2FB09B05DF81A
:10A5980004FB00BFE5A30200E5A4020013B503F025
:10A5A8001DFF08B1FCF7B4FB02AC002344F8043DDE
:10A5B8000120214603F0D8FF08B1FCF7A9FB20468B
:10A5C80004F084F808B1FCF7A3FB02B010BD00004A
:10A5D80007B502F031FE08B1FCF79AFB052200210D
:10A5E800684604F099F99DF8003043F0010303220E
:10A5F80003F0F10362F306136FF3C7138DF800300D
:10A6080007238DF8013010238DF802309DF80330B0
:10A6180013438DF803309DF80430684613438DF8D2
:10A62800043002F0A3FE08B1FCF772FB044802F004
:10A6380085FE08B1FCF76CFB03B05DF804FB00BFB6
:10A6480049A4020008B50948094B0A49C01AC008BC
:10A65800000440F00300FCF7EBF902F09FFE18B18C
:10A66800BDE80840FCF754BB08BD00BFF8EA02008B
:10A67800C8EA020080F6020008B1FFF7E3BFFFF75F
:10A68800D1BE000000B5ADB0AC22002101A804F095
:10A6980043F9022306228DF804308DF807200123A0
:10A6A8000E4A8DF80630ADF8503015928DF880308E
:10A6B8004FF4C86244F25063CDE9232301A9084B43
:10A6C80008482A9300F042FC08B1FCF721FB01215D
:10A6D800044800F038FC2DB05DF804FB802200200F
:10A6E80005A40200802C00202DE9F0431F4695B0F8
:10A6F800324B154604AA06468E4603F110089446C6
:10A7080018685968144603C4083343452246F7D1EC
:10A718000DF10E016046ADF80CE0FFF705FE08B13B
:10A72800FCF7F6FA1C2200210DA804F0F5F89DF8B4
:10A73800343001AC43F00A030322002120468DF88F
:10A74800343004F0E9F89DF8063012944FF001090E
:10A7580069F342038DF806309DF8343002AC43F0BB
:10A76800100341F211180322002120468DF83430DD
:10A77800ADF8048004F0D0F89DF80A30ADF80880F0
:10A7880069F342031422002108A88DF80A3004F066
:10A79800C3F803ABCDE9083408AA1C9B7088ADF850
:10A7A8002C500DA9ADF828500C97FFF7B9FD08B14A
:10A7B800FCF7AEFA15B0BDE8F08300BF57F602000B
:10A7C800F0B5204B8BB006AA044603F110071646D5
:10A7D80018685968154603C50833BB422A46F7D19D
:10A7E80000230DF112013046ADF81030FFF79CFD43
:10A7F80008B1FCF78DFA22464FF6FF7322F8023BA8
:10A8080004A90120FFF78AFD08B1FCF781FA0AAB19
:10A81800002504F10C0243F8145D2046009242F230
:10A8280022210422FFF760FF0AAB221D23F81C5DDA
:10A8380041F21111009220460222FFF755FF0BB09A
:10A84800F0BD00BF57F6020007B502A9074B41F853
:10A85800043D074801F00EFF08B1FCF759FA054816
:10A86800FFF7AEFF03B05DF804FB00BF4DA3020085
:10A87800EC2E0020602C002082B030B587B0154641
:10A8880002880B934FF6FF739A420446ADF8061000
:10A8980016D00021102202A804F03EF8BDF82C3092
:10A8A800ADF8083001238DF80A300023ADF80C30DC
:10A8B80002A90DF106032088CDE90435FFF732FD22
:10A8C80007B0BDE8304002B070470369C1688B42E9
:10A8D8009DBF8268D21802F1FF3203F1FF3394BFA3
:10A8E800501A581A70472DE9F041D0E9026704461A
:10A8F800F61B4068964288461546384405D903F049
:10A90800E2FF3D44E560BDE8F0813246AD1B03F04F
:10A91800DAFF2A4608EB0601606803F0D4FFF1E786
:10A928002DE9F843C5680646894617464FF00008E2
:10A938003469B3687068A54228BFE418013C621BFB
:10A948005C1BBC4228BF3C46944228BF144649467B
:10A958002844224603F0B7FFB3682544AB4208BF3A
:10A9680000253F1BA044A144F560E1D14046BDE865
:10A97800F883000010B5114C114AA2610223C4E902
:10A988000433104BE361A2644FF400730E4A236250
:10A99800E264002310220D49A362E01D6362E362B2
:10A9A800A3656365E365226503F0E9FF084920466E
:10A9B80003F0E5FF2023A37110BD00BFF82E00208F
:10A9C8001AF70200802F0020702F002023F70200C2
:10A9D80027F70200F8B5184C182300FB033503FBD2
:10A9E80000402544C46A012C0F46164611D003D3F3
:10A9F800022C1BD000240AE02846FFF766FF864297
:10AA080005D8324639462846FFF76DFF34462046BA
:10AA1800F8BD2846FFF759FF8642344628BF04464A
:10AA2800224639462846FFF75EFFF0E72846BDE88C
:10AA3800F840FFF775BF00BFF82E0020FFF79ABF58
:10AA48006DDF704779DF70477DDF704764DF7047DF
:10AA58002DE9F74F0C9CBDF834B0278800258046B7
:10AA68008A4691462E46B8F80020B2420BDC35B132
:10AA78002288013AD21B92B2FF2A39D8DA5500202F
:10AA880003B0BDE8F08FD8F8042052F826000190F2
:10AA980000220DF1030101A8FFF7D8FF0028EFD12C
:10AAA8009DF803204A4521D12288002D14BF00209B
:10AAB800022002EB09010144594519DC3DB9013274
:10AAC80092B2228003F802A02288013222802288D2
:10AAD8000DF103011A4401A8FFF7B8FF0028CFD1F0
:10AAE80021889DF803200A44228001250136BAE70F
:10AAF8000C20C5E72DE9F341089CBDF82450174602
:10AB0800CDE9004502220646FFF7A2FF48B9102208
:10AB180039463046CDE9084502B0BDE8F041FFF7B7
:10AB280097BF02B0BDE8F0812DE9F04F00231688E9
:10AB3800138090F82D3085B007460D46144653B360
:10AB4800082E01D80C2026E102A8FFF779FF00287B
:10AB580040F0218113880822CA54238801339BB20C
:10AB68001B222380CA542088013080B2208006220C
:10AB78000DF10901284403F0A6FE23889DF808205A
:10AB880006339BB212F0FE0218BF01222380EA545A
:10AB9800238801332380BB78FBB123880433B34275
:10ABA800D0D802A8FFF74EFF002840F0F480238891
:10ABB8000322EA54238801339BB219222380EA54E2
:10ABC8002388BDF8082001339BB2E9182380EA5492
:10ABD800120A4A70238802332380FA789AB12388AC
:10ABE800D91CB142AED80221E954238801339BB263
:10ABF80001212380E95423880B449BB22380EA5423
:10AC080023880B4423807A68AAB12388D91CB142CF
:10AC180098D8022192F90020E954238801339BB285
:10AC28000A212380E954238801339BB22380EA5404
:10AC38002388013323803B89002B40F0A0803B8A86
:10AC48005BB1CDE900462B460722032107F110002E
:10AC5800FFF750FF002840F09E803B8B5BB1CDE9A9
:10AC680000462B461522142107F11800FFF742FF72
:10AC7800002840F090803A6A002A40F08F80D7F888
:10AC88002480B8F1000F30D0B8F804302188981C1F
:10AC98008A1C0244B2423FF655AFFE283FF652AF37
:10ACA80003336B54238801339BB2FF222380EA5479
:10ACB800238801339BB22380B8F80020EA54E918AE
:10ACC800120A4A702088023080B22080B8F8042026
:10ACD8005AB1D8F8081000296AD0284403F0F3FDC7
:10ACE8002388B8F804201344238097F82C30002BCD
:10ACF80040F09980387800284DD03B88012B57D0F8
:10AD080021888A1CB2423FF61DAF012805D17B7805
:10AD180002330B449E42FFF415AF023E761A04A993
:10AD2800B6B221F8086DA818FFF78EFE98BB3978DF
:10AD3800BDF80820022900F0BB807B78934202D33B
:10AD4800B24240F2B380012940F0B4809BB29E42E7
:10AD5800C0F0B080ADF808300821BDF80830FE2BEF
:10AD68003FF6F0AE22880133AB542288013292B20A
:10AD78002280A95422881344238000200BE0CDE9C7
:10AD880000462B460622022107F10800FFF7B2FE13
:10AD980000283FF454AF05B0BDE8F08FB4F800C008
:10ADA8000CF10603B3423FF6CDAE1188052901D850
:10ADB8000720F0E76FF4486E01EB0E039BB24FF2E9
:10ADC8007D3E7345F4D95388052BF1D96FF448605B
:10ADD800181880B27045EBD94FF6FF70814203D046
:10ADE800834201D09942E3D8052305F80C30238823
:10ADF80001339BB212212380E954238801339BB28B
:10AE080023801188E954E818090A4170238802331D
:10AE18009BB223805288EA54E918120A4A702388A0
:10AE2800023323802BE7BB6A002BC1D04FF0000907
:10AE38004FF00C0A4FF0160B97F82C305FFA89F296
:10AE480093427FF657AFB96A0AFB02F201EB020898
:10AE5800B8F80430981CFE283FF674AE20880333F7
:10AE68002B54238801339BB2238005F803B0238831
:10AE780001339BB223808A5AEA54E918120A4A70AD
:10AE88002088023080B22080B8F804205AB1D8F85F
:10AE9800081000298CD0284403F015FD2388B8F841
:10AEA80004201344238009F10109C5E7092154E767
:10AEB800B242FBD9ADF808604EE770B5C0B14AB1EF
:10AEC80016880024B44203D305196D789D4208D032
:10AED800A14201D800200BE0055D01352C44A4B245
:10AEE800F0E7A142F6D9A31C1380005D013880B2B7
:10AEF80070BD37B502AC002324F8023D1346224644
:10AF08000546FFF7DAFF10B1BDF80600284403B084
:10AF180030BD72DF704773DF704738B501220446D1
:10AF28000D46B0F83812D0F83402FFF7E2FF00B14E
:10AF3800057004F13C0204F50D7104F15400BDE8FC
:10AF48003840FFF7E6BF80F830107047F8B5044680
:10AF58000F46002975D0002873D091F87A301BB1BC
:10AF680091F89830002B6ED1D7F8A030042B6AD016
:10AF7800D7F89C30042B66D007F178060FCE4FF037
:10AF8800000C251D84F802C00FC50FCE0FC596E82A
:10AF9800070085E8070084F830C0D7F8A430636359
:10AFA800D7F8A830A3634FF6FF7504F50D73C4F8FE
:10AFB8004432A4F848520722614604F24A2003F0BA
:10AFC800ABFC23780BB984F8545094F8243004F17E
:10AFD8005501C4F8341283B3EE23A4F8383204F5CB
:10AFE8000E723846FFF7A0FD30BB94F8243004F207
:10AFF800431107F13C00C4F83C1203B3EE23A4F854
:10B00800403204F51072FFF78FFDA8B9A269A4F8C1
:10B01800482001236269206484F850006264014674
:10B0280084F8513084F83C3004F13C0204F15400B7
:10B03800FFF76FFF00B92370F8BD1F23CDE71F236B
:10B04800DDE70E20F8E70720F6E7F8B507780446AD
:10B058000D46002F00F0058100F24A26A170072254
:10B068000021304603F058FCE38813B1A378012B84
:10B0780004D0E3794BB1A378022B06D1636BA3B15B
:10B08800012284F8512208209847334604F51471A8
:10B0980013F8012F12B99942FAD117466B1E032BE8
:10B0A80053D8DFE803F0050B0F1284F85132ECE7B0
:10B0B800A3791BB194F8243003B95FB9E3790BB1D4
:10B0C800002F44D1237A002B43D1637A002B0CBF85
:10B0D80000250425636BA570002B3CD0033D012D92
:10B0E80039D86279002A36D094F85222002A32D10F
:10B0F80084F85422012284F853220720984704F147
:10B108003C0518220021284603F006FCE36A94F85F
:10B1180024200121581E884288BF0B4684F83C1021
:10B1280084F8513032B1884296BFA36A84F852102D
:10B1380084F85230A178002384F8503004291BD8B1
:10B14800DFE801F0770D223559000025C2E7022516
:10B15800C0E70325BEE7002384F85332CFE7C4F8DD
:10B168004432C4E910630223012284F83C3080236E
:10B1780084F83120A4F84830A378002B5CD1636BA5
:10B18800002B6AD1002067E0022384F8313062B1D5
:10B19800072384F83C302369A4F848300023C4F816
:10B1A8004432E36826646364E6E70323F1E76369EE
:10B1B8006364A369A4F8483012B1062384F83C30CC
:10B1C8006379B3B194F852329BB994F8543283B18D
:10B1D800022384F8503004212046FFF79EFE002801
:10B1E800CAD1052384F8313004F50D73C4F844320C
:10B1F800C2E70323F6E7E3696364236AA4F84830E7
:10B2080012B1062384F83C30637983B194F8523242
:10B218006BB994F8543253B1022384F850300421A6
:10B228002046FFF77AFE0028A6D10623DAE7042392
:10B23800D8E784F831309FE72A46D4F8441204F15D
:10B248005400FFF766FE38B994F8301094F85400AB
:10B25800FFF761FE002892D0F8BD94F831009847B6
:10B2680090E70820F8E70388112B10B50C460AD0A0
:10B27800262B1FD0102B05D1C37B012B02D183882D
:10B28800A1F8483210BD0022838881F85222B1F813
:10B2980048229A42F6D10B79002BF3D1012120469E
:10B2A800FFF7D3FE0028EDD0A36B002BEAD0BDE852
:10B2B80010401847037A013B012BE3D8897805230E
:10B2C800013191FBF3F303EB8303C91AC9B2E6E733
:10B2D800704775DF704776DF70477ADF70477BDF2E
:10B2E80070470000034B1A8882420CBF18460020A2
:10B2F800704700BF9C310020024B9B6903B118477F
:10B30800704700BF8031002037B585B22846FFF767
:10B31800E9FF034670B1164C017A227B91420BD2A9
:10B3280000F10A012846FFF7D4FFE8B1112801D03F
:10B33800FFF7E2FF03B030BD237C0022027243B165
:10B348003B212846FFF7C7FF30F0080301D0FFF77D
:10B35800D3FF6369002BEDD000228DF80420ADF8EF
:10B36800065001A89847E5E71A7A01321A72E1E710
:10B378008031002013B50B46497A0F4C024669B953
:10B38800D4E901101C7A002C18BF01465868FBF755
:10B3980053FF08B1FFF7B0FF02B010BD00211972CA
:10B3A8006369002BF8D00121ADF806008DF8041070
:10B3B80001A89847F0E700BF803100208388B3F5E3
:10B3C800FA7F28BF6FF4F97230B528BF9C1805883A
:10B3D8004A8838BF002495420CD84088904209D347
:10B3E8008A88A24206D303F2F310904234BF0020A9
:10B3F800012030BD0020FCE70388112B70B5014601
:10B4080048D002D8102B1ED070BD122B52D0502B12
:10B41800FAD12F4BC288DB899A42F5D1038A022BD5
:10B42800F2D186883046FFF75DFF05460028EBD04D
:10B4380001F1120000F0A8F930BB6868FBF740FF83
:10B448000028E1D009E0C37B012BDDD14FF6FF7066
:10B45800FFF748FF054620B90420BDE87040FFF714
:10B468004BBF1C4A8E880680002303721368C5F8F8
:10B478000A300A30536843601031FFF79FFF144BBE
:10B488006872DB89002BBFD129463046BDE8704081
:10B49800FFF770BF8088FFF725FF04460028B3D068
:10B4A8004068FBF70DFF08B1FFF726FF4FF6FF7363
:10B4B8002380A9E786883046FFF714FF0546002851
:10B4C800A2D008310A30FFF779FF6872DCE700BFC5
:10B4D80080310020B0310020F8B5064650B305464B
:10B4E8000FCD154F3C460FC495E8070084E80700C8
:10B4F8003068124B3B60B8B1FFF7EFFEC8B931684E
:10B508000A681A604A685A600D480E4A4FF6FF7377
:10B5180003800D4B40F8043F0021FBF77BFE002819
:10B5280014BF0320002004E01846FFF7D8FE0028C7
:10B53800EAD0F8BD0E20FCE780310020B0310020B1
:10B548009C31002011B30200B8310020F7B517462E
:10B5580001900E4691B1019C6CB100252C462946FC
:10B5680001A8FCF78EFE18B13946A8B2B0470134DD
:10B578000135142DF3D1204603B0F0BD0C46FAE78F
:10B5880073B50191019C06466CB100252C462946ED
:10B5980001A8FCF776FE18B106EB440301349D8040
:10B5A8000135142DF3D13046346002B070BD00006F
:10B5B8002DE9F04303888488112B8DB0064640D0CE
:10B5C8001A2B43D0102B16D1294DAB680CA8DB439E
:10B5D80040F8303D55F8041FFCF7B4FE009901A867
:10B5E800FFF7CEFF0027019B9F4207D3132C18D9E2
:10B5F8000420FBF78DFB0DB0BDE8F08301AB03EB36
:10B6080047034FF00008B3F8049005EB08004946DB
:10B6180008F10408FCF72BFEB8F1740FF5D10137D7
:10B62800E1E721461348FCF70BFE21461248FCF7D8
:10B6380007FEF37B012BDED010482146FCF700FE05
:10B64800D9E70C482146FCF712FED4E7057A0C48E6
:10B658002D09012D214606D9FCF7F2FD022D2146C0
:10B668000848F0D0EAE7FCF702FE21460548EAE779
:10B67800D8310020E0310020DC310020E431002006
:10B68800E8310020EC3100201328014602D8024896
:10B69800FCF7F7BD00207047DC31002010B50446E8
:10B6A800FFF7F2FF38B121460348FCF7EAFD00280E
:10B6B80014BF0220012010BDE431002010B504465B
:10B6C800FFF7E2FF28B121460248BDE81040FCF729
:10B6D800D8BD10BDE831002008B518210248FCF794
:10B6E800D9FDC0B208BD00BFD831002070B50A4DE1
:10B6F800064628460C46FCF7C4FD58B13046FFF70D
:10B70800C3FF38B1A01D314605EB8000BDE870408D
:10B71800FCF7B7BD002070BDD8310020F8B50D4C3E
:10B72800054620460E461746FCF7ABFD80B1284675
:10B73800FFF7AAFF60B1B01D04EB800029461FB1D6
:10B74800BDE8F840FCF77CBDBDE8F840FCF78FBDCC
:10B75800F8BD00BFD8310020F8B50A4C05460E46A2
:10B76800014620461746FCF78CFD48B1043504EB2A
:10B7780085043A46A0683146BDE8F840FFF7E6BEC2
:10B78800F8BD00BFD8310020007800F001007047F4
:10B79800A0DF704710B50446408800F0C1FCA080C7
:10B7A8002046BDE8104001F043BD30B587B00546DE
:10B7B8000C4618220021684603F0AEF807236846B5
:10B7C8008DF80030ADF802500294FFF7E3FF07B0A0
:10B7D80030BD000070B586B00546182200216846C5
:10B7E80003F09AF84FF6FF739D42ADF8025029D046
:10B7F800284600F083FB0B2804462CD014D818B335
:10B808002046FDF7F9FB1B4E1B4B1C49F61AF608A0
:10B81800360402462B4646F00100FBF717F921468D
:10B828002846FFF7C2FF05E0112805D043F20203BE
:10B838009842E5D1002200E00122114B28461978F0
:10B84800FFF76CFF06B070BD0E238DF80030684618
:10B85800FFF7A0FFEEE70F238DF800300548064BF1
:10B868000849C01AC00800042A4640F00200FBF745
:10B87800E3F8ECE738EB0200C8EA02004BF90200F3
:10B8880055320020CBF80200FFF7A4BF024B034952
:10B8980018780022FFF760BF57320020DDB8020099
:10B8A80013B5042204460021684603F035F842F631
:10B8B800A623ADF8003001238DF80230044B186838
:10B8C800019001AA69462046FFF762FF02B010BD49
:10B8D8002EF702002DE9F0412D4D86B02978044657
:10B8E800FFF704FFA8460746002849D1204600F084
:10B8F80069FB0828054632D016D808B306282ED08A
:10B908002846FDF779FB234E234B2449F61AF608FF
:10B9180036040246234646F00100FBF797F829460D
:10B928002046FFF742FF09E043F20203984205D0A0
:10B9380043F20143984226D01128E1D1012214E0B4
:10B9480039461822684602F0E7FF102368468DF84A
:10B958000030ADF802400127FFF71CFFEEE7204654
:10B9680000F0DEFB00F05AFB00220D4B2046197850
:10B97800FFF7D4FE3A4698F800102046FFF7CEFEAF
:10B9880006B0BDE8F0812046FFF724FFD6E700BFE8
:10B998005832002038EB0200C8EA02009CF9020085
:10B9A8005732002013B5044600F0BAFB00236A465C
:10B9B800092101F00FF8052805D1044B0122197857
:10B9C8002046FFF7ABFE02B010BD00BF5432002086
:10B9D80008B5084B084918780022FFF7BDFE024653
:10B9E80030B9064B06491878BDE80840FFF7B4BEE1
:10B9F80008BD00BF563200200DBA020054320020A4
:10BA0800A9B8020070B5012186B006462A48FCF79D
:10BA18006EFC0446BFF35F8F80BB304600F012FA1D
:10BA2800112805462CD015D8E0B12846FDF7E4FAD0
:10BA3800224C234B2349E41AE408240402463346E3
:10BA480044F00100FBF702F829463046FFF7ADFE47
:10BA5800002405E0862815D043F202039842E4D179
:10BA6800224601E001240246174B30461978FFF7B9
:10BA780055FE1CB9BFF35F8F0F4B1C6006B070BD3D
:10BA88000122F1E721461822684602F045FF062305
:10BA98008DF8003009480A4B0C49ADF80260C01A0D
:10BAA800C0080004324640F00200FAF7C5FF6846B5
:10BAB800FFF770FED4E700BF5032002038EB0200D9
:10BAC800C8EA020071F70200563200203CF7020073
