:020000022000DC
:106000000000012079630200616302006363020003
:10601000656302006763020069630200000000001C
:106020000000000000000000000000006B630200A0
:106030006D630200000000006F63020071630200E4
:10604000FD95020073630200099802007363020069
:1060500073630200736302008D96020019A10200AF
:1060600041A7020051A7020073630200736302009C
:1060700073630200736302007363020073630200C0
:1060800073630200616F02007363020073630200B6
:10609000FD6F0200736302007DED02007363020076
:1060A0007363020073630200736302007363020090
:1060B0007363020073630200000000000000000030
:1060C0007363020073630200736302007363020070
:1060D0007363020073630200736302000000000038
:1060E00000000000000000000000000000000000B0
:1060F00000000000000000000000000000000000A0
:10610000000000000000000000000000000000008F
:10611000000000000000000000000000000000007F
:10612000000000000000000000000000000000006F
:10613000000000000000000000000000000000005F
:10614000000000000000000000000000000000004F
:10615000000000000000000000000000000000003F
:10616000000000000000000000000000000000002F
:10617000000000000000000000000000000000001F
:10618000000000000000000000000000000000000F
:1061900000000000000000000000000000000000FF
:1061A00000000000000000000000000000000000EF
:1061B00000000000000000000000000000000000DF
:1061C00000000000000000000000000000000000CF
:1061D00000000000000000000000000000000000BF
:1061E00000000000000000000000000000000000AF
:1061F000000000000000000000000000000000009F
:10620000364937480A1A02D0072291438D4635494C
:1062100035480A1A06D00722914381F309880222E1
:1062200082F3148831483249324A00F045F8324846
:106230003249334A00F040F832483349334A00F0DB
:106240003BF833483349344A00F036F83348344990
:10625000344A00F031F834483449354A00F02CF81B
:1062600034483549354A00F027F835483549002289
:1062700000F02DF834483549002200F028F8344861
:106280003449091A082903DB002202600430016046
:10629000314A90471F482049884205D0026804309F
:1062A00003B4904703BCF7E700208646EC46002085
:1062B00000212A4A9047FEE7884207D0521A05D0AB
:1062C000037801300B700131013AF9D170478842EF
:1062D00002D002700130FAE7704700000000012090
:1062E00000C0002000000120000001206C1303000A
:1062F00074220020C0220020D8630200D86302006C
:1063000096F202006C130300742200207422002015
:1063100030F4020030F4020030F4020030F40200E5
:1063200030F4020030F4020030F4020030F40200D5
:106330006C130300B8130300C0220020C022002009
:10634000C0220020383600203836002038360020A1
:106350003836002038760020A16302008DA90200A3
:10636000FEE7FEE7FEE7FEE7FEE7FEE7FEE7FEE705
:10637000FEE7FEE7704700BF1048804710484FF027
:106380000701884385460F4880470F48016841F45C
:1063900070010160BFF34F8FBFF36F8FFFF730BF06
:1063A0000A480B490B4A884207D0521A05D0037895
:1063B00001300B700131013AF9D170477563020069
:1063C000000001203591020088ED00E01CF402007D
:0863D00060220020742200206D
:1063D8007047000007B5044B0093044A402300F0BF
:1063E80032F803B05DF804FBF9630200C122002013
:1063F8002DE9F84389461446B2B10F4B0F4E0325D9
:10640800002743F00108224609EB0701002004F0A9
:1064180017FF0744241A48B933782BB14FF47A4050
:10642800C047013D02D13570BDE8F88301233370C0
:10643800002CE8D1F8E700BF30F40200C0220020A9
:10644800704704F031BFF0B595B01C4616460846B3
:106458000D4602F081FD1A9B0D93CDE908640024D6
:106468002346082205A928460A948DF82C400C9446
:1064780002F090FD079B0293BDF81830ADF80C3080
:10648800BDF81A30ADF80E309DF814308DF8114073
:1064980003F00302012A1DD1BDF81440059EC3F381
:1064A800C203C4F383148DF81030A20008230EA988
:1064B800284602F06FFDC6F3952608AB00932246E6
:1064C80002AB0EA9304600F0DFFB284602F048FD7B
:1064D80015B0F0BD022AF8D1BDF81640C3F3C203C7
:1064E800A4098DF810300827082C264628BF08264E
:1064F8003B4632460EA9284602F04CFDA41B08ABC9
:1065080002AA31460EA8374400F022FC002CEBD139
:10651800DBE7704707B5044B0093044A4023FFF7B5
:1065280092FF03B05DF804FB7965020002230020A6
:1065380030B50C4D0FCD89B06C460FC495E80F00EF
:1065480084E80F0008A9062341F8203D00220648E8
:1065580002F0DAFF08B100F051FC044B00221A7077
:1065680009B030BD44F40200742200200123002049
:1065780038B50D4B0D4D002018700D4804782D5D71
:10658800D2B21C4665B1043003F072FD08B100F0C8
:1065980035FC084B1A7812B12378002BFBD038BD94
:1065A8000C3003F05FFBF1E742230020042C0020AD
:1065B800742200200123002008B50848084A0378FF
:1065C800D35C33B1043003F0EFFCBDE80840FFF7BB
:1065D800AFBF0C3003F0E2FAF7E700BF74220020E7
:1065E800042C0020FFF7A4BF38B50A4DFFF729FF98
:1065F8000421284600F0B6FA074B01245C71FFF726
:10660800F1FF042105F1100000F0ACFA034B5C71B6
:1066180038BD00BFFCF30200882200209022002031
:10662800037813F0040216D003F00303012B03D000
:10663800022B09D0012070470A6800880232C0F393
:10664800831002440A60F5E70B684288023303EBC3
:1066580092130B60EEE71046704700002DE9F04FEB
:1066680089B00546861C08A8484C019200230F46AD
:1066780000F8113D00F0AAFE23683B60D4E901232D
:106688001344226801339B1A04F21C4704F5836AF9
:1066980004F21448B3421AD3019A0023002A6DD099
:1066A800012262F3010343F0040365F389132168AF
:1066B800A2689DF80F000A4003320E4444F82230C5
:1066C800266000F0A7FE012009B0BDE8F08F012187
:1066D800384601F0C3FE504601F0D9FE404601F0AD
:1066E800D6FE0DF120096068D4F808B049F8100DFD
:1066F80000EA0B00033004EB80004946FFF790FFE7
:10670800049BB0B90BEA030204EB8202D16805913D
:106718009A1C013303EA0B0B04EB8B0C01F0030307
:10672800012B0492DCF80CB020D0022B04D0834655
:106738000BE00BEA0300DDE7BDF816309B090333D5
:106748004FEA1B4B02EB93030493404601F0A2FE71
:1067580008B1049B63605946384601F07FFED4E9CE
:1067680001231344226801339B1A93E7BDF81430C0
:10677800C3F383134FEA1B4B1344E5E7022262F38A
:10678800010343F0040365F39F5390E714240020AA
:106798000B4B0C48FF2210B59A600022C3F818244E
:1067A800C3E90022C3F81424012283F8202402F04C
:1067B8008CFB044610B9044802F036FC204610BD94
:1067C8001424002020F3020094F4020030B50A4C8F
:1067D80071B10A4A0A49121BD20800239A4201D110
:1067E800002030BD31F82350854202D00133F5E74F
:1067F800034654F83300F4E734F30200FCF30200D4
:1068080074220020094B013903EBC000032909D881
:10681800DFE801F00A020406042070470079704797
:1068280040797047002070470220704734F3020017
:10683800034BD3E90030C31A58425841704700BF90
:10684800142400202DE9F04387B0FFF7F1FF064636
:10685800002840F0FC807F4DC5F81804BFF34F8F27
:106868006868AC6806AF47F8100D2040033005EBA8
:1068780080003946FFF7D4FE029B18B1D5F81824DA
:10688800002A5FD004EA0302991C013305EB820257
:10689800234005EB8303D268DB68049302F003030B
:1068A800022B0392029162D1BDF80E306A484FEA7A
:1068B8009318B8F1500FC14628BF4FF0500969F33B
:1068C8008F1309F10801ADF80E3002F016FB0746E8
:1068D800002800F0A78002F03FFB03A9002308224C
:1068E800384602F04CFB029924EA01060136B6004C
:1068F800B14535D95FFA89F97EB3F6B2A9EB060935
:10690800214003315FFA89F4B146544E05EB810109
:1069180008234A46384602F032FB36B109F108032B
:1069280022463146384602F02AFB029B08F103084A
:1069380003EB98030293D5F81834002B4BD1D5F804
:1069480010445BE02A689A4204D86A60304607B06F
:10695800BDE8F08304EA030088E740493446D7E7F6
:106968002140033108234A4605EB8101DAE7012B70
:1069780058D1BDF80C303848C3F38311062928BF15
:10698800062161F3891302318900ADF80C3002F059
:10699800B4FA0746002845D002F0DEFA00230822A0
:1069A80003A9384602F0EBFA0026BDF80C20C2F322
:1069B8008312B31C96424FEA8303BCD202994A1C45
:1069C80021400331029205EB81010422384602F08E
:1069D800D6FA0136E9E7384602F0C2FAFFF728FF8F
:1069E80080F00100C6B2B1E7E3685B7923B12368A0
:1069F80039461B6820469847E3681C68002CF3D189
:106A0800384602F0ADFA06A800F8114D00F0DEFC99
:106A1800D5F818340BB9029B6B609DF8070000F09D
:106A2800F9FCDBE7D5F8104454B90D4B0D480E4975
:106A3800C01AC008000440F0020000F06FF8CDE76B
:106A4800236820469B689847E3681C68ECE70026A3
:106A58007CE700BF1424002020F30200202400203B
:106A680034F3020074F30200A0F402002DE9F74F9A
:106A7800284C80460F46924601A9012218469B469B
:106A8800D4F80890FFF7EAFD88B3019D0026A91CF9
:106A98005E4506EB010234D100211F4801F09DFC40
:106AA80080F310006A1C02EA090204EB8202000467
:106AB80005EA0903033340EA1840D06014F823209C
:106AC80068F3C50204F8232034F8232066F38912FA
:106AD80024F8232054F82320012167F39F2244F847
:106AE800232061F301026FF3820204F8232094F853
:106AF80020341BB1FFF7A6FE0028FBD103B0BDE888
:106B0800F08F09EA020204EB82025AF82630D360B9
:106B18000136BDE7142400203028002000231A463F
:106B2800FFF7A4BF13B502AC012344F8042D224695
:106B3800FFF79CFF02B010BD07B5CDE90023022383
:106B48006A46FFF793FF03B05DF804FB1FB5CDE974
:106B58000123069B039301AA0323FFF787FF05B0D0
:106B68005DF804FB30B50F49D1F810240023144612
:106B78003CB9C468237152B9C1F8100422601846A0
:106B880030BDE46825799D4206D02468F0E7D268D4
:106B9800116821601060F2E701330A2BE7D14FF04A
:106BA800FF33ECE714240020094A38B50123D2F852
:106BB800104482F820341D4604B938BDE3685D717D
:106BC800236820465B689847E3681C68F4E700BFC1
:106BD80014240020037A052B10B50C460FD0437AF5
:106BE80023B1084A0849204601F0B5FC0749204668
:106BF80001F0B1FC2046BDE8104001F0A1BC002A1C
:106C0800F8D0F3E7EBF40200F0F4020010F502000C
:106C1800C38873B504460D4633B1144A009214492B
:106C2800144A284601F097FC217A05291CD0637A7A
:106C38004BB1A088FFF7E6FD0F4B104953F8202011
:106C4800284601F088FC227A0D4BA08853F8226070
:106C58000021FFF7BBFD0B4903463246284602B028
:106C6800BDE8704001F077BC02B070BDEBF40200E3
:106C7800FBF40200F3F40200B8F40200F0F402009E
:106C880020F5020013F502002DE9F04385B01F46F8
:106C98000C9D002306460C46904695F80C902B73E5
:106CA80029463846FFF7B4FFB8F1060F09D8DFE8E0
:106CB80008F00412181F283340003146284601F016
:106CC8004AFC002229463846FFF784FF85F80C90D5
:106CD80005B0BDE8F08322683146284601F03BFC48
:106CE800EFE7D4E900233146284601F034FCE8E711
:106CF800A36800933146D4E90023284601F02BFC11
:106D0800DFE7E3680193A36800933146D4E90023E1
:106D1800284601F020FCD4E723690293E368019335
:106D2800A36800933146D4E90023284601F013FCF8
:106D3800C7E76369039323690293E3680193A36830
:106D480000933146D4E90023284601F004FCB8E753
:106D580008292DE9F84F80460E4617461C4636D8B6
:106D6800002593F80C901D7319461046FFF750FF45
:106D7800DFF87CA0DFF87CB0AE422AD918F80520ED
:106D88005946204601F0E7FB0135082DF4D1164994
:106D9800DFF864B0204601F0DEFB0025AE421DD9C5
:106DA80018F805A0504608F089F9002814BF524683
:106DB8002E225946204601F0CEFB0135082DEDD193
:106DC800012221463846FFF705FF84F80C90BDE8FC
:106DD800F88F5146204601F0BEFBD5E7034920460F
:106DE80001F0B9FBE9E700BFE6F40200E4F40200B1
:106DF800E2F40200DCF40200E8F402001FB500210E
:106E0800039001AA44F20100CDE9011100F004F851
:106E180005B05DF804FB000010B572B6FFF7C4FEBC
:106E2800FFF710FD0028FBD1104B114C1149E41A53
:106E3800E408240444F00100FFF770FE0E4B1B68C1
:106E4800DB0700D500BE0D4944F00200FFF766FEDF
:106E5800BFF34F8F0A490B4BCA6802F4E062134331
:106E6800CB60BFF34F8F00BFFDE700BF34F30200D4
:106E780074F302007FF50200F0ED00E08BF50200EC
:106E880000ED00E00400FA05094A537891780133CF
:106E9800DBB2994208BF0023117899421FBF0370E3
:106EA8005078182303FB002014BF043000207047DB
:106EB800D028002073B5054602A8002400F8014D2B
:106EC8000E4600F083FA0DF10600FFF7DDFF90B1E2
:106ED80006700A4B9DF8062045605A709DF8070019
:106EE80000F098FA24B9064B4FF48012C3F8002139
:106EF800204602B070BD0424F0E700BFD02800206F
:106F080000E100E0024B4FF43C6043F001031847F6
:106F1800A0F5020038B50C4B0C4C4FF40032C3F806
:106F2800802001254FF48033C4F84833C4F808336F
:106F38006560FFF7E7FF064BA56000241C60FFF7BC
:106F4800E1FF044B1C7038BD00E100E00010014077
:106F5800EC290020DD290020F8B51F4B1F491B68CC
:106F68000025C1F84051C1F84451C1F84851C1F851
:106F78004C51C1F80051C1F804514BB3D1F8044544
:106F880017490968641A24F07F442F461A68A242F8
:106F980009D8A41A15441A7CDE691AB11F74D3E9FA
:106FA80005209047AEB90F4B0F4A197813788B42DA
:106FB80005D10133DBB2022B08BF0023137012780E
:106FC8000A4B43F822500A4B4FF48012C3F80021B1
:106FD800F8BD3346DAE700BFF02900200010014071
:106FE800EC290020E8290020E9290020E0290020D8
:106FF80000E100E02DE9F74F9E4A9F491378097890
:107008009E4D99423CD00133DBB2022B08BF0023CE
:1070180013709B4912789B4B0F6853F822003B185A
:1070280023F07F4300220B602B68164614469446D3
:1070380013B942B12B6006E0196881420ED902B13A
:107048002B60091A19604FF001082B68DFF83CA281
:1070580000930027BEB9DFF83CB260E0401A0C4448
:10706800D968C3F800C0D3F81CE031B13A1922F04E
:107078007F42C3E90121DE611E4601227346D7E73C
:107088000026B046E1E73446F6697D4A636812682F
:10709800DFF804C2A068991A21F07F41614500F227
:1070A800A58001442160012222742A680023C4E9D2
:1070B8000133E361002A40F0A2802C60CAE75A1C21
:1070C8009BF80210D2B291428BF8002004BF002234
:1070D8008BF80020182202FB03B32A6819799C68F0
:1070E800022974D003297ED0012918D1217CB1B995
:1070F800DA6862601A69A2605A699B69A361624B87
:10710800E2601B78002BC0D06160BEE79C4200F0B3
:1071180093809946DB69002BF8D1002323749BF8F0
:1071280000309BF801209A42C9D12B682FB9009AE8
:10713800934202D1B8F1000F43D0002B79D0D3F895
:1071480000A0524D4E4BD5F804751C68DFF84C81F1
:107158003E1B98F8003026F07F4603369BB94FF463
:107168008033C5F84433C5F80433494B4FF4003233
:107178004FF00109C3F880211A60C5F80090FFF7A5
:10718800C1FE88F80090B2452CBF5444A41924F0DD
:107198007F44C5F84045D5F80435DB1B23F07F4311
:1071A800E41B033324F07F44A3420AD9D5F80435FD
:1071B800C5F84035FFF7A6FE354B4FF40032C3F84B
:1071C8000021314B00221A7003B0BDE8F08F13463E
:1071D8009146A0E71174D2690123002AFAD1002B45
:1071E8009DD02A609BE700231946F6E7D31A23F0BF
:1071F8007F43834234BFC31A0023236053E72168C7
:107208001368994213D8591A1160E26155E7091AAF
:10721800D8691A4638B1034618688842F7D3401A25
:107228001860184613462160E061DC6112E71346D6
:10723800F2E7FFF76FFEC4E74C450DD1D3692B6029
:1072480053B90F4801920121CAF8081003600E4B88
:107258001970FFF757FE019AE1692368C9F81C10F5
:1072680011B1086803440B602B689A4218BF0127C4
:1072780053E700BFE8290020E9290020F029002071
:10728800EC290020E0290020DC2900200010014022
:1072980000E100E0D0280020FEFF7F00DD2900206B
:1072A80008B5FFF737FE104B00200B2218809A70A4
:1072B8000E4B18600E4B18700E4B18700E4B4FF497
:1072C8008012C021C3F8802183F814131A6002F1D8
:1072D8008042A2F56F22C2F8080583F81113074B04
:1072E800D2F804251A6008BDD0280020F029002013
:1072F800E8290020E929002000E100E0EC2900202D
:10730800074B9B784BB132B128B10368187C20B980
:1073180059745A617047072070470820704700BFAA
:10732800D02800202DE9F7431D4FBB7805460E46AF
:1073380090469BB390B304292ED9436973B3437C19
:1073480002A80024012B00F8014D0CBF8946A14674
:1073580000F03CF80DF10600FFF796FDD0B10123CF
:107368000370104B4560D3F80435C0E90498C0E9B0
:1073780002369DF806307B709DF8070000F04AF849
:1073880024B9094B4FF48012C3F80021204603B0FA
:10739800BDE8F0830424EFE70724F7E70824F5E7BE
:1073A800D02800200010014000E100E0064A927851
:1073B8003AB130B1426922B1002202740221FFF7CA
:1073C80079BD0820704700BFD028002070B5EFF3C2
:1073D800108672B60C4A946801239CB993600B4BD3
:1073E8000B4DD3F8801029401160C3F88050D3F8B2
:1073F800841051604FF0FF32C3F88420047006B93E
:1074080062B670BD0370FAE7F429002000E100E0DD
:10741800FC06FFBD084B9A6810B55AB150B9EFF396
:10742800108172B6054A1C6814605C6854609860E4
:1074380001B962B610BD00BFF429002000E100E0E8
:1074480070B5064E0546002456F824300BB1284680
:1074580098470134042CF7D170BD00BF0C2A0020D6
:10746800033080B240F2FD33984230B51FD8124B3A
:107478001A783AB91C895D892C440444A4B2B4F53D
:10748800806F0AD31A7DA2B99A8BDC8B22440244FE
:1074980092B2B2F5806F0CD201220A8014461422EF
:1074A80002FB04335A8910445881002030BD09205A
:1074B800FCE70720FAE700BF402A00200B4A0C4BE4
:1074C8005188142000FB0131CB6833B90420496886
:1074D80010700122074801F0C3BA0523064913704A
:1074E80002238B80012200230968F3E7242A002065
:1074F800402A002060220020082B002007B5002326
:1075080005490093054A09680548082301F012FA5D
:1075180003B05DF804FB00BF082B0020B4F502009F
:107528006022002007B50023009301460823034A80
:10753800034801F0FFF903B05DF804FBACF5020065
:107548006022002013B500230C4600930146042353
:10755800074A084801F0EEF938B9074B142202FB34
:1075680004340123237402B010BD0E20FBE700BFD2
:10757800A8F5020060220020402A002037B50A48FA
:107588000A4B42689C8819685388032503330570A1
:107598009BB2002000909B0001EB8401044801F09D
:1075A800C9F903B030BD00BF242A0020082B0020F1
:1075B8006022002010B50146044800F042FE1C225B
:1075C8000446002107F0DEFD204610BDF42A002005
:1075D8004388033300EB8303994209D382884FF62B
:1075E800FF739A4206D00088B0FA80F040097047CD
:1075F80002207047012070472DE9F8430223DFF885
:1076080060800B800D46174600F5805600F108048F
:107618004FF00109B4420FD2236801330CD0314630
:107628002046FFF7D5FF48B10FB187F80090022830
:107638000BD14FF480632B80BDE8F883A368D8F89A
:107648000020934201D9C8F800302B8862880333A0
:1076580013442B806388033304EB8304DAE700BF09
:10766800382A0020144A142303FB002070B50B6845
:1076780044680D4604F580569BB15C88033403EBDF
:107688008404B4420BD22368013308D03146204623
:10769800FFF79EFF012809D005D30228F1D1002069
:1076A80003E00834EDE72C60012070BD63880333E4
:1076B80004EB8304E5E700BF402A0020436873B564
:1076C80005460C466BB3254AD1688B4229D312690B
:1076D800934226D813F0030223D12149008909894E
:1076E80088421ED12868996888421AD11D4948687D
:1076F800834203D900F5805083420ED38A699342AE
:107708000DD902F58052934209D20123238000202B
:10771800B0FA80F0400902B070BD1346F6E70A20BF
:10772800F6E7002323801E462388012B01D9002079
:10773800F1E7019601A92088FFF794FF18B923887B
:1077480001332380F0E7019B2A6899689142F1D1BF
:107758006B60034B1B892B81DDE700BF6022002093
:10776800242A0020402A00202DE9F8431C461E4BFD
:107778001B7806460F461546002B30D0002A30D01D
:107788007CB3DFF86C804FF01409A388012B01D972
:107798000A201AE009FB03F318F80330BBB1A388E9
:1077A8000133A380F1E723681EB19988328891429A
:1077B8000DD11FB119883A88914208D19A68C5E954
:1077C80000230A4B1B892B810020BDE8F883214642
:1077D800A088FFF747FF0028E5D12060DFE70220F7
:1077E800F3E70520F1E700BF1C2A0020242A002027
:1077F800402A002008B5074B191D5888FFF732FFAB
:1078080018B1BDE80840FFF7B9BEBDE80840FFF76A
:1078180055BE00BF242A00202DE9F04FA04FDFF805
:10782800A49289B00646B8463B6823B949469D48A4
:1078380000F041FD3860D8F8005029784B1E052B20
:1078480000F21281DFE813F00600760076000601E8
:1078580006015D0126B1944B00225A60012424E000
:107868002B79032B1DD8DFE803F01502424D8F4911
:107878000B78022B084631D00B7D022B4FF0010309
:107888002ED114225343C2180020C8545068FFF761
:1078980049FE03E001232B71FFF730FE002800F0BA
:1078A800D380814B00225A600E241422002103A8A1
:1078B80007F068FC41F61D539C4208BF0024D8F825
:1078C800003004941A78023A042A00F2D381DFE8DF
:1078D80012F0B401C001E301EB01F2010023D0E78B
:1078E800714A13700023536041F61D54DDE7704957
:1078F8007048002302222B718A800122096801F056
:10790800AFF8CBE76A4C00262E712068674DFFF769
:1079180009FE694BD4F800C05A8814235343EA1867
:10792800EE5451682160A188C2F804C01181022276
:10793800A280B3E7B5F814A0AA7DDFF870B1AEB1A4
:10794800022AEB8806D9142101FB0AB1DA1C08893E
:1079580002440A81142202FB0ABAC3F57F43BAF82B
:107968000A20FD331344AAF80A3077E7142303FBEF
:107978000AB318895C6804EB8004062A05D8DFE896
:1079880002F0264C34421C5866000F24AA7DEB886E
:10799800022A06D9142101FB0AB1DA1C088902441B
:1079A8000A81142202FB0ABAC3F57F43BAF80A20F7
:1079B800FD331344AAF80A3077E7404840490023CA
:1079C8004360AB690360FFF779FE00285AD00223B1
:1079D800AB75002300930423EA182146354800F0CC
:1079E800A9FF002830D00E24D0E72B69002B0CBF4C
:1079F80001230323AB750023009305F10C02042334
:107A080004F10801EAE70123AB750022EB88009234
:107A18009B002A6904F10C01E0E7032914BF06233F
:107A28000523AB7500230093042305F10802E11830
:107A3800D4E70623AB75224B1988204B5868FFF70B
:107A480081FD04460028A1D109B0BDE8F08F41F6B8
:107A58001D549BE7002E7FF401AF2B79012B33D007
:107A680004D3022B3FF440AF0F241EE702232B71EF
:107A78000DF10A01EB68039303A8CDE90466FFF74B
:107A88001DFE08B90A2410E70498BDF80A10838877
:107A9800EB8003882B81FFF755FD044627E000BFE4
:107AA8003C2A0020F42A00201C2A0020402A00201A
:107AB800082B002060220020242A0020002A002011
:107AC800142B0020342A0020DFF808A203AA53460A
:107AD8003146A81DFFF748FE044660B9BAF80410FD
:107AE8000498FFF72FFD04460A2C3FF4FDAE002C46
:107AF8007FF4DBAEA8E708223146504607F042FB88
:107B0800F2E7002E7FF4AAAE6D4B1A7BB2B11E735A
:107B18001A78013A062AA7D801A151F822F000BF25
:107B2800CF7B0200F57B0200137C0200197C020067
:107B3800717A02001F7C0200357C02001A78072A3D
:107B4800E6D801A151F822F0717B0200197B0200EE
:107B5800197B0200977B0200AB7B0200CB7B020003
:107B6800CB7B0200937B02001A89564901321A81A5
:107B780000225A801A730A78B2FA82F252099A726B
:107B88000A7DB2FA82F25209DA72012207E04E49FE
:107B980058688A884088033202448A8002221A7010
:107BA800B6E7484C5A884849142505FB024208683C
:107BB800546850608888108102228A800C600622EE
:107BC800EDE70722EBE79A7A32B9DA7A8AB9002226
:107BD8001A705A805A6087E63A4900229A72CA682F
:107BE800002AF2D1097C0029EFD05A80FFF702FE63
:107BF80053E70022DA72334A116A0029E7D192F872
:107C08002420002AE3D00122EFE7FFF7B7FC44E77E
:107C1800FFF754FC41E706221A702A4A5B881421B0
:107C280001FB03235868FFF77DFC36E707221A702B
:107C380000225A60FFF762FC2FE701228DF80C2022
:107C48001A89ADF818209A88DB68ADF81A200593D0
:107C580010E002228DF80C201A89ADF818209A88B5
:107C6800ADF81A20DA689B7D05929A1F534253415A
:107C78008DF81C3003A8FFF7E3FB0026494613489C
:107C8800C8F8006000F042FB0121114800F0F1FB48
:107C980000287FF4C9ADD7E603228DF80C20DA88D6
:107CA800ADF818201A89CFE70422DB888DF80C205C
:107CB800ADF81830DEE705238DF80C30DAE700BFA1
:107CC800242A0020402A0020082B0020F42A002023
:107CD800042B0020182B00204068FFF79DBD0000F2
:107CE80008B50121044800F0AEFB18B9BDE808400A
:107CF800FFF792BD08BD00BF042B00202DE9F3411A
:107D08009846354B1B7806460D46002B5BD000295C
:107D18005BD009884FF6FF73994258D06B88002BC7
:107D280055D06B689B0754D14AB92F890DF10201D0
:107D38003846FFF795FB30B102B0BDE8F0811388F3
:107D48005788ADF8023001A8FFF734FC044658B94B
:107D5800BDF80230214A142101FB03235889033856
:107D6800C01B58810820E7E700238375BDF802305F
:107D780083826B68036180F800800121184800F055
:107D88006DFB2B882381B8F1030F6B88A38004BF98
:107D98000423A3754FF0000508BF3368E06008BFEF
:107DA800A361E780658101A90E4800F074FA36B135
:107DB800E36833600C4B75601B89B5723381FFF73C
:107DC8008FFF0020B8E70220B6E70520B4E70420BB
:107DD800B2E70320B0E700BF1C2A0020402A002099
:107DE800382A0020F42A0020242A002008B5084B4D
:107DF8001A68042A09D01968064A42F821000121A4
:107E0800184600F02BFB002008BD0C20FCE700BF43
:107E1800102B00200C2A00202DE9F04F89B01422E5
:107E2800002103A807F0AEF97B4A137803F0FF019D
:107E3800009190463BB103A8FFF702FB00263046AD
:107E480009B0BDE8F08F101D00F01EFB05460028A4
:107E5800F4D14FF010234FF080525B6911695269D9
:107E6800DFF8DCA1581C08BF02FB01F3CAF8103088
:107E78000022A3F540536949CAF80C30504600F077
:107E880025FD06460028DAD11C238C226449654862
:107E980000F0A2F93746B3464FF003093446CDF84F
:107EA80004A0019BD9680BEB010002465BF80110A6
:107EB800002835D05C4B994232D141685B4B9942DE
:107EC80015D0013399422BD1009BDFF86CA1002B10
:107ED80059D100225649CAF80000FFF78DFBBAF8BD
:107EE8000420022A14BF0822042217433AE0514909
:107EF8004FF0140C0CFB04FC01EB0C024FF0000ECD
:107F080001F80CE050600CF110020CF1080C0A4466
:107F18006144FFF771FB47F002070134A4B221E086
:107F280000F5805C1168013167D104329445F9D1BC
:107F3800414A116829B902210123106091800093F8
:107F48000EE0142262433B4B4FF0020E991803F8DF
:107F580002E03A4A486054800134A1F808E0A4B22B
:107F680047F001070BF5805BBBF5405F99D1B9F18C
:107F7800010F88BF3D46EDB2022D02D0062D12D06A
:107F8800DDB90B265BE72B4B1422624399184FF09F
:107F9800020C03F802C00134DAF800204A60A1F8A4
:107FA80008C0A4B295E7012388F8003003A800238D
:107FB800C8F80430FFF744FA41E702A8FFF7FAFAD5
:107FC800C8B10123013D03700A2D09D8DFE805F087
:107FD80006080608070807080F110F000023037199
:107FE80002A9104800F057F9FFF77AFE27E70323A4
:107FF800F5E70223F3E7082621E70E491422624336
:1080080001EB020C09F1FF39CCF8040003201FFA38
:1080180089F9885481E700BF1C2A0020A8F70200CC
:10802800682A0020F42A0020DEC0ADDEFE011EF121
:108038000C2B0020402A0020082B0020242A002096
:108048006022002073B50D460446C8B1C1B10DF1D8
:108058000601FFF733FBA8B10B4BBDF806006668B5
:10806800142202FB003001210C3000F0F7F963689C
:108078002E600C336B600123A372002002B070BD28
:108088000520FBE70A20F9E7402A002013B504463B
:10809800A8B10DF10601FFF711FB90B10B4ABDF82D
:1080A8000630142101FB0323DA6862B1A27A52B1C7
:1080B800DA680020013ADA60A07202B010BD05202B
:1080C800FBE70A20F9E70620F7E700BF402A00206F
:1080D80002230022FFF712BE18B103230022FFF784
:1080E8000DBE052070470000104B1B7813B50446E1
:1080F800ABB14FF6FF73984213D001A8FFF75AFAB5
:1081080088B10523037001230371C48001A90848BD
:1081180000F0C1F8FFF7E4FD002002B010BD022016
:10812800FBE70420F9E70820F7E700BF1C2A002036
:10813800F42A00200E4B1B7807B5A3B101A8FFF75E
:1081480039FA90B10623037001A90A4800F0A3F890
:10815800094B1A780AB101221A73FFF7C1FD0020F2
:1081680003B05DF804FB0220FAE70820F8E700BF37
:108178001C2A0020F42A0020242A002007B5ADF884
:10818800060002A820F8041D01460DF10600FFF7BD
:10819800EBFA03B05DF804FB13B502AC134624F800
:1081A800020D0A4600202146FFF7DEFA02B010BD94
:1081B80013B502AC134624F8020D0A4620460021E6
:1081C800FFF7D2FA02B010BD20B119B103680B60F5
:1081D800002070470520704710B561B1B2FBF3F479
:1081E80003FB1424A4B244B9C0E90014846082815A
:1081F800C381204610BD0E20FCE70920FAE782B0B3
:1082080050E8022FC188B2EB324F4FF0000317BF7E
:1082180092B241EA014142EA014104E04268B2EB0C
:10822800324F08BF012340E80212002AE8D18DF836
:1082380007309DF80730002B0CBF1120002002B03A
:10824800704737B550E8013F9DB2C48925448489F9
:10825800A54228BF2D1B0489A54202BFBFF32F8F5B
:10826800002207E0C5EA030540E80154002CE9D1E3
:108278004FF001028DF803200193019B9DF8032024
:108288000B6002F0FF0322B10B880068184403B0AA
:1082980030BD1846FBE70A884B889A4209D150E856
:1082A800012FC2EA024240E80123002BF7D1012046
:1082B80070470020704737B550E8023F1FFAA3F512
:1082C800C488A54202BFBFF32F8F00220DE0C489E6
:1082D80025448489A54228BF2D1BC3EA054540E8EB
:1082E8000254002CE8D14FF001028DF803200193CD
:1082F800019B9DF803200B6002F0FF0322B14B881D
:108308000068184403B030BD1846FBE70A884B885C
:108318009A4209D150E8022FC2EA224240E80223D9
:10832800002BF7D1012070470020704701F01F0291
:108338004B090121914000EB830000F063B84B0921
:1083480010B501F01F040121A14000EB830000F0EB
:108358004EF8E04000F0010010BD01F01F030122BB
:108368009A404B0900EB8300D14300F061B84B09F8
:1083780001F01F0150F82300C84000F001007047C9
:108388002DE9F0474E1E760980460F460136002536
:1083980058F8254008EB850AE44394FAA4F4B4FAA3
:1083A80084F44FEA4519202C06D10135AE42EFD8A6
:1083B8003C462046BDE8F0874C44A742F5D9214603
:1083C8004046FFF7BCFF0028F3D0DAF80040E4434A
:1083D80094FAA4F4B4FA84F4E5E750E8002F0B46C5
:1083E80040E8003C9CF0000FF7D11046704750E879
:1083F800002F42EA010340E8003C9CF0000FF6D150
:108408001046704750E8003F43EA010240E8002C5C
:108418009CF0000FF6D11046704750E8002F02EA92
:10842800010340E8003C9CF0000FF6D1104670476D
:1084380050E8003F03EA010240E8002C9CF0000FDE
:10844800F6D11046704750E8002F02EB010340E8D0
:10845800003C9CF0000FF6D11046704750E8003FF2
:1084680003EB010240E8002C9CF0000FF6D1104607
:10847800704750E8003FA3EB010240E8002C9CF055
:10848800000FF6D1104670470121FFF7B0BF012158
:10849800FFF7B8BF0021FFF7C0BF10B590B1D0E912
:1084A800012301689B1ADBB20A60013BDBB2FF2B98
:1084B800026802D10020107110BD11684C1C1460B4
:1084C8000B70F2E70E20F7E737B5054602A800243F
:1084D80000F8014DFEF77AFF2A686B681168994227
:1084E8000ED9481E106011F8014CEB68298A01FB6F
:1084F8000434AB6811791B1ADBB2994238BF137187
:108508009DF80700FEF786FF204603B030BD37B55B
:10851800054602A8002300F8013D0C46FEF756FF69
:108528002A681368591C1160E968641A298AB4FB1F
:10853800F1F41C709DF80700FEF76CFF03B030BD26
:10854800826810B504462AB14369016800699847F2
:108558000023A36010BD0EB403B5039929B102AA84
:1085680004AB42F8043D00F06BF802B05DF804EB90
:1085780003B07047826830B40468551C8560A15404
:10858800D0E901329A4202D330BCFFF7D9BF30BCE0
:10859800704700002DE9F84F9946DDE90A43174670
:1085A800824688460A460126BA420FD24E4538BF4F
:1085B8004E4613F0010B01D164B900240125B9F12D
:1085C800010F1AD909F1FF397D43F8E7B2FBF7F239
:1085D8000136E9E79B070ED5B9F1000F0CBF30252E
:1085E8002025A642EAD2013C29465046FFF7C2FFA1
:1085F800002CF6D1E1E72025F3E7B8FBF5F39F421D
:10860800E2D9DFF83890B8FBF5F3504619F80310B3
:1086180005FB1388FFF7AEFFB5FBF7F5002DF2D188
:10862800BBF1000F02D00CB1A64201D3BDE8F88F10
:1086380020215046013CFFF79DFFF4E7BCF50200FE
:108648002DE9F74F054690460E46002900F03A817D
:1086580016F8011B002958D0252940F0D1800027A1
:1086680002E047F001071646324612F8013B2D2B6F
:10867800F7D0302B04D02B2B05D147F00407F2E7B5
:1086880047F00207EFE700242A2B06F101021BD16D
:10869800D8F80030191D1B68C8F800101C4416468D
:1086A80033782E2B1CD101364FF0000A314611F8D1
:1086B800012BA2F13000092814D80A2303FB0A234E
:1086C800A3F1300A0E46F1E712F8013CA3F130019C
:1086D8000929E5D80A2101FB0434303C1646D3E7C2
:1086E8004FF0000A324612F8011B01F0FB0068281F
:1086F8001646F8D0692916D054D8582970D00ED803
:1087080025297DD03378002BA2D12B7B002B00F0BC
:10871800D980284603B0BDE8F04FFFF711BF6329A1
:1087280068D06429EED1D8F80020D2F80090111D45
:1087380089EAE972C8F80010A2EBE9724FF0010B60
:10874800092A61DCD34538BFD3462CB1B9F1000FF3
:1087580001DB790700D5013CBA0702D5BAF1000F51
:1087680004D0FB0702D4002C54D10024B9F1000F27
:1087780058DAC9F100092D212846FFF7FBFE07F05A
:108788000302022A05D1BAF1000F02D1002C4DD103
:108798000024CDE9004753460A2249462846FFF7F8
:1087A800F9FEAFE7732954D016D87029AAD1D8F8A2
:1087B80000301A1DC8F80020302128461C68FFF731
:1087C800D9FE78212846FFF7D5FE00220823CDE9F7
:1087D800003221461022E1E775292FD0782991D15E
:1087E800D8F800100A1DC8F80020CDE90047534604
:1087F80010222CE0D8F800301A1D1978C8F800208B
:108808002846FFF7B7FE7DE70A230BF1010B92FB21
:10881800F3F295E7A345A9D220212846013CFFF7AA
:10882800A9FEA0E77807AAD52B21A5E7A345B0D2D2
:1088380030212846013CFFF79DFEA7E7D8F8001035
:10884800CDE900470A1DC8F8002053460A220968E6
:10885800A4E7D8F800301A1DC8F80020F907D3F8A3
:10886800009012D54F46A7EB090B17F8011B41B929
:10887800A345BFF447AF20212846013CFFF77AFE05
:10888800F6E72846FFF776FEEDE7B9F1000F17D0B7
:10889800484606F0CCFC0746BC4200D954B909F159
:1088A800FF3919F8011F00293FF42CAF2846FFF7BC
:1088B80061FEF6E720212846013CFFF75BFEEBE767
:1088C8004F46E9E703B0BDE8F08F000007B50B4657
:1088D80088B9124B1248134AC01A0E23C0080093D5
:1088E800114B0004114940F00100FEF72FF90E204A
:1088F80003B05DF804FB4BB9084B09480C4AC01A91
:10890800C0080E2300930004074BEBE703601B68C5
:10891800114603B05DF804EB184700BF34F30200BA
:108928008CF3020079F60200CCF502007EF6020014
:10893800F5F602002DE9F34188B93D4B3D483E4A22
:10894800C01AC0080E243D4B009400043C4940F076
:108958000100FEF7FBF8204602B0BDE8F0814AB9F5
:10896800334B3448374AC01AC0080E240004009418
:10897800324BEBE7D0F800C0BCF1000F09D12C4B0B
:108988002C48314AC01AC0080824000400942B4B14
:10899800DCE74BB9264B27482C4AC01AC0080924E3
:1089A80000040094254BD1E74768D7F80480B3FB4F
:1089B800F8F708FB17374FB11D4B1E48244AC01A59
:1089C800C0080924000400941C4BBFE78F0709D096
:1089D800174B18481F4AC01AC008102400040094F6
:1089E800164BB3E712F0030F09D0114B11481A4A7E
:1089F800C01AC008102400040094104BA6E7C768EA
:108A0800B9420BD34C1E05691C44AC4206D8DCF8AD
:108A18000C40A44602B0BDE8F0416047044B05484D
:108A28000E4AC01AC008102400040094034B8DE7B6
:108A380034F302008CF3020079F60200DEF502003E
:108A48007EF60200FBF60200EFF60200AEF6020028
:108A580001F702002BF7020043F7020066F7020055
:108A6800F7B580B92A4B2B482B4AC01AC0080E24E8
:108A78002A4B009400042A4940F00100FEF766F8EA
:108A8800204603B0F0BDD0F800C0BCF1000F09D1FA
:108A98001F4B2048234AC01AC00808240004009429
:108AA8001E4BE8E74AB91A4B1A481F4AC01AC008B1
:108AB800092400040094194BDDE74768D7F800E063
:108AC8000EF1FF370F4209D0114B1248174AC01A4E
:108AD800C008102400040094104BCCE7C768B942C2
:108AE8000CD34C1E05690EFB0244AC4206D8DCF8D8
:108AF8001040A44603B0BDE8F0406047044B054869
:108B08000B4AC01AC008102400040094034BB2E7B3
:108B180034F302008CF3020079F60200F1F502004A
:108B28007EF60200EFF60200AEF6020004F602003E
:108B38002AF6020029DF704728DF704770B50368FE
:108B48009D6886B004460E466DB114220021684621
:108B580006F018FBA3680593237901962BB1012B26
:108B68000DD06846A84706B070BD01238DF80030C7
:108B780023690293E368039363690493F1E702238B
:108B88008DF80030E3681B030293F5E70846704749
:108B980000207047024B187A003018BF0120704738
:108BA800BC2B0020034B187A0122B0FA80F05A74CB
:108BB80040097047BC2B002008B510461A4606F03D
:108BC800B8FA002008BD000008B5142200210448A6
:108BD80006F0D8FA0348FFF712FB002008BD00BFD3
:108BE800BC2B0020AC2B002010B5094C094B43606E
:108BF8002046FFF749FC40B906F0A2F81C23207470
:108C08008C2205490548FFF7E7FA002010BD00BF90
:108C1800BC2B00209CF70200202B0020AC2B00204E
:108C280070B5244D244E2B7A2C463BB92349244851
:108C3800FFF741FB306008B9686070BD02232372FA
:108C480033681A7972B1012A24D018460321FFF734
:108C580075FF00232372636018491948BDE8704006
:108C6800FFF754BBD3E90520121AB2F5805F28BF7D
:108C78004FF48052D3E903159208012A014438BF02
:108C880001222844FFF756FF50B11128DDD10123F6
:108C98002372D2E7D3E903021044FFF74DFFF3E74D
:108CA800237C002BC9D10146BDE87040022000F0AA
:108CB80009B800BFBC2B0020D42B0020D02B0020EB
:108CC800AC2B002038B5831E012B45D8234C237AC2
:108CD800002B41D0022B09D1032830D0204B1B6830
:108CE8000022E2601A793AB1012A22D0637C7BBB68
:108CF800BDE83840FFF794BFD3E905128D1AB5F5E2
:108D0800805F94BF521902F580529A619142EDD169
:108D180002284FF0000308BF19462372104B18BFF2
:108D28000D211868FFF70AFF0E490F48FFF7EEFA02
:108D3800DCE71A6901321A615B699A42E7E7E3687E
:108D48000133082B01D8E360D0E70023E360DFE7B5
:108D5800BDE8384005F0E4BF38BD00BFBC2B00209B
:108D6800D42B0020D02B0020AC2B002000F0FD03DA
:108D7800012B08D1044B00225A74421E5042504124
:108D88001874FFF74DBF7047BC2B002010B5064C78
:108D9800201DFFF779FB28B9637C1BB9BDE810409B
:108DA800FFF73EBF10BD00BFBC2B00202DE9F341EB
:108DB80080460D460F4801A916461F46FFF741FA9F
:108DC8000446A8B11C22002106F0DCF92D0B012372
:108DD800237101A9C4F80080A760E56066610548B1
:108DE800FFF759FAFFF7D2FF002002B0BDE8F08183
:108DF8000420FAE7AC2B00202DE9F743814688468A
:108E0800104801A917461E46FFF71BFA0446B0B1E1
:108E18001C22002106F0B6F900250A9BA36001A9CF
:108E28002571C4F80090C4E9037866610548FFF726
:108E380032FAFFF7ABFF284603B0BDE8F083042001
:108E4800FAE700BFAC2B00202DE9F047B0F80690F8
:108E58004479D2F800A09DF8208009FB04F4043C72
:108E680006460AEB0300A0420F4688BFA4EB030A9C
:108E7800191DC2F800A0B1FBF9F509FB15114DB990
:108E8800A9EB0104544528BF5446BAF1000F04D198
:108E9800BDE8F0873668013DF1E704317B197018A9
:108EA8002246B8F1000F0ED001461846AAEB040A74
:108EB80006F03FF9D145254436684C464FF000018D
:108EC80028BF5446E1E71946F0E7FFF7E6BAF8B5D8
:108ED80046790146721E0546002393422D6803D346
:108EE8000024A64202D8F8BD0133F6E70F682846E9
:108EF800FFF70DFB01343946F3E72DE9F843068AFD
:108F0800CD1C0746FFF7E0FA043E35440446B5FB9E
:108F1800F6F5F0B14FF48073EDB28380C680013D61
:108F2800076081464FF00008A84512D23846FFF77F
:108F3800CBFA064648B163790133637108F1010839
:108F4800C9F8000007608146EEE72046FFF7BFFF3B
:108F580034462046BDE8F88301210430FFF77EBA85
:108F680010B5012104460430FFF783FA10F0FF0F13
:108F780004D12046BDE81040FFF7A9BF10BD1FB5BA
:108F880004AC44F8042D002200922246FFF75CFF4F
:108F980004B010BD1FB504AC44F8042D01220092A2
:108FA8002246FFF751FF04B010BD41DF70470000B3
:108FB800064B10B500241C70054B1C60BFF35F8F77
:108FC8000449054800F039F8204610BDE02B002080
:108FD800E42B0020C8F70200D82B002007B502A810
:108FE800002300F8013DFEF7F1F9F1EE103A23F005
:108FF8009F03E1EE103ABFF35F8F0A4B4022C3F89C
:1090080084219DF80700FEF705FA05F099FE20B1C6
:10901800FFF7CBFF03B05DF804FB20BF40BF20BFC4
:10902800F8E700BF00E100E0836800225A609A6018
:10903800C3E90422DA601A6070470B684A68436023
:10904800934208BF0023016008BF4360704743682C
:1090580043B10268916852680B449342436004BF6D
:1090680000234360704700000D4930B5A1F59472A4
:109078000225914201D800200EE08B1ADB1093FBE9
:10908800F5F302EBC30452F83330834205D802D219
:1090980004F10802EDE7606830BD2146E9E700BF4A
:1090A80018F9020008B5FFF7DFFF024B002808BFD8
:1090B800184608BDDDF702000C4B1B78062B10D1B3
:1090C8000B4B1B681A070CD10A4B186800F0F00309
:1090D800302B08D000F0E000A0F14003584258417E
:1090E8007047002070470120704700BFE00F00F074
:1090F800E40F00F0E80F00F0094B1B78062B0CD1A9
:10910800084B1B681A0708D1074B186800F0F000D5
:10911800A0F130035842584170470020704700BF03
:10912800E00F00F0E40F00F0E80F00F008B5FFF7DB
:10913800C3FF28B17D4B7E4A1B68C3F30423136029
:10914800FFF7DAFF10B17B4B7B4A1A60FFF7B4FFD9
:1091580028B17A4B7A4A1B68C3F342331360FFF78E
:10916800CBFF20B1774AD36823F08073D360FFF731
:10917800A3FF40B14FF080430022C3F80C21C3F88D
:109188001021C3F83825FFF7B7FF10B16E4B032243
:109198001A60FFF7B1FF40B16C4B05221A6001223B
:1091A8009A6700229A603F225A60694B1B78062B07
:1091B80050D1684B1B6819074CD1674B1B6803F0EB
:1091C800F003502B46D14FF08052644BD2F8041470
:1091D800C3F82015D2F80814C3F82415D2F80C14D3
:1091E800C3F82815D2F81014C3F82C15D2F81414A3
:1091F800C3F83015D2F81814C3F83415D2F81C1473
:10920800C3F84015D2F82014C3F84415D2F8241432
:10921800C3F84815D2F82814C3F84C15D2F82C1402
:10922800C3F85015D2F83014C3F85415D2F83414D2
:10923800C3F86015D2F83814C3F86415D2F83C1492
:10924800C3F86815D2F84014C3F86C15D2F8442452
:10925800C3F87025FFF730FF28B1414B414A1B681E
:1092680003F04F031360FFF727FF48B14FF0804327
:10927800D3F80024D20744BF6FF00102C3F80024DA
:10928800394B1B68062B08D1384B1B68062B01BFCE
:10929800374A136843F480631360364AD2F888303B
:1092A80043F47003C2F88830BFF34F8FBFF36F8F5A
:1092B8004FF01023D3F80022002A03DBD3F804323E
:1092C800002B2FDA2C4B0122C3F80425D3F80024F5
:1092D800002AFBD04FF010221521C2F80012D3F853
:1092E8000024002AFBD04FF010231522C3F80422D3
:1092F800214B1A46D3F800140029FBD00021C3F8EB
:109308000415D2F80034002BFBD0BFF34F8F194956
:109318001A4BCA6802F4E0621343CB60BFF34F8F65
:1093280000BFFDE7164B174A1A6008BD240300105A
:109338004035014074C007400DF0ADBA440200103A
:109348003C050040F0ED00E0A0050040105600404C
:10935800E00F00F0E40F00F0E80F00F000C000405C
:1093680058020010E40E00403001001034010010D3
:109378003C17004000ED00E000E001400400FA0561
:10938800982200200090D00338B5084C04F1080357
:109398000546002818BF1C4623682BB11A682260AE
:1093A8005B6828469847F7E738BD00BFF02B0020D8
:1093B80020B9054B01225A70FFF7E6BF012802D1F8
:1093C800014A9070F8E77047E82B002020B9034B5A
:1093D80001225A70FFF7D8BF704700BFE82B002062
:1093E80038B50B4C237883B90A486360A3602361BE
:1093F800E36000F0D1F8054605F0A2FC08B900F0DA
:10940800D9F801232370284638BD8525FBE700BF1E
:10941800E82B0020B993020037B502A80023094CB5
:1094280000F8013DFDF7D2FFE368013BE360E56822
:1094380015B900F0D3F8A5709DF80700FDF7EAFF0D
:1094480003B030BDE82B0020012813B509D003D3A1
:1094580003281BD002B010BD0F4B0122C3F8802097
:10946800F8E702A800230D4C00F8013DFDF7AEFF18
:1094780023780BB9FFF7B4FFE3689DF807000133C1
:10948800E3600123A370FDF7C5FFE3E700F092F85E
:10949800FFF7C2FFDEE700BF00E100E0E82B002095
:1094A8001FB503788DF8003043680193037A8DF86F
:1094B8000830C3680393054A054B684653F82130C2
:1094C80052F82110984705B05DF804FBFC2B0020EA
:1094D800002C00201FB503788DF8003043680193F5
:1094E80083688DF80830C3680393054A054B6846BE
:1094F80053F8213052F82110984705B05DF804FB65
:10950800FC2B0020002C0020F0B5194B067891F8B0
:109518001DE043F82620174B94460A6943F8262095
:10952800154B03F806E00C4607460FCC89B06D468C
:109538000FC594E80F0085E80F000496BEF1000FF0
:109548000AD0BCF1000F0D4A694608BF0022381D39
:1095580000F062FC09B0F0BDBCF1000F084A694692
:1095680008BF002207F10C0000F058FAF2E700BF2C
:10957800002C0020FC2B0020042C0020A9940200C1
:10958800DD94020000F18040002382B0036003688C
:109598000193019B02B07047054A13792BB9012149
:1095A800106011715371184670478520704700BFCD
:1095B800082C0020084B1A68D20706D4C02283F86A
:1095C80000230122C3F880211A604FF08043012252
:1095D800C3F81825704700BF00E100E0044B0122E2
:1095E8001A604FF08042D2F81834DB03FBD470477E
:1095F8000C000040124B1B6810B573B14FF480701B
:10960800FFF7C0FF4FF080430122C3F808230D4B3A
:10961800587910B95A711B6898470B4B1B6873B17E
:109628004FF48270FFF7AEFF4FF080430222C3F879
:109638000823044B01201B68BDE81040184710BDE3
:1096480000010040082C00200401004000F1804087
:1096580000F5C040002382B0036003680193019BBA
:1096680002B07047800000F1A040D0F8003723F422
:109678004033C0F80037D0F8003743EA0141C0F85A
:10968800001770472DE9FF470024584A584E594D96
:10969800019401211368A2F5C040012B80B206D1C4
:1096A800D6F804330B4202D0FFF7D0FF0C43043244
:1096B800AA424FEA4101EDD14F4B1B68012B0AD159
:1096C8004FF4BE70FFF7C2FF4FF0A04344F00044D0
:1096D800D3F81035019314F0FF0F1AD0474F002527
:1096E8000126344210D0AB0003F1804303F5C04398
:1096F800D3F81005D3F8101557F82530C0F3042017
:10970800C1F3014103B198470135082D4FEA4606D8
:10971800E7D1002C66DA00224FF0FF33CDE90223AF
:10972800DFF8D8900127002634464FF0A04809EB0F
:10973800060393F95020531C45D0D2B222F0C0053D
:10974800E90804A8084402F0070310F804CC07FA53
:1097580003F31CEA030F36D009EB050C92099CF9B8
:1097680030C059F82CA0BAF1000F0AD1032A2AD127
:109778000DF1080E1EF801C04CEA030C0EF801C0EA
:1097880001E0032AF4D005F5E07110F80C0C58F844
:1097980021101842C1F3014105D0022913D1032A2F
:1097A8000BD1114604E003290DD1032A05D102216A
:1097B8002846FFF757FF0134E4B2BAF1000F02D090
:1097C80011462846D0470136042EB0D154B14FF087
:1097D800A043019AD3F81035934203D00193029B1A
:1097E8000393A0E704B0BDE8F08700BF0061004024
:1097F80000600040206100407C610040102C002087
:10980800014B1B68184700BF6C2C00200D4B984279
:1098180037B50D4610D102A8002300F8013DFDF729
:10982800D5FD094B1C7914B901221D601A719DF8E8
:109838000700FDF7EFFD14B9002003B030BD11207B
:10984800FBE700BF002000406C2C0020034B98422F
:1098580001BF034B00221A601A71704700200040B4
:109868006C2C00200023435082B043580193019B85
:1098780002B070470A4610B54FF48E71FFF7F2FF39
:10988800136A9168C95C136A01331362C0F81C1526
:1098980010BD8B690A4610B54FF4847123B9FFF7E0
:1098A800E1FFD0F8183510BDFFF7DCFF536AD16827
:1098B800D0F81805C854536A01335362F3E700001F
:1098C8001FB501238DF80030044BCDE90110D3E911
:1098D80000126846904705B05DF804FB742C002020
:1098E80030B54C4AD2F8043313F4007F85B01546DE
:1098F8004FD0D2F82431002B4BD04FF49271104640
:10990800FFF7B0FF4FF40173C2F80833424B93F8E6
:10991800291009B9012151603E4902228DF8002021
:10992800D1F88024C1F8802403929A690292DA68F7
:1099380001920022C3E906226846D3E90012904743
:109948003448D0F81C315BB133490A6A4B699A42F2
:109958000A464BD291F82830002B47D1FFF78AFFEF
:109968002C4AD2F8443193B14FF4A2711046FFF754
:1099780079FF294B93F8291009B1012111609A69DF
:109988002AB100229A61586AD968FFF799FF05B091
:1099980030BDD5F804335B07D2D5D5F80831002B94
:1099A800CED01D4C1B482146FFF773FF636AA2699E
:1099B8009A422346C4D1E269E1684AB12369E36067
:1099C8000023606AA261E3616362FFF779FFB7E78A
:1099D80094F829200AB901226A600E4A4FF40170EE
:1099E800C2F8080300229A61586AEEE74FF48E71B4
:1099F8000848FFF737FF51690029B1D000230291C9
:109A080091688DF80030019153616846D2E90013DE
:109A18009847A5E700200040742C00202DE9F84362
:109A28005A4B047991462C2202FB0432064692F8DE
:109A38002A200D469846002A40F0A3805449006821
:109A4800FFF7E4FE0746002840F09D802968336848
:109A5800481C0BD04FF0A04001228A40C0F80825CE
:109A680001F5E0724FF0030C40F822C06868421C10
:109A78001FBF00F5E0724FF0A04C4FF0000E4CF8FD
:109A880022E0AA6995F814C0C3F824256A7DBCF1C0
:109A9800010F4CEA0202C3F86C25C3F81405C3F899
:109AA8000C151DD1AA68511C1FBF02F5E0714FF0BB
:109AB800A0404FF0000C40F821C0E968481C0BD0CA
:109AC8004FF0A04C01208840CCF8080501F5E07063
:109AD8004FF0030E4CF820E0C3F80815C3F8102522
:109AE8002C23634308EB0302C2F804902A6948F860
:109AF8000320B9F1000F31D04FF48E7130682D7FFB
:109B0800FFF7B0FE30684FF4A271FFF7ABFE326882
:109B1800204BC2F80433120B53B2002BA8BF03F139
:109B280060404FEA53134FEA4511BABF1A4802F092
:109B38000F0500F561404FEA8303C9B203F16043A2
:109B4800B4BF415580F8001303F5614302F01F02CA
:109B5800012101FA02F2C3F880211A603368042255
:109B6800C3F800252C2303FB04830022C3E9062243
:109B780083F829205A61012283F82A203846BDE853
:109B8800F8830827FAE71127F8E700BF742C0020AC
:109B9800E99802008000020014ED00E0F8B50479AD
:109BA80000682D4D0023C0F800352C2303FB045317
:109BB8005B6873B1294BC0F80833020B53B201211B
:109BC8005B0902F01F0201FA02F22033244941F82E
:109BD8002320D0F80C65D0F81415D0F80835D0F843
:109BE80010254FF0FF37BE42C0F8147518BF06F5B0
:109BF800E076C0F80C75C0F80875C0F810751EBF7F
:109C08004FF0A0474FF0020C47F826C04E1C1FBF6C
:109C18004FF0A04601F5E071022746F82170511C6B
:109C28001FBF4FF0A04102F5E072022641F8226002
:109C38005A1C1FBF03F5E0734FF0A042022142F8FF
:109C48002310FFF703FE2C2303FB0454002384F89E
:109C58002A306360F8BD00BF742C00208402020023
:109C680000E100E02DE9F843224F06794FF02C0976
:109C780009FB067480466569002D37D16261A160D1
:109C880025624FF48E71006884F82850FFF7EAFDCA
:109C9800D8F80000012383602146FFF7EBFD6368D5
:109CA800A1462BBBD8F80050226A63699A4212D3A6
:109CB800D8F80030D3F81C21002AFBD00122DA6042
:109CC80000202C2303FB067600237361BDE8F8838C
:109CD80094F8283043B9D5F81C31002BF8D0494600
:109CE8002846FFF7C7FDDFE70F20EAE71120EDE779
:109CF8002846EBE7742C00200023435082B04358D9
:109D08000193019B02B070471FB501238DF8003005
:109D1800054B8DF8080001916846D3E90012904779
:109D280005B05DF804FB00BFA02C00207FB5384AC1
:109D3800D2F82461002E49D010464FF49271FFF7F3
:109D4800DBFF02238DF80030D2F88034C2F880346B
:109D58000393D2F83C358DF808302E4BDA6801921F
:109D68000022C3E906226846D3E900129047284A30
:109D7800D2F8443173B14FF4A2711046FFF7BCFF1B
:109D8800244B996931B100219961D2F83C05D96811
:109D9800FFF7BAFF1E4AD2F82031ABB14FF49071E9
:109DA8001046FFF7A9FF1B4B596969B1D2F84C154A
:109DB8008DF80810002299688DF8002001915A61E9
:109DC8006846D3E90012904704B070BDD2F810314C
:109DD800002BCCD04FF488711046FFF78DFF0D4B48
:109DE800D2F83C0599698842C1D1DC69D96864B167
:109DF800D2F8005225F02005C2F800521A699C6179
:109E0800DA60DE61FFF780FFB1E79C61FAE700BF27
:109E180000200040A02C00202DE9F8435E4B067975
:109E28009146242202FB0632044692F820200D4671
:109E38009846002A40F0AB8058490068FFF7E6FCD6
:109E48000746002840F0A58029682368481C0BD0E5
:109E58004FF0A04001228A40C0F8082501F5E072C1
:109E68004FF0030C40F822C06868421C1FBF00F581
:109E7800E0724FF0A04C4FF0000E4CF822E0AA69B7
:109E880095F814C0C3F824256A7DBCF1010F4CEA8B
:109E98000202C3F86C25C3F80C15C3F814051DD1CC
:109EA800AA68511C1FBF02F5E0714FF0A0404FF0A7
:109EB800000C40F821C0E968481C0BD04FF0A04CBA
:109EC80001208840CCF8080501F5E0704FF0030E3A
:109ED8004CF820E0C3F80815C3F810252423734371
:109EE80008EB0302C2F804902A6948F80320B9F184
:109EF800000F3BD04FF4887120682D7FFFF7FCFEE0
:109F08004FF490712068FFF7F7FE4FF492712068C4
:109F1800FFF7F2FE20684FF4A271FFF7EDFE22680A
:109F28001F4BC2F80433120B53B2002BA8BF03F126
:109F380060404FEA53134FEA4511BABF194802F07F
:109F48000F0500F561404FEA8303C9B203F160438E
:109F5800B4BF415580F8001303F5614302F01F02B6
:109F6800012101FA02F2C3F880211A60236808224D
:109F7800C3F80025242303FB06830022C3E9062235
:109F88005A61012283F820203846BDE8F883082763
:109F9800FAE71127F8E700BFA02C0020359D020042
:109FA8001003020014ED00E0F8B5047900682D4DA7
:109FB8000023C0F80035242303FB04535B6873B106
:109FC800294BC0F80833020B53B201215B0902F098
:109FD8001F0201FA02F22033244941F82320D0F865
:109FE8000C65D0F81415D0F80835D0F810254FF0C6
:109FF800FF37BE42C0F80C7518BF06F5E076C0F80A
:10A008001475C0F80875C0F810751EBF4FF0A0474A
:10A018004FF0020C47F826C04E1C1FBF4FF0A04659
:10A0280001F5E071022746F82170511C1FBF4FF05F
:10A03800A04102F5E072022641F822605A1C1FBFB7
:10A0480003F5E0734FF0A042022142F82310FFF716
:10A05800FDFB242303FB0454002384F820306360B1
:10A06800F8BD00BFA02C00201003020000E100E0B2
:10A0780001F06043B3F1005F2DE9F041074632D1AA
:10A088001C4B0679242505FB063598466C6964BB8C
:10A098006A61A96000684FF49071FFF72DFE4FF4D4
:10A0A800AC713868FFF728FE3B686A69A968C3F88D
:10A0B8004415C3F8482501229A606A68BAB9D3F8EA
:10A0C8002011D3F8582149B9002AF8D00F202423A9
:10A0D80003FB068600237361BDE8F081002A14BFE4
:10A0E8000F200020F3E71020F6E71120F4E72046C0
:10A0F800F2E700BFA02C002000F1804000F5E0400E
:10A10800002382B0036003680193019B02B070478B
:10A11800F0B5514B514C1B6885B0DBB14FF48270E0
:10A1280094F82E20FFF7E8FF12B194F82F30A3B16E
:10A13800636802932389ADF80C30E36800218DF839
:10A148000410002B44D12374236801A898470023E6
:10A1580084F82F3094F82E3003B3414B1B68EBB1D1
:10A168004FF48070FFF7C8FF94F82D20638B91B2ED
:10A178008B4238D95B1A21899BB26383CB1A6168F9
:10A1880001EB4301374BC3F82C16C3F830264FF4C4
:10A198008270FFF7B1FF344B01221A60334B1B6802
:10A1A8005BB14FF48870FFF7A7FF002304A823745E
:10A1B800022300F80C3D236898472D4B1B6813B306
:10A1C8004FF48A70FFF798FF0023237405B0F0BDA1
:10A1D800208B608363602081E160002AB4D1214B29
:10A1E80001221A60B0E7D2D1E368012184F82F1068
:10A1F8003BB1002161831B49C1F82C36C1F83026D8
:10A20800C5E76383C3E766694FF000470125002E61
:10A21800DCD0B6FA86F227FA02F34632920026EA32
:10A22800030602F1804303F5E0431B68002BEED0E0
:10A238001046FFF761FFA2F58C72D30882F0040282
:10A24800C2F380028DF808308DF804508DF809208B
:10A25800236801A89847DAE704710040C42C00205D
:10A268000071004000700040047000401071004010
:10A278001471004070B52A4B2A4CE41A2A4B064642
:10A2880093F82C00E408240458B10820FEF70AFFCC
:10A29800264A2749034644F00200FCF74DFC0820F3
:10A2A80070BD244A19603178C2F8F0157178C2F887
:10A2B800F415F5781874012183F82C1083F82D0013
:10A2C800586183F82F0083F82E506FF00043C2F8CE
:10A2D80008334FF48270FFF70FFF4FF48070FFF7D9
:10A2E8000BFFB37814485B01DBB280F80733802397
:10A2F800C0F8803103600223C2F804330DB1C2F8FC
:10A308000413C2F800150020FEF7CCFE074A0849DE
:10A31800034644F00300FCF70FFC0020C0E700BF31
:10A3280034F3020054F30200C42C0020F4FC0200B1
:10A3380085FD02000070004000E100E0F8B5394BEF
:10A34800394C3A4D0246641B187CE408240400F09A
:10A35800FF0658B11120FEF7A5FE354A35490346D8
:10A3680044F00200FCF7E8FB1120F8BD0879012849
:10A378009CBF314DC5F8006502F10C0603EB46059C
:10A388002D7925B993F82D50013583F82D5003EB1D
:10A398004603CD790E7A8F781D715E714B783F0236
:10A3A8001B0107F4E06703F030033B430F7807F025
:10A3B80003073B43CF783F0307F480573B43070429
:10A3C80007F4E0273B434F7989793F0507F4801765
:10A3D80009063B4301F080710B43174901EB021753
:10A3E8000128C7F818354FEA021303F1804303F533
:10A3F800E04344F00304C3F81465C3F810559CBF48
:10A408000123C1F8003520460C49FCF78BFB0020DE
:10A41800FEF748FE064A074903462046FCF78CFB30
:10A428000020A2E7C42C002054F3020034F30200F9
:10A4380004FD020085FD0200007000406CFD020072
:10A44800054B93F82E30002B14BF0020042000F198
:10A45800804000F5E0407047C42C00202DE9F74308
:10A468003F4E404D404C12230F46C6F808333F4933
:10A478002A7C641AE408022A80464FEA04440FD171
:10A48800C6F804331120FEF70DFE394A3949034650
:10A4980044F00200FCF750FB112003B0BDE8F08344
:10A4A8002B7C012B2FD1EB6844F0020453B102231B
:10A4B800C6F804331120FEF7F5FD2D4A2D49034651
:10A4C8002046E7E795F82E30E8602F8363B92A4ADB
:10A4D8001368002BFCD04FF48070FFF70DFE204B63
:10A4E800C3F82C86C3F830761D4B0222C3F8042328
:10A4F8000020FEF7D7FD1E4A1E4903462046FCF7FA
:10A508001BFB0020C9E70223C6F804330023EB60D5
:10A5180044F0030495F82D30686000934FF001096A
:10A528003B46134A154985F8109020462F81FCF7C1
:10A538000DFB95F82E303BB195F82D306F83C6F89A
:10A548002C86C6F83036D3E7C6F82C864FF48070D0
:10A55800C6F83076FFF7D0FDC6F80090C8E700BF10
:10A5680000700040C42C002054F3020034F30200B1
:10A578001CFD020085FD02000071004036FD02004E
:10A58800034B187810B901221A707047852070475C
:10A59800F42C00202DE9F743002406460F4600F569
:10A5A800A0754FF48038A14604F150002B68800054
:10A5B80080B26BB1D6F8043308FA04F21A4207D015
:10A5C800C5F800902B680193019BD7E900319847A3
:10A5D8000134042C05F10405E6D103B0BDE8F0838D
:10A5E800F7B50579334C0C266E43A7193B7A002B37
:10A5F8005ED1A2514A687A60467900681F46DAB28D
:10A6080096424BD8020B53B2CE78002BA8BF03F169
:10A618006047D2B24FEA5313B8BF02F00F0C4FEAAB
:10A628004616B4BF244F07F561474FEA8303F6B2D5
:10A6380003F16043B4BF07F80C6087F8006303F5C3
:10A648006143012602F01F0206FA02F2C3F88021D4
:10A658001A60D0F804254B7822F0030203F00303B4
:10A668001343C0F80435D0F808258B7822F003028C
:10A6780003F003031343C0F80835D0F810250B780E
:10A6880022F00F0203F00F031343C0F810350C2318
:10A6980003FB05440020267203B0F0BD03F150020D
:10A6A800013340F8227050F822200192019AA6E75F
:10A6B8000820F1E7F82C002014ED00E003680122DF
:10A6C8001A600379034A0C2101FB032302221A7240
:10A6D800704700BFF82C002037B54FF480348C4009
:10A6E80000687BB101F150039B000025C550C35899
:10A6F8000193019BC0F8044301F5A87140F821209B
:10A7080003B030BDC0F80843F6E7F0B404689DF81C
:10A718001070D4F8005240F201168E4025EA060562
:10A72800C4F80052D4F800522B43C4F800323B4618
:10A73800F0BCFFF7D1BF000001490248FFF72ABF6C
:10A74800F82C00200080004001490248FFF722BF92
:10A75800042D0020009000402DE9F74F4FF000092C
:10A76800154D164E07464FF0040AC8465FFA89FB96
:10A7780001240DF1070004FA0BF48DF80780FCF7AB
:10A7880025FE2C4208D0336814EA030201BF234394
:10A79800336087F800B092469DF80700FCF73AFE50
:10A7A800BAF1000F03D0A54309F10109DED15046E3
:10A7B80003B0BDE8F08F00BFFFFF0100102D00209F
:10A7C80010B5A1B19AB101238340C3F3100484B139
:10A7D8000A4C246823420ED0C00000F1804000F5E6
:10A7E800F830C0F81015C0F81425002010BD0E2050
:10A7F800FCE70720FAE70820F8E700BF102D002043
:10A80800012303FA00F0430C5B044BB918B1064B63
:10A818001B68184206D0054BC3F804050020704792
:10A828000720704708207047102D002000F00140D5
:10A83800032812D8012A0BD1012908D100F10E02F0
:10A84800D2B200EB40000C4B1A5400207047002293
:10A858000129F6D009D3022901D007207047064BF9
:10A8680000EB400018444270EFE7034B00EB400058
:10A8780018448270E9E700BF142D002008B50122B2
:10A8880002210020FFF7D4FF08B1072810D10722C2
:10A8980002210120FFF7CCFF08B1072808D10021C9
:10A8A8000A220846FFF7C4FF10B1072808BF002096
:10A8B80008BD00000388102B10B502D0112B1ED044
:10A8C80010BD1A4C2168B1B901220846FFF7B0FF44
:10A8D80008B1072824D1072202210120FFF7A8FF89
:10A8E80008B107281CD1042202210020FFF7A0FF8D
:10A8F80008B1072814D1236801332360E0E70B4A25
:10A908001368013B1360002BDAD1FFF7B7FF00286B
:10A91800D6D0074B1B68002BD2D0BDE81040184793
:10A92800034B1B68002BE6D09847E4E7242D002052
:10A93800202D002008B5FCF7B3FC18B1BDE808408D
:10A94800FCF75CBA08BD08B54FF400410020FBF7DE
:10A958001FFF08B1FCF752FABDE80840FBF744BEF8
:10A9680008B5FEF725FB18B1BDE80840FCF746BA64
:10A9780008BD08B5FBF766FF18B9BDE80840FEF743
:10A988002DBB08BD08B5FFF7DEFFFFF7E9FFFFF7AE
:10A99800D1FF00F039FA00F0D9F900F0FFF900F022
:10A9A80089FB00F0A5FA00F007FA00F047FA00F07A
:10A9B80059F800F089F8094B09480A49C01AC00833
:10A9C800000440F00300FCF7A9F8002000F08AFA20
:10A9D80000F0C4F8FFF7CDFFFCE700BF34F3020036
:10A9E80074F30200B3FD02007047000030B503782D
:10A9F80085B0044653BB01214068FFF72FFD08B11D
:10AA0800FCF7FCF963681248B3F90020114B124CAB
:10AA18001249C01A04ADC008000425F8022D40F000
:10AA28000300FCF77FF8A068636800902A460221BB
:10AA3800204600F057FB0A4A206913680133136067
:10AA48000421E3680090204600F04CFB05B030BDBF
:10AA580074F3020034F30200282D00209E06030040
:10AA6800442D00201FB5134A10685168127A01ABB3
:10AA780003C3114911481A70FFF7FCFB08B1FCF732
:10AA8800BDF901A90020FFF759FC08B1FCF7B6F998
:10AA980001210B48FFF7E2FC08B1FCF7AFF90121EF
:10AAA8000848FFF7DBFC08B1FCF7A8F905B05DF82A
:10AAB80004FB00BFC6FD0200F5A90200CFFD02009D
:10AAC8003C2D00203E2D00201FB5FFF759FD08B191
:10AAD800FCF794F9002306228DF808308DF8093028
:10AAE8008DF80B200393174A1748032302A98DF802
:10AAF8000A30FFF775FD08B1FCF780F9134B1448CD
:10AB0800D3F810250021D2B220FA02F200910123D5
:10AB18000D48FFF7FAFD0C48FFF7D0FDFFF790FC52
:10AB280004460C48FFF718FE08B1FCF767F9094B13
:10AB3800094918782246FFF743FE08B1FCF75EF989
:10AB480004B010BDF1A90200D4FD0200009000403D
:10AB58000024F400402D00204091004008B5054B2A
:10AB68001878FFF74DFE18B1BDE80840FCF746B964
:10AB780008BD00BF402D002076DF70477ADF7047A0
:10AB88007CDF70478FDF7047A8DF7047AADF704708
:10AB9800AEDF704762DF70470388102B02D0112B9D
:10ABA80003D0704783880B8070474FF6FF73FAE72E
:10ABB800FCF724B90388212B13B504462FD005D8F8
:10ABC800102B17D0112B0AD002B010BD3B2B01D08F
:10ABD800562BF9D11321A088FFF7CEFF1AE0144BAA
:10ABE80014481549C01AC008000440F00300FBF7D8
:10ABF80095FFE9E70E4B0F481049C01AC00800043A
:10AC080040F00300FBF78AFF0D4BA1880D4819801F
:10AC180002F078F90028D7D0FCF7F0F8D4E702A9B9
:10AC2800002321F8043D8088FFF7ACFFF2E700BF5E
:10AC380034F3020074F30200ECFD0200FAFD020096
:10AC4800A0220020B42F002008B503784BB9054B8B
:10AC58003B211888FFF790FF18B1BDE80840FCF7C2
:10AC6800CDB808BDA0220020032809D10548064B0D
:10AC78000649C01AC008000440F00300FBF74EBFA5
:10AC8800704700BF74F3020034F3020024FE020090
:10AC980008B50321044800F00EFE18B1BDE80840CD
:10ACA800FCF7ACB808BD00BF482D002030B50378CC
:10ACB80085B004460D2B12D8DFE803F007111311F5
:10ACC80025112D3C1138113C353C1B481B4B1C49A8
:10ACD800C01AC008000440F00300FBF71FFF05B0CE
:10ACE80030BD4088144D01F00FF9144A63881549A6
:10ACF800AD1AED08227A00922D04024645F00300B1
:10AD0800FBF724FFEBE704A9002301F8043D408882
:10AD180002F06CFFE3E7FDF70DFA30F00803DED030
:10AD2800FCF76CF8DBE7FFF7B3FFD8E7006900280A
:10AD3800D5D0F5E78068FAE774F3020034F302002F
:10AD480036FE02005FFE0200FCF758B81FB504ACDF
:10AD58001123104804F80C3D04F069FA0D4982B239
:10AD68002046FFF70DFF08B1FCF748F808220DEB65
:10AD78000200002104F006FA074A4FF0C87302A83F
:10AD8800CDE90223FFF7FAFE08B1FCF737F804B063
:10AD980010BD00BF12FE02005000A00008B500213F
:10ADA800044801F09DFF18B1BDE80840FCF726B83B
:10ADB80008BD00BFA02F002000B589B01C220021CB
:10ADC80001A804F0DFF900234FF42032CDE9013265
:10ADD800ADF812304FF470228DF81430084B0392FE
:10ADE80006930322074B8DF8102001A8079300F063
:10ADF800A9FF08B1FCF702F809B05DF804FB00BF31
:10AE080051AC020051AD020013B503F01DFF08B1AB
:10AE1800FBF7F4FF02AC002344F8043D012021466F
:10AE280003F0D8FF08B1FBF7E9FF204604F084F8E7
:10AE380008B1FBF7E3FF02B010BD000007B502F050
:10AE480031FE08B1FBF7DAFF05220021684604F05D
:10AE580099F99DF8003043F00103032203F0F10350
:10AE680062F306136FF3C7138DF8003007238DF8CC
:10AE7800013010238DF802309DF8033013438DF80C
:10AE880003309DF80430684613438DF8043002F00F
:10AE9800A3FE08B1FBF7B2FF044802F085FE08B133
:10AEA800FBF7ACFF03B05DF804FB00BFB5AC0200D4
:10AEB80008B50948094B0A49C01AC008000440F0FF
:10AEC8000300FBF72BFE02F09FFE18B1BDE8084017
:10AED800FBF794BF08BD00BF74F3020034F302000F
:10AEE80005FE020008B1FFF7E3BFFFF7D1BE00007F
:10AEF80000B5ADB0AC22002101A804F043F902234B
:10AF080006228DF804308DF8072001230E4A8DF8AB
:10AF18000630ADF8503015928DF880304FF49672A7
:10AF280044F25063CDE9232301A9084B08482A932A
:10AF380000F042FC08B1FBF761FF0121044800F072
:10AF480038FC2DB05DF804FB9C22002071AC020097
:10AF5800482D00202DE9F0431F4695B0324B154689
:10AF680004AA06468E4603F11008944618685968E4
:10AF7800144603C4083343452246F7D10DF10E01A8
:10AF88006046ADF80CE0FFF705FE08B1FBF736FFA9
:10AF98001C2200210DA804F0F5F89DF8343001AC0E
:10AFA80043F00A030322002120468DF8343004F0D0
:10AFB800E9F89DF8063012944FF0010969F342034D
:10AFC8008DF806309DF8343002AC43F0100341F29E
:10AFD80011180322002120468DF83430ADF8048082
:10AFE80004F0D0F89DF80A30ADF8088069F3420300
:10AFF8001422002108A88DF80A3004F0C3F803AB26
:10B00800CDE9083408AA1C9B7088ADF82C500DA90E
:10B01800ADF828500C97FFF7B9FD08B1FBF7EEFE25
:10B0280015B0BDE8F08300BFDCFD0200F0B5204B91
:10B038008BB006AA044603F110071646186859682B
:10B04800154603C50833BB422A46F7D100230DF144
:10B0580012013046ADF81030FFF79CFD08B1FBF740
:10B06800CDFE22464FF6FF7322F8023B04A90120C9
:10B07800FFF78AFD08B1FBF7C1FE0AAB002504F112
:10B088000C0243F8145D2046009242F22221042269
:10B09800FFF760FF0AAB221D23F81C5D41F2111176
:10B0A800009220460222FFF755FF0BB0F0BD00BF0B
:10B0B800DCFD020007B502A9074B41F8043D07482B
:10B0C80001F00EFF08B1FBF799FE0548FFF7AEFF48
:10B0D80003B05DF804FB00BFB9AB0200B42F002039
:10B0E800282D002082B030B587B0154602880B9312
:10B0F8004FF6FF739A420446ADF8061016D00021A9
:10B10800102202A804F03EF8BDF82C30ADF8083043
:10B1180001238DF80A300023ADF80C3002A90DF197
:10B1280006032088CDE90435FFF732FD07B0BDE8F6
:10B13800304002B070470369C1688B429DBF826886
:10B14800D21802F1FF3203F1FF3394BF501A581A94
:10B1580070472DE9F041D0E902670446F61B4068C4
:10B16800964288461546384405D903F0E2FF3D4427
:10B17800E560BDE8F0813246AD1B03F0DAFF2A46F0
:10B1880008EB0601606803F0D4FFF1E72DE9F84306
:10B19800C5680646894617464FF000083469B36803
:10B1A8007068A54228BFE418013C621B5C1BBC42C6
:10B1B80028BF3C46944228BF1446494628442246A4
:10B1C80003F0B7FFB3682544AB4208BF00253F1B17
:10B1D800A044A144F560E1D14046BDE8F8830000F1
:10B1E80010B5114C114AA2610223C4E90433104B73
:10B1F800E361A2644FF400730E4A2362E264002301
:10B2080010220D49A362E01D6362E362A3656365D2
:10B21800E365226503F0E9FF0849204603F0E5FFEE
:10B228002023A37110BD00BFC02F00209FFE020085
:10B238004830002038300020A8FE0200ACFE020092
:10B24800F8B5184C182300FB033503FB00402544D0
:10B25800C46A012C0F46164611D003D3022C1BD00A
:10B2680000240AE02846FFF766FF864205D83246E2
:10B2780039462846FFF76DFF34462046F8BD284674
:10B28800FFF759FF8642344628BF0446224639460E
:10B298002846FFF75EFFF0E72846BDE8F840FFF7CD
:10B2A80075BF00BFC02F0020FFF79ABF6DDF704742
:10B2B80079DF70477DDF704764DF70472DE9F74F0E
:10B2C8000C9CBDF834B02788002580468A469146F4
:10B2D8002E46B8F80020B2420BDC35B12288013A7C
:10B2E800D21B92B2FF2A39D8DA55002003B0BDE844
:10B2F800F08FD8F8042052F82600019000220DF1B2
:10B30800030101A8FFF7D8FF0028EFD19DF803201B
:10B318004A4521D12288002D14BF0020022002EBCB
:10B3280009010144594519DC3DB9013292B2228024
:10B3380003F802A022880132228022880DF103013D
:10B348001A4401A8FFF7B8FF0028CFD121889DF83B
:10B3580003200A44228001250136BAE70C20C5E7FC
:10B368002DE9F341089CBDF824501746CDE9004566
:10B3780002220646FFF7A2FF48B910223946304696
:10B38800CDE9084502B0BDE8F041FFF797BF02B02C
:10B39800BDE8F0812DE9F04F00231688138090F85E
:10B3A8002D3085B007460D46144653B3082E01D8F4
:10B3B8000C2026E102A8FFF779FF002840F0218140
:10B3C80013880822CA54238801339BB21B22238086
:10B3D800CA542088013080B2208006220DF109016C
:10B3E800284403F0A6FE23889DF8082006339BB264
:10B3F80012F0FE0218BF01222380EA542388013389
:10B408002380BB78FBB123880433B342D0D802A889
:10B41800FFF74EFF002840F0F48023880322EA5407
:10B42800238801339BB219222380EA542388BDF86C
:10B43800082001339BB2E9182380EA54120A4A70A3
:10B44800238802332380FA789AB12388D91CB14221
:10B45800AED80221E954238801339BB2012123800D
:10B46800E95423880B449BB22380EA5423880B4475
:10B4780023807A68AAB12388D91CB14298D80221BE
:10B4880092F90020E954238801339BB20A212380D2
:10B49800E954238801339BB22380EA54238801337B
:10B4A80023803B89002B40F0A0803B8A5BB1CDE92B
:10B4B80000462B460722032107F11000FFF750FF33
:10B4C800002840F09E803B8B5BB1CDE900462B46BF
:10B4D8001522142107F11800FFF742FF002840F059
:10B4E80090803A6A002A40F08F80D7F82480B8F11B
:10B4F800000F30D0B8F804302188981C8A1C024408
:10B50800B2423FF655AFFE283FF652AF03336B54B5
:10B51800238801339BB2FF222380EA542388013316
:10B528009BB22380B8F80020EA54E918120A4A703E
:10B538002088023080B22080B8F804205AB1D8F8A8
:10B54800081000296AD0284403F0F3FD2388B8F8CE
:10B5580004201344238097F82C30002B40F0998066
:10B56800387800284DD03B88012B57D021888A1C79
:10B57800B2423FF61DAF012805D17B7802330B4458
:10B588009E42FFF415AF023E761A04A9B6B221F81E
:10B59800086DA818FFF78EFE98BB3978BDF808200B
:10B5A800022900F0BB807B78934202D3B24240F27A
:10B5B800B380012940F0B4809BB29E42C0F0B080B5
:10B5C800ADF808300821BDF80830FE2B3FF6F0AE84
:10B5D80022880133AB542288013292B22280A954C6
:10B5E80022881344238000200BE0CDE900462B4637
:10B5F8000622022107F10800FFF7B2FE00283FF4F7
:10B6080054AF05B0BDE8F08FB4F800C00CF10603E4
:10B61800B3423FF6CDAE1188052901D80720F0E7DF
:10B628006FF4486E01EB0E039BB24FF27D3E7345FB
:10B63800F4D95388052BF1D96FF44860181880B2F3
:10B648007045EBD94FF6FF70814203D0834201D099
:10B658009942E3D8052305F80C30238801339BB2BF
:10B6680012212380E954238801339BB22380118857
:10B67800E954E818090A4170238802339BB22380F1
:10B688005288EA54E918120A4A7023880233238040
:10B698002BE7BB6A002BC1D04FF000094FF00C0A12
:10B6A8004FF0160B97F82C305FFA89F293427FF629
:10B6B80057AFB96A0AFB02F201EB0208B8F8043086
:10B6C800981CFE283FF674AE208803332B54238839
:10B6D80001339BB2238005F803B0238801339BB262
:10B6E80023808A5AEA54E918120A4A7020880230DC
:10B6F80080B22080B8F804205AB1D8F80810002980
:10B708008CD0284403F015FD2388B8F8042013448E
:10B71800238009F10109C5E7092154E7B242FBD9A1
:10B72800ADF808604EE770B5C0B14AB1168800247C
:10B73800B44203D305196D789D4208D0A14201D8BF
:10B7480000200BE0055D01352C44A4B2F0E7A142CE
:10B75800F6D9A31C1380005D013880B270BD37B5DF
:10B7680002AC002324F8023D134622460546FFF7A3
:10B77800DAFF10B1BDF80600284403B030BD72DF0F
:10B78800704773DF704738B5012204460D46B0F89C
:10B798003812D0F83402FFF7E2FF00B1057004F167
:10B7A8003C0204F50D7104F15400BDE83840FFF780
:10B7B800E6BF80F830107047F8B504460F460029F8
:10B7C80075D0002873D091F87A301BB191F8983071
:10B7D800002B6ED1D7F8A030042B6AD0D7F89C3054
:10B7E800042B66D007F178060FCE4FF0000C251D0C
:10B7F80084F802C00FC50FCE0FC596E8070085E88C
:10B80800070084F830C0D7F8A4306363D7F8A830AD
:10B81800A3634FF6FF7504F50D73C4F84432A4F81A
:10B8280048520722614604F24A2003F0ABFC237811
:10B838000BB984F8545094F8243004F15501C4F835
:10B84800341283B3EE23A4F8383204F50E72384666
:10B85800FFF7A0FD30BB94F8243004F2431107F140
:10B868003C00C4F83C1203B3EE23A4F8403204F5BC
:10B878001072FFF78FFDA8B9A269A4F84820012328
:10B888006269206484F850006264014684F851308B
:10B8980084F83C3004F13C0204F15400FFF76FFFD8
:10B8A80000B92370F8BD1F23CDE71F23DDE70E2065
:10B8B800F8E70720F6E7F8B5077804460D46002FA5
:10B8C80000F0058100F24A26A170072200213046C7
:10B8D80003F058FCE38813B1A378012B04D0E37973
:10B8E8004BB1A378022B06D1636BA3B1012284F874
:10B8F800512208209847334604F5147113F8012F94
:10B9080012B99942FAD117466B1E032B53D8DFE8B8
:10B9180003F0050B0F1284F85132ECE7A3791BB141
:10B9280094F8243003B95FB9E3790BB1002F44D1FF
:10B93800237A002B43D1637A002B0CBF0025042502
:10B94800636BA570002B3CD0033D012D39D862797B
:10B95800002A36D094F85222002A32D184F8542290
:10B96800012284F853220720984704F13C05182245
:10B978000021284603F006FCE36A94F824200121FC
:10B98800581E884288BF0B4684F83C1084F8513012
:10B9980032B1884296BFA36A84F8521084F85230B4
:10B9A800A178002384F8503004291BD8DFE801F07F
:10B9B800770D223559000025C2E70225C0E7032587
:10B9C800BEE7002384F85332CFE7C4F84432C4E911
:10B9D80010630223012284F83C30802384F831204C
:10B9E800A4F84830A378002B5CD1636B002B6AD194
:10B9F800002067E0022384F8313062B1072384F81D
:10BA08003C302369A4F848300023C4F84432E36882
:10BA180026646364E6E70323F1E763696364A36963
:10BA2800A4F8483012B1062384F83C306379B3B1E6
:10BA380094F852329BB994F8543283B1022384F8B3
:10BA4800503004212046FFF79EFE0028CAD1052366
:10BA580084F8313004F50D73C4F84432C2E7032387
:10BA6800F6E7E3696364236AA4F8483012B1062351
:10BA780084F83C30637983B194F852326BB994F806
:10BA8800543253B1022384F8503004212046FFF782
:10BA98007AFE0028A6D10623DAE70423D8E784F83B
:10BAA80031309FE72A46D4F8441204F15400FFF7D6
:10BAB80066FE38B994F8301094F85400FFF761FE28
:10BAC800002892D0F8BD94F83100984790E70820F4
